{
  "contractName": "Main",
  "abi": [
    {
      "anonymous": false,
      "inputs": [
        {
          "indexed": false,
          "internalType": "contract SavingGroups",
          "name": "childTanda",
          "type": "address"
        }
      ],
      "name": "TandaCreated",
      "type": "event"
    },
    {
      "inputs": [
        {
          "internalType": "uint256",
          "name": "_garantia",
          "type": "uint256"
        },
        {
          "internalType": "uint256",
          "name": "_ahorro",
          "type": "uint256"
        },
        {
          "internalType": "uint256",
          "name": "_groupSize",
          "type": "uint256"
        }
      ],
      "name": "createTanda",
      "outputs": [
        {
          "internalType": "address",
          "name": "",
          "type": "address"
        }
      ],
      "stateMutability": "payable",
      "type": "function"
    }
  ],
  "bytecode": "0x608060405234801561001057600080fd5b5061316e806100206000396000f3fe60806040526004361061001e5760003560e01c8063f66dc0a914610023575b600080fd5b6100636004803603606081101561003957600080fd5b8101908080359060200190929190803590602001909291908035906020019092919050505061008f565b604051808273ffffffffffffffffffffffffffffffffffffffff16815260200191505060405180910390f35b600080848484336040516100a29061014e565b808581526020018481526020018381526020018273ffffffffffffffffffffffffffffffffffffffff168152602001945050505050604051809103906000f0801580156100f3573d6000803e3d6000fd5b5090507fa990b0feed19232d29bd87b5ac745ba0982019f89d3c2739422d61327850be0081604051808273ffffffffffffffffffffffffffffffffffffffff16815260200191505060405180910390a1809150509392505050565b612fdd8061015c8339019056fe608060405260006005556001600655600060085560006009556000600b556040518060400160405280600073ffffffffffffffffffffffffffffffffffffffff1673ffffffffffffffffffffffffffffffffffffffff168152602001600073ffffffffffffffffffffffffffffffffffffffff1673ffffffffffffffffffffffffffffffffffffffff16815250600c9060026200009e9291906200017d565b506096600e5560b4600f55348015620000b657600080fd5b5060405162002fdd38038062002fdd8339818101604052810190620000dc919062000277565b80600160006101000a81548173ffffffffffffffffffffffffffffffffffffffff021916908373ffffffffffffffffffffffffffffffffffffffff16021790555067016345785d8a0000840260028190555067016345785d8a00008302600381905550816004819055506000600a819055506000600d60006101000a81548160ff021916908360028111156200016e57fe5b02179055505050505062000355565b828054828255906000526020600020908101928215620001f9579160200282015b82811115620001f85782518260006101000a81548173ffffffffffffffffffffffffffffffffffffffff021916908373ffffffffffffffffffffffffffffffffffffffff160217905550916020019190600101906200019e565b5b5090506200020891906200020c565b5090565b5b808211156200024557600081816101000a81549073ffffffffffffffffffffffffffffffffffffffff0219169055506001016200020d565b5090565b6000815190506200025a8162000321565b92915050565b60008151905062000271816200033b565b92915050565b600080600080608085870312156200028e57600080fd5b60006200029e8782880162000260565b9450506020620002b18782880162000260565b9350506040620002c48782880162000260565b9250506060620002d78782880162000249565b91505092959194509250565b6000620002f082620002f7565b9050919050565b600073ffffffffffffffffffffffffffffffffffffffff82169050919050565b6000819050919050565b6200032c81620002e3565b81146200033857600080fd5b50565b620003468162000317565b81146200035257600080fd5b50565b612c7880620003656000396000f3fe6080604052600436106101145760003560e01c80636f3d7e64116100a0578063b4bde59e11610064578063b4bde59e146102a2578063b6a26cab146102cd578063b842478b146102d7578063c040e6b814610302578063f851a4401461032d57610114565b80636f3d7e641461021957806371c5061c146102235780637dab75311461022d5780638b29990314610237578063a87430ba1461026257610114565b806330fceb6c116100e757806330fceb6c146101655780635394dda81461016f57806355e3f086146101ac57806363b635ea146101c357806364f9a17c146101ee57610114565b806311dc470314610119578063193e76c7146101355780631bbfae0e1461013f5780632d14252f1461015b575b600080fd5b610133600480360381019061012e919061236f565b610358565b005b61013d6106f7565b005b6101596004803603810190610154919061236f565b610a0b565b005b610163610d2b565b005b61016d61107a565b005b34801561017b57600080fd5b506101966004803603810190610191919061236f565b611414565b6040516101a391906128b0565b60405180910390f35b3480156101b857600080fd5b506101c1611450565b005b3480156101cf57600080fd5b506101d8611589565b6040516101e59190612b46565b60405180910390f35b3480156101fa57600080fd5b5061020361158f565b6040516102109190612b46565b60405180910390f35b610221611595565b005b61022b611810565b005b610235611a44565b005b34801561024357600080fd5b5061024c611cd7565b6040516102599190612b46565b60405180910390f35b34801561026e57600080fd5b5061028960048036038101906102849190612346565b611cdd565b60405161029994939291906128e6565b60405180910390f35b3480156102ae57600080fd5b506102b7611d54565b6040516102c49190612b46565b60405180910390f35b6102d5611d5a565b005b3480156102e357600080fd5b506102ec611f99565b6040516102f99190612b46565b60405180910390f35b34801561030e57600080fd5b50610317611f9f565b604051610324919061292b565b60405180910390f35b34801561033957600080fd5b50610342611fb2565b60405161034f91906128cb565b60405180910390f35b600160009054906101000a900473ffffffffffffffffffffffffffffffffffffffff168073ffffffffffffffffffffffffffffffffffffffff163373ffffffffffffffffffffffffffffffffffffffff16146103e9576040517f08c379a00000000000000000000000000000000000000000000000000000000081526004016103e090612986565b60405180910390fd5b60008060028111156103f757fe5b600d60009054906101000a900460ff16600281111561041257fe5b1461041c57600080fd5b600073ffffffffffffffffffffffffffffffffffffffff16600c600185038154811061044457fe5b9060005260206000200160009054906101000a900473ffffffffffffffffffffffffffffffffffffffff1673ffffffffffffffffffffffffffffffffffffffff1614156104c6576040517f08c379a00000000000000000000000000000000000000000000000000000000081526004016104bd906129e6565b60405180910390fd5b6000600c60018503815481106104d857fe5b9060005260206000200160009054906101000a900473ffffffffffffffffffffffffffffffffffffffff16905060008060008373ffffffffffffffffffffffffffffffffffffffff1673ffffffffffffffffffffffffffffffffffffffff16815260200190815260200160002060000160169054906101000a900460ff1660ff16141561061757600254600954036009819055506000808273ffffffffffffffffffffffffffffffffffffffff1673ffffffffffffffffffffffffffffffffffffffff16815260200190815260200160002060000160009054906101000a900473ffffffffffffffffffffffffffffffffffffffff1673ffffffffffffffffffffffffffffffffffffffff166108fc6002549081150290604051600060405180830381858888f19350505050158015610615573d6000803e3d6000fd5b505b6000600c600186038154811061062957fe5b9060005260206000200160006101000a81548173ffffffffffffffffffffffffffffffffffffffff021916908373ffffffffffffffffffffffffffffffffffffffff16021790555060056000815480929190600190039190505550600a600081548092919060019003919050555060008060008373ffffffffffffffffffffffffffffffffffffffff1673ffffffffffffffffffffffffffffffffffffffff16815260200190815260200160002060000160156101000a81548160ff02191690831515021790555050505050565b6000803373ffffffffffffffffffffffffffffffffffffffff1673ffffffffffffffffffffffffffffffffffffffff16815260200190815260200160002060000160159054906101000a900460ff16600115158115151461078d576040517f08c379a000000000000000000000000000000000000000000000000000000000815260040161078490612a06565b60405180910390fd5b346002548082146107d3576040517f08c379a00000000000000000000000000000000000000000000000000000000081526004016107ca90612ac6565b60405180910390fd5b600c600160065403815481106107e557fe5b9060005260206000200160009054906101000a900473ffffffffffffffffffffffffffffffffffffffff168073ffffffffffffffffffffffffffffffffffffffff163373ffffffffffffffffffffffffffffffffffffffff16141561087f576040517f08c379a000000000000000000000000000000000000000000000000000000000815260040161087690612b06565b60405180910390fd5b600180600281111561088d57fe5b600d60009054906101000a900460ff1660028111156108a857fe5b146108b257600080fd5b600015156000803373ffffffffffffffffffffffffffffffffffffffff1673ffffffffffffffffffffffffffffffffffffffff16815260200190815260200160002060000160149054906101000a900460ff16151514610947576040517f08c379a000000000000000000000000000000000000000000000000000000000815260040161093e90612a66565b60405180910390fd5b600f5460016006540302600e5460065402600754010142111561099f576040517f08c379a000000000000000000000000000000000000000000000000000000000815260040161099690612ae6565b60405180910390fd5b346008540160088190555060016000803373ffffffffffffffffffffffffffffffffffffffff1673ffffffffffffffffffffffffffffffffffffffff16815260200190815260200160002060000160146101000a81548160ff0219169083151502179055505050505050565b34600254808214610a51576040517f08c379a0000000000000000000000000000000000000000000000000000000008152600401610a4890612ac6565b60405180910390fd5b6000806002811115610a5f57fe5b600d60009054906101000a900460ff166002811115610a7a57fe5b14610a8457600080fd5b60045460055410610aca576040517f08c379a0000000000000000000000000000000000000000000000000000000008152600401610ac190612a46565b60405180910390fd5b600073ffffffffffffffffffffffffffffffffffffffff16600c6001860381548110610af257fe5b9060005260206000200160009054906101000a900473ffffffffffffffffffffffffffffffffffffffff1673ffffffffffffffffffffffffffffffffffffffff1614610b73576040517f08c379a0000000000000000000000000000000000000000000000000000000008152600401610b6a906129a6565b60405180910390fd5b6005600081548092919060010191905055503460095401600981905550600a6000815480929190600101919050555060405180608001604052803373ffffffffffffffffffffffffffffffffffffffff168152602001600015158152602001600115158152602001600060ff168152506000803373ffffffffffffffffffffffffffffffffffffffff1673ffffffffffffffffffffffffffffffffffffffff16815260200190815260200160002060008201518160000160006101000a81548173ffffffffffffffffffffffffffffffffffffffff021916908373ffffffffffffffffffffffffffffffffffffffff16021790555060208201518160000160146101000a81548160ff02191690831515021790555060408201518160000160156101000a81548160ff02191690831515021790555060608201518160000160166101000a81548160ff021916908360ff16021790555090505033600c6001860381548110610cdd57fe5b9060005260206000200160006101000a81548173ffffffffffffffffffffffffffffffffffffffff021916908373ffffffffffffffffffffffffffffffffffffffff16021790555050505050565b6002806002811115610d3957fe5b600d60009054906101000a900460ff166002811115610d5457fe5b14610d5e57600080fd5b600160009054906101000a900473ffffffffffffffffffffffffffffffffffffffff168073ffffffffffffffffffffffffffffffffffffffff163373ffffffffffffffffffffffffffffffffffffffff1614610def576040517f08c379a0000000000000000000000000000000000000000000000000000000008152600401610de690612986565b60405180910390fd5b600a5460095481610dfc57fe5b04600b8190555060005b6004548160ff161015611038576000600c8260ff1681548110610e2557fe5b9060005260206000200160009054906101000a900473ffffffffffffffffffffffffffffffffffffffff169050600a54600254026009541015610fd05760008060008373ffffffffffffffffffffffffffffffffffffffff1673ffffffffffffffffffffffffffffffffffffffff16815260200190815260200160002060000160169054906101000a900460ff1660ff161415610f74576000808273ffffffffffffffffffffffffffffffffffffffff1673ffffffffffffffffffffffffffffffffffffffff16815260200190815260200160002060000160009054906101000a900473ffffffffffffffffffffffffffffffffffffffff1673ffffffffffffffffffffffffffffffffffffffff166108fc600b549081150290604051600060405180830381858888f19350505050158015610f65573d6000803e3d6000fd5b50600b54600954036009819055505b60016000808373ffffffffffffffffffffffffffffffffffffffff1673ffffffffffffffffffffffffffffffffffffffff16815260200190815260200160002060000160166101000a81548160ff021916908360ff1602179055505b60008060008373ffffffffffffffffffffffffffffffffffffffff1673ffffffffffffffffffffffffffffffffffffffff16815260200190815260200160002060000160146101000a81548160ff021916908315150217905550508080600101915050610e06565b50600454600a81905550600160068190555060006008819055506000600d60006101000a81548160ff0219169083600281111561107157fe5b02179055505050565b6000803373ffffffffffffffffffffffffffffffffffffffff1673ffffffffffffffffffffffffffffffffffffffff16815260200190815260200160002060000160159054906101000a900460ff166001151581151514611110576040517f08c379a000000000000000000000000000000000000000000000000000000000815260040161110790612a06565b60405180910390fd5b600180600281111561111e57fe5b600d60009054906101000a900460ff16600281111561113957fe5b1461114357600080fd5b600c6001600654038154811061115557fe5b9060005260206000200160009054906101000a900473ffffffffffffffffffffffffffffffffffffffff168073ffffffffffffffffffffffffffffffffffffffff163373ffffffffffffffffffffffffffffffffffffffff16146111ee576040517f08c379a00000000000000000000000000000000000000000000000000000000081526004016111e590612b26565b60405180910390fd5b600f5460065402600e54600654026007540101421115611243576040517f08c379a000000000000000000000000000000000000000000000000000000000815260040161123a90612aa6565b60405180910390fd5b42600f5460016006540302600e54600654026007540101108015611271575060035460016004540302600854105b1561127f5761127e611fd8565b5b60035460016004540302600854146112cc576040517f08c379a00000000000000000000000000000000000000000000000000000000081526004016112c390612a26565b60405180910390fd5b6000600c600160065403815481106112e057fe5b9060005260206000200160009054906101000a900473ffffffffffffffffffffffffffffffffffffffff1690506000808273ffffffffffffffffffffffffffffffffffffffff1673ffffffffffffffffffffffffffffffffffffffff16815260200190815260200160002060000160009054906101000a900473ffffffffffffffffffffffffffffffffffffffff1673ffffffffffffffffffffffffffffffffffffffff166108fc6008549081150290604051600060405180830381858888f193505050501580156113b6573d6000803e3d6000fd5b506000600881905550600454600654106113f3576002600d60006101000a81548160ff021916908360028111156113e957fe5b02179055506113fc565b6113fb612262565b5b60066000815480929190600101919050555050505050565b600c818154811061142157fe5b906000526020600020016000915054906101000a900473ffffffffffffffffffffffffffffffffffffffff1681565b600160009054906101000a900473ffffffffffffffffffffffffffffffffffffffff168073ffffffffffffffffffffffffffffffffffffffff163373ffffffffffffffffffffffffffffffffffffffff16146114e1576040517f08c379a00000000000000000000000000000000000000000000000000000000081526004016114d890612986565b60405180910390fd5b60008060028111156114ef57fe5b600d60009054906101000a900460ff16600281111561150a57fe5b1461151457600080fd5b600454600a541461155a576040517f08c379a0000000000000000000000000000000000000000000000000000000008152600401611551906129c6565b60405180910390fd5b6001600d60006101000a81548160ff0219169083600281111561157957fe5b0217905550426007819055505050565b60045481565b60085481565b600160009054906101000a900473ffffffffffffffffffffffffffffffffffffffff168073ffffffffffffffffffffffffffffffffffffffff163373ffffffffffffffffffffffffffffffffffffffff1614611626576040517f08c379a000000000000000000000000000000000000000000000000000000000815260040161161d90612986565b60405180910390fd5b600180600281111561163457fe5b600d60009054906101000a900460ff16600281111561164f57fe5b1461165957600080fd5b42600f5460065402600e54600654026007540101106116ad576040517f08c379a00000000000000000000000000000000000000000000000000000000081526004016116a490612966565b60405180910390fd5b6003546001600454030260085410156116c9576116c8611fd8565b5b6000600c600160065403815481106116dd57fe5b9060005260206000200160009054906101000a900473ffffffffffffffffffffffffffffffffffffffff1690506000808273ffffffffffffffffffffffffffffffffffffffff1673ffffffffffffffffffffffffffffffffffffffff16815260200190815260200160002060000160009054906101000a900473ffffffffffffffffffffffffffffffffffffffff1673ffffffffffffffffffffffffffffffffffffffff166108fc6008549081150290604051600060405180830381858888f193505050501580156117b3573d6000803e3d6000fd5b506000600881905550600454600654106117f0576002600d60006101000a81548160ff021916908360028111156117e657fe5b02179055506117f9565b6117f8612262565b5b600660008154809291906001019190505550505050565b600080600281111561181e57fe5b600d60009054906101000a900460ff16600281111561183957fe5b1461184357600080fd5b6000803373ffffffffffffffffffffffffffffffffffffffff1673ffffffffffffffffffffffffffffffffffffffff16815260200190815260200160002060000160159054906101000a900460ff1660011515811515146118d9576040517f08c379a00000000000000000000000000000000000000000000000000000000081526004016118d090612a06565b60405180910390fd5b60008060003373ffffffffffffffffffffffffffffffffffffffff1673ffffffffffffffffffffffffffffffffffffffff16815260200190815260200160002060000160169054906101000a900460ff1660ff161161196d576040517f08c379a000000000000000000000000000000000000000000000000000000000815260040161196490612a86565b60405180910390fd5b60025434146119b1576040517f08c379a00000000000000000000000000000000000000000000000000000000081526004016119a890612ac6565b60405180910390fd5b34600954016009819055506000803373ffffffffffffffffffffffffffffffffffffffff1673ffffffffffffffffffffffffffffffffffffffff168152602001908152602001600020600001601681819054906101000a900460ff16809291906001900391906101000a81548160ff021916908360ff16021790555050600a600081548092919060010191905055505050565b6000803373ffffffffffffffffffffffffffffffffffffffff1673ffffffffffffffffffffffffffffffffffffffff16815260200190815260200160002060000160159054906101000a900460ff166001151581151514611ada576040517f08c379a0000000000000000000000000000000000000000000000000000000008152600401611ad190612a06565b60405180910390fd5b34600254808214611b20576040517f08c379a0000000000000000000000000000000000000000000000000000000008152600401611b1790612ac6565b60405180910390fd5b6001806002811115611b2e57fe5b600d60009054906101000a900460ff166002811115611b4957fe5b14611b5357600080fd5b60008060003373ffffffffffffffffffffffffffffffffffffffff1673ffffffffffffffffffffffffffffffffffffffff16815260200190815260200160002060000160169054906101000a900460ff1660ff1611611be7576040517f08c379a0000000000000000000000000000000000000000000000000000000008152600401611bde90612946565b60405180910390fd5b34600954016009819055506000803373ffffffffffffffffffffffffffffffffffffffff1673ffffffffffffffffffffffffffffffffffffffff168152602001908152602001600020600001601681819054906101000a900460ff16809291906001900391906101000a81548160ff021916908360ff1602179055505060008060003373ffffffffffffffffffffffffffffffffffffffff1673ffffffffffffffffffffffffffffffffffffffff16815260200190815260200160002060000160169054906101000a900460ff1660ff161415611cd157600a600081548092919060010191905055505b50505050565b60065481565b60006020528060005260406000206000915090508060000160009054906101000a900473ffffffffffffffffffffffffffffffffffffffff16908060000160149054906101000a900460ff16908060000160159054906101000a900460ff16908060000160169054906101000a900460ff16905084565b60095481565b6002806002811115611d6857fe5b600d60009054906101000a900460ff166002811115611d8357fe5b14611d8d57600080fd5b600160009054906101000a900473ffffffffffffffffffffffffffffffffffffffff168073ffffffffffffffffffffffffffffffffffffffff163373ffffffffffffffffffffffffffffffffffffffff1614611e1e576040517f08c379a0000000000000000000000000000000000000000000000000000000008152600401611e1590612986565b60405180910390fd5b600a5460095481611e2b57fe5b04600b8190555060005b6004548160ff161015611f94576000600c8260ff1681548110611e5457fe5b9060005260206000200160009054906101000a900473ffffffffffffffffffffffffffffffffffffffff16905060008060008373ffffffffffffffffffffffffffffffffffffffff1673ffffffffffffffffffffffffffffffffffffffff16815260200190815260200160002060000160169054906101000a900460ff1660ff161415611f86576000808273ffffffffffffffffffffffffffffffffffffffff1673ffffffffffffffffffffffffffffffffffffffff16815260200190815260200160002060000160009054906101000a900473ffffffffffffffffffffffffffffffffffffffff1673ffffffffffffffffffffffffffffffffffffffff166108fc600b549081150290604051600060405180830381858888f19350505050158015611f84573d6000803e3d6000fd5b505b508080600101915050611e35565b505050565b600a5481565b600d60009054906101000a900460ff1681565b600160009054906101000a900473ffffffffffffffffffffffffffffffffffffffff1681565b60005b6004548160ff16101561225f576000600c8260ff1681548110611ffa57fe5b9060005260206000200160009054906101000a900473ffffffffffffffffffffffffffffffffffffffff169050600015156000808373ffffffffffffffffffffffffffffffffffffffff1673ffffffffffffffffffffffffffffffffffffffff16815260200190815260200160002060000160149054906101000a900460ff16151514801561215257506000808273ffffffffffffffffffffffffffffffffffffffff1673ffffffffffffffffffffffffffffffffffffffff16815260200190815260200160002060000160009054906101000a900473ffffffffffffffffffffffffffffffffffffffff1673ffffffffffffffffffffffffffffffffffffffff16600c6001600654038154811061210e57fe5b9060005260206000200160009054906101000a900473ffffffffffffffffffffffffffffffffffffffff1673ffffffffffffffffffffffffffffffffffffffff1614155b1561225157600354600954036009819055506003546008540160088190555060008060008373ffffffffffffffffffffffffffffffffffffffff1673ffffffffffffffffffffffffffffffffffffffff16815260200190815260200160002060000160169054906101000a900460ff1660ff1614156121df57600a60008154809291906001900391905055505b6000808273ffffffffffffffffffffffffffffffffffffffff1673ffffffffffffffffffffffffffffffffffffffff168152602001908152602001600020600001601681819054906101000a900460ff168092919060010191906101000a81548160ff021916908360ff160217905550505b508080600101915050611fdb565b50565b60005b6004548160ff161015612319576000600c8260ff168154811061228457fe5b9060005260206000200160009054906101000a900473ffffffffffffffffffffffffffffffffffffffff16905060008060008373ffffffffffffffffffffffffffffffffffffffff1673ffffffffffffffffffffffffffffffffffffffff16815260200190815260200160002060000160146101000a81548160ff021916908315150217905550508080600101915050612265565b50565b60008135905061232b81612c14565b92915050565b60008135905061234081612c2b565b92915050565b60006020828403121561235857600080fd5b60006123668482850161231c565b91505092915050565b60006020828403121561238157600080fd5b600061238f84828501612331565b91505092915050565b6123a181612b84565b82525050565b6123b081612b72565b82525050565b6123bf81612b96565b82525050565b6123ce81612bec565b82525050565b60006123e1601b83612b61565b91507f457374617320616c20636f727269656e746520656e207061676f7300000000006000830152602082019050919050565b6000612421602583612b61565b91507f456c207573756172696f20656e207475726e6f2061756e20707565646520726560008301527f74697261720000000000000000000000000000000000000000000000000000006020830152604082019050919050565b6000612487602583612b61565b91507f536f6c6f20656c2061646d696e207075656465206c6c616d6172206c6120667560008301527f6e63696f6e0000000000000000000000000000000000000000000000000000006020830152604082019050919050565b60006124ed601a83612b61565b91507f45737465206c756761722079612065737461206f63757061646f0000000000006000830152602082019050919050565b600061252d603e83612b61565b91507f41756e20686179206c7567617265732073696e20617369676e6172206f20616c60008301527f677569656e206e6f2068612070616761646f206c6120676172616e74696100006020830152604082019050919050565b6000612593601583612b61565b91507f45737465207475726e6f206573746120766163696f00000000000000000000006000830152602082019050919050565b60006125d3601583612b61565b91507f5573756172696f206e6f207265676973747261646f00000000000000000000006000830152602082019050919050565b6000612613602b83612b61565b91507f4573706572612061207175652074656e67616d6f7320656c206d6f6e746f206460008301527f652074752061686f72726f0000000000000000000000000000000000000000006020830152604082019050919050565b6000612679601683612b61565b91507f456c20677275706f206573746120636f6d706c65746f000000000000000000006000830152602082019050919050565b60006126b9601783612b61565b91507f59612061686f7272617374652065737465207475726e6f0000000000000000006000830152602082019050919050565b60006126f9601e83612b61565b91507f59612074656e656d6f732072656769737261646f2074752043617368496e00006000830152602082019050919050565b6000612739601b83612b61565b91507f5465726d696e6f20656c207469656d706f2064652072657469726f00000000006000830152602082019050919050565b6000612779601483612b61565b91507f466f6e646f7320496e737566696369656e7465730000000000000000000000006000830152602082019050919050565b60006127b9600b83612b61565b91507f5061676f2074617264696f0000000000000000000000000000000000000000006000830152602082019050919050565b60006127f9601a83612b61565b91507f456e2065737465207475726e6f206e6f206465706f73697461730000000000006000830152602082019050919050565b6000612839602383612b61565b91507f44656265732065737065726172207475207475726e6f2070617261207265746960008301527f72617200000000000000000000000000000000000000000000000000000000006020830152604082019050919050565b61289b81612bd5565b82525050565b6128aa81612bdf565b82525050565b60006020820190506128c560008301846123a7565b92915050565b60006020820190506128e06000830184612398565b92915050565b60006080820190506128fb6000830187612398565b61290860208301866123b6565b61291560408301856123b6565b61292260608301846128a1565b95945050505050565b600060208201905061294060008301846123c5565b92915050565b6000602082019050818103600083015261295f816123d4565b9050919050565b6000602082019050818103600083015261297f81612414565b9050919050565b6000602082019050818103600083015261299f8161247a565b9050919050565b600060208201905081810360008301526129bf816124e0565b9050919050565b600060208201905081810360008301526129df81612520565b9050919050565b600060208201905081810360008301526129ff81612586565b9050919050565b60006020820190508181036000830152612a1f816125c6565b9050919050565b60006020820190508181036000830152612a3f81612606565b9050919050565b60006020820190508181036000830152612a5f8161266c565b9050919050565b60006020820190508181036000830152612a7f816126ac565b9050919050565b60006020820190508181036000830152612a9f816126ec565b9050919050565b60006020820190508181036000830152612abf8161272c565b9050919050565b60006020820190508181036000830152612adf8161276c565b9050919050565b60006020820190508181036000830152612aff816127ac565b9050919050565b60006020820190508181036000830152612b1f816127ec565b9050919050565b60006020820190508181036000830152612b3f8161282c565b9050919050565b6000602082019050612b5b6000830184612892565b92915050565b600082825260208201905092915050565b6000612b7d82612bb5565b9050919050565b6000612b8f82612bb5565b9050919050565b60008115159050919050565b6000819050612bb082612c00565b919050565b600073ffffffffffffffffffffffffffffffffffffffff82169050919050565b6000819050919050565b600060ff82169050919050565b6000612bf782612ba2565b9050919050565bfe5b60038110612c1157612c10612bfe565b5b50565b612c1d81612b72565b8114612c2857600080fd5b50565b612c3481612bd5565b8114612c3f57600080fd5b5056fea26469706673582212205736769d6517255a115222366d6ea2fb61b4667c40c8684dbff28d76bc1f45f864736f6c63430007020033a2646970667358221220fccf72c8a0933ba6d2803630fa196e1071cdba32cdea1c1f95b01ef60a7dda2364736f6c63430007020033",
  "immutableReferences": {},
  "source": "// SPDX-License-Identifier: MIT\npragma solidity ^0.7.2;\n\nimport \"./SavingGroups.sol\";\n\ncontract Main{\n    event TandaCreated(SavingGroups childTanda);\n\n    function createTanda(uint256 _garantia, uint256 _ahorro, uint256 _groupSize) external payable returns(address) {\n\n        SavingGroups newTanda = new SavingGroups(_garantia, _ahorro, _groupSize, msg.sender);\n        emit TandaCreated(newTanda);\n        return address(newTanda);\n    }\n}\n",
  "sourcePath": "/Users/federico/Desktop/BloinxWeb/bloinx-web/contracts/main.sol",
  "compiler": {
    "name": "solc",
    "version": "0.7.2+commit.51b20bc0.Emscripten.clang"
  },
  "schemaVersion": "3.3.1",
  "updatedAt": "2021-06-26T04:51:11.512Z",
  "devdoc": {
    "kind": "dev",
    "methods": {},
    "version": 1
  },
  "userdoc": {
    "kind": "user",
    "methods": {},
    "version": 1
  }
}