{
  "contractName": "Groups",
  "abi": [
    {
      "constant": true,
      "inputs": [
        {
          "name": "",
          "type": "uint256"
        }
      ],
      "name": "rooms",
      "outputs": [
        {
          "name": "roomId",
          "type": "uint256"
        },
        {
          "components": [
            {
              "name": "userId",
              "type": "uint256"
            },
            {
              "name": "userName",
              "type": "string"
            },
            {
              "name": "userAddr",
              "type": "address"
            },
            {
              "name": "cashInFlag",
              "type": "bool"
            },
            {
              "name": "saveAmountFlag",
              "type": "bool"
            }
          ],
          "name": "user",
          "type": "tuple"
        }
      ],
      "payable": false,
      "stateMutability": "view",
      "type": "function"
    },
    {
      "constant": true,
      "inputs": [
        {
          "name": "",
          "type": "uint256"
        }
      ],
      "name": "usersList",
      "outputs": [
        {
          "name": "userId",
          "type": "uint256"
        },
        {
          "name": "userName",
          "type": "string"
        },
        {
          "name": "userAddr",
          "type": "address"
        },
        {
          "name": "cashInFlag",
          "type": "bool"
        },
        {
          "name": "saveAmountFlag",
          "type": "bool"
        }
      ],
      "payable": false,
      "stateMutability": "view",
      "type": "function"
    },
    {
      "constant": true,
      "inputs": [
        {
          "name": "",
          "type": "address"
        }
      ],
      "name": "users",
      "outputs": [
        {
          "name": "userId",
          "type": "uint256"
        },
        {
          "name": "userName",
          "type": "string"
        },
        {
          "name": "userAddr",
          "type": "address"
        },
        {
          "name": "cashInFlag",
          "type": "bool"
        },
        {
          "name": "saveAmountFlag",
          "type": "bool"
        }
      ],
      "payable": false,
      "stateMutability": "view",
      "type": "function"
    },
    {
      "constant": true,
      "inputs": [],
      "name": "admin",
      "outputs": [
        {
          "name": "",
          "type": "address"
        }
      ],
      "payable": false,
      "stateMutability": "view",
      "type": "function"
    },
    {
      "inputs": [
        {
          "name": "_cashIn",
          "type": "uint256"
        },
        {
          "name": "_saveAmount",
          "type": "uint256"
        },
        {
          "name": "_groupSize",
          "type": "uint8"
        }
      ],
      "payable": false,
      "stateMutability": "nonpayable",
      "type": "constructor"
    },
    {
      "constant": false,
      "inputs": [
        {
          "name": "_userName",
          "type": "string"
        }
      ],
      "name": "registerUser",
      "outputs": [],
      "payable": false,
      "stateMutability": "nonpayable",
      "type": "function"
    },
    {
      "constant": false,
      "inputs": [],
      "name": "payCashIn",
      "outputs": [],
      "payable": true,
      "stateMutability": "payable",
      "type": "function"
    },
    {
      "constant": false,
      "inputs": [],
      "name": "payRound",
      "outputs": [],
      "payable": true,
      "stateMutability": "payable",
      "type": "function"
    },
    {
      "constant": false,
      "inputs": [],
      "name": "WithdrawRound",
      "outputs": [],
      "payable": true,
      "stateMutability": "payable",
      "type": "function"
    }
  ],
  "bytecode": "0x6080604052600160025560006003556000600755600060085560006009556000600a556000600b553480156200003457600080fd5b5060405160608062001db083398101806040526200005691908101906200010b565b33600f60006101000a81548173ffffffffffffffffffffffffffffffffffffffff021916908373ffffffffffffffffffffffffffffffffffffffff16021790555082600481905550816005819055508060ff166006819055506000600c60006101000a81548160ff02191690836003811115620000cf57fe5b0217905550505050620001ac565b600081519050620000ee8162000178565b92915050565b600081519050620001058162000192565b92915050565b6000806000606084860312156200012157600080fd5b60006200013186828701620000dd565b93505060206200014486828701620000dd565b92505060406200015786828701620000f4565b9150509250925092565b6000819050919050565b600060ff82169050919050565b620001838162000161565b81146200018f57600080fd5b50565b6200019d816200016b565b8114620001a957600080fd5b50565b611bf480620001bc6000396000f3fe60806040526004361061007b5760003560e01c8063704f1b941161004e578063704f1b941461011357806371c5061c1461013c578063a87430ba14610146578063f851a440146101875761007b565b80631229b1d1146100805780631bae0ac81461008a578063502aa3b5146100c8578063561a57b214610109575b600080fd5b6100886101b2565b005b34801561009657600080fd5b506100b160048036036100ac91908101906113f1565b6104b5565b6040516100bf929190611a29565b60405180910390f35b3480156100d457600080fd5b506100ef60048036036100ea91908101906113f1565b61061b565b6040516101009594939291906119cf565b60405180910390f35b610111610730565b005b34801561011f57600080fd5b5061013a600480360361013591908101906113b0565b6109d2565b005b610144610d2a565b005b34801561015257600080fd5b5061016d60048036036101689190810190611387565b611058565b60405161017e9594939291906119cf565b60405180910390f35b34801561019357600080fd5b5061019c611160565b6040516101a99190611874565b60405180910390f35b6000803373ffffffffffffffffffffffffffffffffffffffff1673ffffffffffffffffffffffffffffffffffffffff16815260200190815260200160002060020160009054906101000a900473ffffffffffffffffffffffffffffffffffffffff1673ffffffffffffffffffffffffffffffffffffffff163373ffffffffffffffffffffffffffffffffffffffff1614610281576040517f08c379a0000000000000000000000000000000000000000000000000000000008152600401610278906118ef565b60405180910390fd5b600d6009548154811061029057fe5b906000526020600020906003020160020160009054906101000a900473ffffffffffffffffffffffffffffffffffffffff1673ffffffffffffffffffffffffffffffffffffffff163373ffffffffffffffffffffffffffffffffffffffff161461032f576040517f08c379a0000000000000000000000000000000000000000000000000000000008152600401610326906119af565b60405180910390fd5b6002600381111561033c57fe5b600c60009054906101000a900460ff16600381111561035757fe5b14610397576040517f08c379a000000000000000000000000000000000000000000000000000000000815260040161038e9061190f565b60405180910390fd5b6001600c60006101000a81548160ff021916908360038111156103b657fe5b0217905550600d600954815481106103ca57fe5b906000526020600020906003020160020160009054906101000a900473ffffffffffffffffffffffffffffffffffffffff1673ffffffffffffffffffffffffffffffffffffffff166108fc600a549081150290604051600060405180830381858888f19350505050158015610443573d6000803e3d6000fd5b506009600081548092919060010191905055506001600c60006101000a81548160ff0219169083600381111561047557fe5b0217905550610482611186565b60065460095411156104b3576003600c60006101000a81548160ff021916908360038111156104ad57fe5b02179055505b565b6001602052806000526040600020600091509050806000015490806001016040518060a001604052908160008201548152602001600182018054600181600116156101000203166002900480601f0160208091040260200160405190810160405280929190818152602001828054600181600116156101000203166002900480156105815780601f1061055657610100808354040283529160200191610581565b820191906000526020600020905b81548152906001019060200180831161056457829003601f168201915b505050505081526020016002820160009054906101000a900473ffffffffffffffffffffffffffffffffffffffff1673ffffffffffffffffffffffffffffffffffffffff1673ffffffffffffffffffffffffffffffffffffffff1681526020016002820160149054906101000a900460ff161515151581526020016002820160159054906101000a900460ff161515151581525050905082565b600d818154811061062857fe5b9060005260206000209060030201600091509050806000015490806001018054600181600116156101000203166002900480601f0160208091040260200160405190810160405280929190818152602001828054600181600116156101000203166002900480156106da5780601f106106af576101008083540402835291602001916106da565b820191906000526020600020905b8154815290600101906020018083116106bd57829003601f168201915b5050505050908060020160009054906101000a900473ffffffffffffffffffffffffffffffffffffffff16908060020160149054906101000a900460ff16908060020160159054906101000a900460ff16905085565b6000803373ffffffffffffffffffffffffffffffffffffffff1673ffffffffffffffffffffffffffffffffffffffff16815260200190815260200160002060020160009054906101000a900473ffffffffffffffffffffffffffffffffffffffff1673ffffffffffffffffffffffffffffffffffffffff163373ffffffffffffffffffffffffffffffffffffffff16146107ff576040517f08c379a00000000000000000000000000000000000000000000000000000000081526004016107f6906118ef565b60405180910390fd5b6001600381111561080c57fe5b600c60009054906101000a900460ff16600381111561082757fe5b14610867576040517f08c379a000000000000000000000000000000000000000000000000000000000815260040161085e9061196f565b60405180910390fd5b600015156000803373ffffffffffffffffffffffffffffffffffffffff1673ffffffffffffffffffffffffffffffffffffffff16815260200190815260200160002060020160159054906101000a900460ff161515146108fc576040517f08c379a00000000000000000000000000000000000000000000000000000000081526004016108f3906118cf565b60405180910390fd5b600454341015610941576040517f08c379a00000000000000000000000000000000000000000000000000000000081526004016109389061198f565b60405180910390fd5b6001600d6008548154811061095257fe5b906000526020600020906003020160020160156101000a81548160ff02191690831515021790555060086000815480929190600101919050555034600a5401600a8190555060065460085414156109d05760006008819055506002600c60006101000a81548160ff021916908360038111156109ca57fe5b02179055505b565b600060038111156109df57fe5b600c60009054906101000a900460ff1660038111156109fa57fe5b14610a3a576040517f08c379a0000000000000000000000000000000000000000000000000000000008152600401610a31906118af565b60405180910390fd5b60065460035410610a80576040517f08c379a0000000000000000000000000000000000000000000000000000000008152600401610a779061192f565b60405180910390fd5b6003600081548092919060010191905055506040518060a0016040528060035481526020018281526020013373ffffffffffffffffffffffffffffffffffffffff168152602001600015158152602001600015158152506000803373ffffffffffffffffffffffffffffffffffffffff1673ffffffffffffffffffffffffffffffffffffffff168152602001908152602001600020600082015181600001556020820151816001019080519060200190610b3b9291906111dd565b5060408201518160020160006101000a81548173ffffffffffffffffffffffffffffffffffffffff021916908373ffffffffffffffffffffffffffffffffffffffff16021790555060608201518160020160146101000a81548160ff02191690831515021790555060808201518160020160156101000a81548160ff021916908315150217905550905050600d6000803373ffffffffffffffffffffffffffffffffffffffff1673ffffffffffffffffffffffffffffffffffffffff168152602001908152602001600020908060018154018082558091505090600182039060005260206000209060030201600090919290919091506000820154816000015560018201816001019080546001816001161561010002031660029004610c6292919061125d565b506002820160009054906101000a900473ffffffffffffffffffffffffffffffffffffffff168160020160006101000a81548173ffffffffffffffffffffffffffffffffffffffff021916908373ffffffffffffffffffffffffffffffffffffffff1602179055506002820160149054906101000a900460ff168160020160146101000a81548160ff0219169083151502179055506002820160159054906101000a900460ff168160020160156101000a81548160ff02191690831515021790555050505050565b6000803373ffffffffffffffffffffffffffffffffffffffff1673ffffffffffffffffffffffffffffffffffffffff16815260200190815260200160002060020160009054906101000a900473ffffffffffffffffffffffffffffffffffffffff1673ffffffffffffffffffffffffffffffffffffffff163373ffffffffffffffffffffffffffffffffffffffff1614610df9576040517f08c379a0000000000000000000000000000000000000000000000000000000008152600401610df0906118ef565b60405180910390fd5b60006003811115610e0657fe5b600c60009054906101000a900460ff166003811115610e2157fe5b14610e61576040517f08c379a0000000000000000000000000000000000000000000000000000000008152600401610e589061188f565b60405180910390fd5b600015156000803373ffffffffffffffffffffffffffffffffffffffff1673ffffffffffffffffffffffffffffffffffffffff16815260200190815260200160002060020160149054906101000a900460ff16151514610ef6576040517f08c379a0000000000000000000000000000000000000000000000000000000008152600401610eed9061194f565b60405180910390fd5b600454341015610f3b576040517f08c379a0000000000000000000000000000000000000000000000000000000008152600401610f329061198f565b60405180910390fd5b34600b5401600b8190555060016000803373ffffffffffffffffffffffffffffffffffffffff1673ffffffffffffffffffffffffffffffffffffffff16815260200190815260200160002060020160146101000a81548160ff021916908315150217905550600760008154809291906001019190505550600654600754141561105657600f60009054906101000a900473ffffffffffffffffffffffffffffffffffffffff1673ffffffffffffffffffffffffffffffffffffffff166108fc600b549081150290604051600060405180830381858888f19350505050158015611028573d6000803e3d6000fd5b5060006007819055506001600c60006101000a81548160ff0219169083600381111561105057fe5b02179055505b565b6000602052806000526040600020600091509050806000015490806001018054600181600116156101000203166002900480601f01602080910402602001604051908101604052809291908181526020018280546001816001161561010002031660029004801561110a5780601f106110df5761010080835404028352916020019161110a565b820191906000526020600020905b8154815290600101906020018083116110ed57829003601f168201915b5050505050908060020160009054906101000a900473ffffffffffffffffffffffffffffffffffffffff16908060020160149054906101000a900460ff16908060020160159054906101000a900460ff16905085565b600f60009054906101000a900473ffffffffffffffffffffffffffffffffffffffff1681565b60008090505b6006548110156111da576000600d82815481106111a557fe5b906000526020600020906003020160020160156101000a81548160ff021916908315150217905550808060010191505061118c565b50565b828054600181600116156101000203166002900490600052602060002090601f016020900481019282601f1061121e57805160ff191683800117855561124c565b8280016001018555821561124c579182015b8281111561124b578251825591602001919060010190611230565b5b50905061125991906112e4565b5090565b828054600181600116156101000203166002900490600052602060002090601f016020900481019282601f1061129657805485556112d3565b828001600101855582156112d357600052602060002091601f016020900482015b828111156112d25782548255916001019190600101906112b7565b5b5090506112e091906112e4565b5090565b61130691905b808211156113025760008160009055506001016112ea565b5090565b90565b60008135905061131881611b8c565b92915050565b600082601f83011261132f57600080fd5b813561134261133d82611a86565b611a59565b9150808252602083016020830185838301111561135e57600080fd5b611369838284611b39565b50505092915050565b60008135905061138181611ba3565b92915050565b60006020828403121561139957600080fd5b60006113a784828501611309565b91505092915050565b6000602082840312156113c257600080fd5b600082013567ffffffffffffffff8111156113dc57600080fd5b6113e88482850161131e565b91505092915050565b60006020828403121561140357600080fd5b600061141184828501611372565b91505092915050565b61142381611af1565b82525050565b61143281611af1565b82525050565b61144181611b03565b82525050565b61145081611b03565b82525050565b600061146182611ab2565b61146b8185611abd565b935061147b818560208601611b48565b61148481611b7b565b840191505092915050565b600061149a82611ab2565b6114a48185611ace565b93506114b4818560208601611b48565b6114bd81611b7b565b840191505092915050565b60006114d5602483611ace565b91507f546f646f732068616e2070616761646f20656c2066656520657869746f73616d60008301527f656e7465000000000000000000000000000000000000000000000000000000006020830152604082019050919050565b600061153b602f83611ace565b91507f4c612074616e646120796120636f6d656e7a6f2079206e6f206163657074612060008301527f6e7565766f73207573756172696f7300000000000000000000000000000000006020830152604082019050919050565b60006115a1601783611ace565b91507f59612061686f727261737465206573746120726f6e64610000000000000000006000830152602082019050919050565b60006115e1601583611ace565b91507f5573756172696f206e6f207265676973747261646f00000000000000000000006000830152602082019050919050565b6000611621602b83611ace565b91507f4573706572612061207175652074656e67616d6f7320656c206d6f6e746f206460008301527f652074752061686f72726f0000000000000000000000000000000000000000006020830152604082019050919050565b6000611687601683611ace565b91507f456c20677275706f206573746120636f6d706c65746f000000000000000000006000830152602082019050919050565b60006116c7601e83611ace565b91507f59612074656e656d6f732072656769737261646f2074752043617368496e00006000830152602082019050919050565b6000611707602083611ace565b91507f45737065726120756e61206e7565766120726f6e64612064652061686f72726f6000830152602082019050919050565b6000611747601483611ace565b91507f466f6e646f7320496e737566696369656e7465730000000000000000000000006000830152602082019050919050565b6000611787602383611ace565b91507f44656265732065737065726172207475207475726e6f2070617261207265746960008301527f72617200000000000000000000000000000000000000000000000000000000006020830152604082019050919050565b600060a0830160008301516117f86000860182611856565b50602083015184820360208601526118108282611456565b9150506040830151611825604086018261141a565b5060608301516118386060860182611438565b50608083015161184b6080860182611438565b508091505092915050565b61185f81611b2f565b82525050565b61186e81611b2f565b82525050565b60006020820190506118896000830184611429565b92915050565b600060208201905081810360008301526118a8816114c8565b9050919050565b600060208201905081810360008301526118c88161152e565b9050919050565b600060208201905081810360008301526118e881611594565b9050919050565b60006020820190508181036000830152611908816115d4565b9050919050565b6000602082019050818103600083015261192881611614565b9050919050565b600060208201905081810360008301526119488161167a565b9050919050565b60006020820190508181036000830152611968816116ba565b9050919050565b60006020820190508181036000830152611988816116fa565b9050919050565b600060208201905081810360008301526119a88161173a565b9050919050565b600060208201905081810360008301526119c88161177a565b9050919050565b600060a0820190506119e46000830188611865565b81810360208301526119f6818761148f565b9050611a056040830186611429565b611a126060830185611447565b611a1f6080830184611447565b9695505050505050565b6000604082019050611a3e6000830185611865565b8181036020830152611a5081846117e0565b90509392505050565b6000604051905081810181811067ffffffffffffffff82111715611a7c57600080fd5b8060405250919050565b600067ffffffffffffffff821115611a9d57600080fd5b601f19601f8301169050602081019050919050565b600081519050919050565b600082825260208201905092915050565b600082825260208201905092915050565b6000611aea82611b0f565b9050919050565b6000611afc82611b0f565b9050919050565b60008115159050919050565b600073ffffffffffffffffffffffffffffffffffffffff82169050919050565b6000819050919050565b82818337600083830152505050565b60005b83811015611b66578082015181840152602081019050611b4b565b83811115611b75576000848401525b50505050565b6000601f19601f8301169050919050565b611b9581611adf565b8114611ba057600080fd5b50565b611bac81611b2f565b8114611bb757600080fd5b5056fea265627a7a72305820a31d940fdd5e99bf3c376a3fb881bff3e6d480ca8d10729be46ea89da6cdab516c6578706572696d656e74616cf50037",
  "source": "pragma solidity >=0.4.22 <0.7.0;\npragma experimental ABIEncoderV2;\n\ncontract Groups {\n\n    enum Stages {   //Stages of the round\n        setup,      //receive the initial fees\n        save,     //receive payments for stage number 1\n        pay,      //send savings to user in 1rst number\n        finished  //all users Withdrew their saving\n    }\n    \n    struct User {\n        uint256 userId;\n        string userName;\n        address payable userAddr;\n        bool cashInFlag;\n        bool saveAmountFlag;\n    }\n\n    struct Room {\n        uint256 roomId;\n        User user;\n    }\n\n    mapping(address => User) public users;\n    mapping(uint => Room) public rooms;\n    uint roomCounter = 1;\n    uint usersCounter = 0;\n    uint cashIn;\n    uint saveAmount; //Monto de ahorro periodicamente\n    uint groupSize;\n    uint CashInPayeesCount = 0;\n    uint saveAmountPayeesCount = 0;  //Cantidad de pagos que se realizan por stage\n    uint cycle = 0;   //Sirve para saber el usuario en turno\n    uint totalSaveAmount = 0;  //Monto del ahorro logrado en la tanda\n    uint totalCashIn = 0;\n    \n    Stages stage;\n\n    User[] public usersList;\n    Room[] roomsList;\n\n    address payable public admin;\n\n    modifier isUsersTurn() {\n        require(msg.sender == usersList[cycle].userAddr, \"Debes esperar tu turno para retirar\");\n        _;\n    }\n\n    modifier isRegisteredUser() {\n        require(msg.sender == users[msg.sender].userAddr, \"Usuario no registrado\");\n        _;\n    }\n\n    constructor(uint _cashIn, uint _saveAmount, uint8 _groupSize) public {\n        admin = msg.sender;\n        cashIn = _cashIn;\n        saveAmount = _saveAmount;\n        groupSize = _groupSize;\n        stage = Stages.setup;\n    }\n\n    function registerUser(string memory _userName) public {\n        require(\n            stage == Stages.setup,\n            \"La tanda ya comenzo y no acepta nuevos usuarios\"\n        );\n        require(usersCounter < groupSize, \"El grupo esta completo\");\n        usersCounter++;\n        users[msg.sender] = User(\n            usersCounter,\n            _userName,\n            msg.sender,\n            false,\n            false\n        );\n        usersList.push(users[msg.sender]);\n    }\n\n    function payCashIn() public payable isRegisteredUser {\n        require(stage == Stages.setup, \"Todos han pagado el fee exitosamente\");\n        require(\n            users[msg.sender].cashInFlag == false,\n            \"Ya tenemos regisrado tu CashIn\"\n        );\n        require(msg.value >= cashIn, \"Fondos Insuficientes\");\n        totalCashIn = totalCashIn + msg.value;\n        users[msg.sender].cashInFlag = true;\n        CashInPayeesCount++;\n        if (CashInPayeesCount == groupSize) {\n            admin.transfer(totalCashIn);\n            CashInPayeesCount = 0;\n            stage = Stages.save;\n        }\n    }\n\n    function payRound() public payable isRegisteredUser {\n        require(stage == Stages.save, \"Espera una nueva ronda de ahorro\");\n        require(\n            users[msg.sender].saveAmountFlag == false,\n            \"Ya ahorraste esta ronda\"\n        );\n        require(msg.value >= cashIn, \"Fondos Insuficientes\");\n        usersList[saveAmountPayeesCount].saveAmountFlag = true;\n        saveAmountPayeesCount++;\n        totalSaveAmount = totalSaveAmount + msg.value;\n        if (saveAmountPayeesCount == groupSize) {\n            saveAmountPayeesCount = 0;\n            stage = Stages.pay; //La tanda puede pagarse si todos ahorraron en la ronda\n        }\n    }\n\n    function WithdrawRound() public payable isRegisteredUser isUsersTurn {\n        require(\n            stage == Stages.pay,\n            \"Espera a que tengamos el monto de tu ahorro\"\n        ); //Se debe estar en fase de pago\n        stage = Stages.save;\n        usersList[cycle].userAddr.transfer(totalSaveAmount);\n        cycle++;\n        stage = Stages.save;\n        newRound();\n        if (cycle > groupSize) {\n            stage = Stages.finished;\n        }\n    }\n\n    function newRound() internal {\n        for (uint256 i = 0; i < groupSize; i++) {\n            usersList[i].saveAmountFlag = false;\n        }\n    }\n}\n",
  "sourcePath": "/Users/federico/Desktop/bbvaHack/bloinx/contracts/Groups.sol",
  "compiler": {
    "name": "solc",
    "version": "0.5.8+commit.23d335f2.Emscripten.clang"
  },
  "schemaVersion": "3.0.15",
  "updatedAt": "2020-07-22T02:59:09.644Z",
  "devdoc": {
    "methods": {}
  },
  "userdoc": {
    "methods": {}
  }
}