{
  "contractName": "GroupsTime",
  "abi": [
    {
      "constant": true,
      "inputs": [
        {
          "name": "",
          "type": "uint256"
        }
      ],
      "name": "addressOrderList",
      "outputs": [
        {
          "name": "",
          "type": "address"
        }
      ],
      "payable": false,
      "stateMutability": "view",
      "type": "function"
    },
    {
      "constant": true,
      "inputs": [],
      "name": "groupSize",
      "outputs": [
        {
          "name": "",
          "type": "uint256"
        }
      ],
      "payable": false,
      "stateMutability": "view",
      "type": "function"
    },
    {
      "constant": true,
      "inputs": [],
      "name": "totalSaveAmount",
      "outputs": [
        {
          "name": "",
          "type": "uint256"
        }
      ],
      "payable": false,
      "stateMutability": "view",
      "type": "function"
    },
    {
      "constant": true,
      "inputs": [],
      "name": "turn",
      "outputs": [
        {
          "name": "",
          "type": "uint256"
        }
      ],
      "payable": false,
      "stateMutability": "view",
      "type": "function"
    },
    {
      "constant": true,
      "inputs": [
        {
          "name": "",
          "type": "address"
        }
      ],
      "name": "users",
      "outputs": [
        {
          "name": "userId",
          "type": "uint8"
        },
        {
          "name": "userAddr",
          "type": "address"
        },
        {
          "name": "cashInFlag",
          "type": "bool"
        },
        {
          "name": "saveAmountFlag",
          "type": "bool"
        },
        {
          "name": "currentRoundFlag",
          "type": "bool"
        },
        {
          "name": "latePaymentFlag",
          "type": "bool"
        }
      ],
      "payable": false,
      "stateMutability": "view",
      "type": "function"
    },
    {
      "constant": true,
      "inputs": [],
      "name": "totalCashIn",
      "outputs": [
        {
          "name": "",
          "type": "uint256"
        }
      ],
      "payable": false,
      "stateMutability": "view",
      "type": "function"
    },
    {
      "constant": true,
      "inputs": [],
      "name": "stage",
      "outputs": [
        {
          "name": "",
          "type": "uint8"
        }
      ],
      "payable": false,
      "stateMutability": "view",
      "type": "function"
    },
    {
      "inputs": [
        {
          "name": "_cashIn",
          "type": "uint256"
        },
        {
          "name": "_saveAmount",
          "type": "uint256"
        },
        {
          "name": "_groupSize",
          "type": "uint8"
        }
      ],
      "payable": false,
      "stateMutability": "nonpayable",
      "type": "constructor"
    },
    {
      "constant": false,
      "inputs": [],
      "name": "registerUser",
      "outputs": [],
      "payable": true,
      "stateMutability": "payable",
      "type": "function"
    },
    {
      "constant": false,
      "inputs": [],
      "name": "payTurn",
      "outputs": [],
      "payable": true,
      "stateMutability": "payable",
      "type": "function"
    },
    {
      "constant": false,
      "inputs": [],
      "name": "withdrawTurn",
      "outputs": [],
      "payable": true,
      "stateMutability": "payable",
      "type": "function"
    },
    {
      "constant": false,
      "inputs": [],
      "name": "withdrawCashIn",
      "outputs": [],
      "payable": true,
      "stateMutability": "payable",
      "type": "function"
    }
  ],
  "bytecode": "0x60806040526000600560006101000a81548160ff021916908360ff1602179055506000600655600060075560016008556000600a556000600b553480156200004657600080fd5b506040516060806200199c833981018060405262000068919081019062000138565b33600160006101000a81548173ffffffffffffffffffffffffffffffffffffffff021916908373ffffffffffffffffffffffffffffffffffffffff16021790555067016345785d8a0000830260028190555067016345785d8a000082026003819055508060ff166004819055506000600d60006101000a81548160ff02191690836002811115620000f557fe5b021790555042600981905550505050620001d9565b6000815190506200011b81620001a5565b92915050565b6000815190506200013281620001bf565b92915050565b6000806000606084860312156200014e57600080fd5b60006200015e868287016200010a565b935050602062000171868287016200010a565b9250506040620001848682870162000121565b9150509250925092565b6000819050919050565b600060ff82169050919050565b620001b0816200018e565b8114620001bc57600080fd5b50565b620001ca8162000198565b8114620001d657600080fd5b50565b6117b380620001e96000396000f3fe60806040526004361061009c5760003560e01c806364f9a17c1161006457806364f9a17c146101275780638b29990314610152578063a87430ba1461017d578063b4bde59e146101bf578063b6a26cab146101ea578063c040e6b8146101f45761009c565b8063193e76c7146100a157806330fceb6c146100ab5780634d3820eb146100b55780635394dda8146100bf57806363b635ea146100fc575b600080fd5b6100a961021f565b005b6100b361049f565b005b6100bd6108f2565b005b3480156100cb57600080fd5b506100e660048036036100e19190810190611280565b610c95565b6040516100f3919061150f565b60405180910390f35b34801561010857600080fd5b50610111610cd1565b60405161011e9190611625565b60405180910390f35b34801561013357600080fd5b5061013c610cd7565b6040516101499190611625565b60405180910390f35b34801561015e57600080fd5b50610167610cdd565b6040516101749190611625565b60405180910390f35b34801561018957600080fd5b506101a4600480360361019f9190810190611257565b610ce3565b6040516101b696959493929190611640565b60405180910390f35b3480156101cb57600080fd5b506101d4610d80565b6040516101e19190611625565b60405180910390f35b6101f2610d86565b005b34801561020057600080fd5b50610209611088565b604051610216919061152a565b60405180910390f35b600115156000803373ffffffffffffffffffffffffffffffffffffffff1673ffffffffffffffffffffffffffffffffffffffff16815260200190815260200160002060000160179054906101000a900460ff161515146102b4576040517f08c379a00000000000000000000000000000000000000000000000000000000081526004016102ab90611545565b60405180910390fd5b6002543410156102f9576040517f08c379a00000000000000000000000000000000000000000000000000000000081526004016102f0906115c5565b60405180910390fd5b600180600281111561030757fe5b600d60009054906101000a900460ff16600281111561032257fe5b1461032c57600080fd5b600015156000803373ffffffffffffffffffffffffffffffffffffffff1673ffffffffffffffffffffffffffffffffffffffff16815260200190815260200160002060000160169054906101000a900460ff161515146103c1576040517f08c379a00000000000000000000000000000000000000000000000000000000081526004016103b8906115a5565b60405180910390fd5b603c60085402603c6009540101421115610410576040517f08c379a0000000000000000000000000000000000000000000000000000000008152600401610407906115e5565b60405180910390fd5b34600a5401600a8190555060016000803373ffffffffffffffffffffffffffffffffffffffff1673ffffffffffffffffffffffffffffffffffffffff16815260200190815260200160002060000160166101000a81548160ff021916908315150217905550600760008154809291906001019190505550600454600754141561049c5760006007819055505b50565b600115156000803373ffffffffffffffffffffffffffffffffffffffff1673ffffffffffffffffffffffffffffffffffffffff16815260200190815260200160002060000160179054906101000a900460ff16151514610534576040517f08c379a000000000000000000000000000000000000000000000000000000000815260040161052b90611545565b60405180910390fd5b600c6001600854038154811061054657fe5b9060005260206000200160009054906101000a900473ffffffffffffffffffffffffffffffffffffffff1673ffffffffffffffffffffffffffffffffffffffff163373ffffffffffffffffffffffffffffffffffffffff16146105de576040517f08c379a00000000000000000000000000000000000000000000000000000000081526004016105d590611605565b60405180910390fd5b60018060028111156105ec57fe5b600d60009054906101000a900460ff16600281111561060757fe5b1461061157600080fd5b60035460045402600a541461076a5760008090505b6004548160ff161015610768576000600c8260ff168154811061064557fe5b9060005260206000200160009054906101000a900473ffffffffffffffffffffffffffffffffffffffff169050603c60085402603c600954010142101580156106e05750600015156000808373ffffffffffffffffffffffffffffffffffffffff1673ffffffffffffffffffffffffffffffffffffffff16815260200190815260200160002060000160169054906101000a900460ff161515145b1561075a5760016000808373ffffffffffffffffffffffffffffffffffffffff1673ffffffffffffffffffffffffffffffffffffffff16815260200190815260200160002060000160186101000a81548160ff021916908315150217905550600354600a5401600a81905550600354600b5403600b819055505b508080600101915050610626565b505b60035460045402600a54146107b4576040517f08c379a00000000000000000000000000000000000000000000000000000000081526004016107ab90611565565b60405180910390fd5b6000600c600160085403815481106107c857fe5b9060005260206000200160009054906101000a900473ffffffffffffffffffffffffffffffffffffffff1690506000808273ffffffffffffffffffffffffffffffffffffffff1673ffffffffffffffffffffffffffffffffffffffff16815260200190815260200160002060000160019054906101000a900473ffffffffffffffffffffffffffffffffffffffff1673ffffffffffffffffffffffffffffffffffffffff166108fc600a549081150290604051600060405180830381858888f1935050505015801561089e573d6000803e3d6000fd5b50600454600854106108d3576002600d60006101000a81548160ff021916908360028111156108c957fe5b02179055506108dc565b6108db61109b565b5b6008600081548092919060010191905055505050565b600254341015610937576040517f08c379a000000000000000000000000000000000000000000000000000000000815260040161092e906115c5565b60405180910390fd5b600080600281111561094557fe5b600d60009054906101000a900460ff16600281111561096057fe5b1461096a57600080fd5b600454600560009054906101000a900460ff1660ff16106109c0576040517f08c379a00000000000000000000000000000000000000000000000000000000081526004016109b790611585565b60405180910390fd5b6005600081819054906101000a900460ff168092919060010191906101000a81548160ff021916908360ff160217905550506040518060c00160405280600560009054906101000a900460ff1660ff1681526020013373ffffffffffffffffffffffffffffffffffffffff168152602001600015158152602001600015158152602001600115158152602001600015158152506000803373ffffffffffffffffffffffffffffffffffffffff1673ffffffffffffffffffffffffffffffffffffffff16815260200190815260200160002060008201518160000160006101000a81548160ff021916908360ff16021790555060208201518160000160016101000a81548173ffffffffffffffffffffffffffffffffffffffff021916908373ffffffffffffffffffffffffffffffffffffffff16021790555060408201518160000160156101000a81548160ff02191690831515021790555060608201518160000160166101000a81548160ff02191690831515021790555060808201518160000160176101000a81548160ff02191690831515021790555060a08201518160000160186101000a81548160ff021916908315150217905550905050600c3390806001815401808255809150509060018203906000526020600020016000909192909190916101000a81548173ffffffffffffffffffffffffffffffffffffffff021916908373ffffffffffffffffffffffffffffffffffffffff1602179055505034600b5401600b8190555060016000803373ffffffffffffffffffffffffffffffffffffffff1673ffffffffffffffffffffffffffffffffffffffff16815260200190815260200160002060000160156101000a81548160ff0219169083151502179055506006600081548092919060010191905055506004546006541415610c925760006006819055506001600d60006101000a81548160ff02191690836002811115610c8c57fe5b02179055505b50565b600c8181548110610ca257fe5b906000526020600020016000915054906101000a900473ffffffffffffffffffffffffffffffffffffffff1681565b60045481565b600a5481565b60085481565b60006020528060005260406000206000915090508060000160009054906101000a900460ff16908060000160019054906101000a900473ffffffffffffffffffffffffffffffffffffffff16908060000160159054906101000a900460ff16908060000160169054906101000a900460ff16908060000160179054906101000a900460ff16908060000160189054906101000a900460ff16905086565b600b5481565b6002806002811115610d9457fe5b600d60009054906101000a900460ff166002811115610daf57fe5b14610db957600080fd5b60008090505b6004548160ff161015610fd6576000600c8260ff1681548110610dde57fe5b9060005260206000200160009054906101000a900473ffffffffffffffffffffffffffffffffffffffff16905060008060008373ffffffffffffffffffffffffffffffffffffffff1673ffffffffffffffffffffffffffffffffffffffff16815260200190815260200160002060000160156101000a81548160ff02191690831515021790555060008060008373ffffffffffffffffffffffffffffffffffffffff1673ffffffffffffffffffffffffffffffffffffffff16815260200190815260200160002060000160176101000a81548160ff02191690831515021790555060008060008373ffffffffffffffffffffffffffffffffffffffff1673ffffffffffffffffffffffffffffffffffffffff16815260200190815260200160002060000160186101000a81548160ff021916908315150217905515610fc8576000808273ffffffffffffffffffffffffffffffffffffffff1673ffffffffffffffffffffffffffffffffffffffff16815260200190815260200160002060000160019054906101000a900473ffffffffffffffffffffffffffffffffffffffff1673ffffffffffffffffffffffffffffffffffffffff166108fc6002549081150290604051600060405180830381858888f19350505050158015610fc6573d6000803e3d6000fd5b505b508080600101915050610dbf565b506000600b8190555060006006819055506000600560006101000a81548160ff021916908360ff16021790555060006040519080825280602002602001820160405280156110335781602001602082028038833980820191505090505b50600c9080519060200190611049929190611160565b506000600d60006101000a81548160ff0219169083600281111561106957fe5b02179055506000600a8190555060016008819055504260098190555050565b600d60009054906101000a900460ff1681565b60008090505b6004548160ff161015611155576000600c8260ff16815481106110c057fe5b9060005260206000200160009054906101000a900473ffffffffffffffffffffffffffffffffffffffff16905060008060008373ffffffffffffffffffffffffffffffffffffffff1673ffffffffffffffffffffffffffffffffffffffff16815260200190815260200160002060000160166101000a81548160ff0219169083151502179055505080806001019150506110a1565b506000600a81905550565b8280548282559060005260206000209081019282156111d9579160200282015b828111156111d85782518260006101000a81548173ffffffffffffffffffffffffffffffffffffffff021916908373ffffffffffffffffffffffffffffffffffffffff16021790555091602001919060010190611180565b5b5090506111e691906111ea565b5090565b61122a91905b8082111561122657600081816101000a81549073ffffffffffffffffffffffffffffffffffffffff0219169055506001016111f0565b5090565b90565b60008135905061123c8161174b565b92915050565b60008135905061125181611762565b92915050565b60006020828403121561126957600080fd5b60006112778482850161122d565b91505092915050565b60006020828403121561129257600080fd5b60006112a084828501611242565b91505092915050565b6112b2816116c4565b82525050565b6112c1816116b2565b82525050565b6112d0816116d6565b82525050565b6112df8161172c565b82525050565b60006112f26015836116a1565b91507f5573756172696f206e6f207265676973747261646f00000000000000000000006000830152602082019050919050565b6000611332602b836116a1565b91507f4573706572612061207175652074656e67616d6f7320656c206d6f6e746f206460008301527f652074752061686f72726f0000000000000000000000000000000000000000006020830152604082019050919050565b60006113986016836116a1565b91507f456c20677275706f206573746120636f6d706c65746f000000000000000000006000830152602082019050919050565b60006113d86017836116a1565b91507f59612061686f7272617374652065737465207475726e6f0000000000000000006000830152602082019050919050565b60006114186014836116a1565b91507f466f6e646f7320496e737566696369656e7465730000000000000000000000006000830152602082019050919050565b6000611458600b836116a1565b91507f5061676f2074617264696f0000000000000000000000000000000000000000006000830152602082019050919050565b60006114986023836116a1565b91507f44656265732065737065726172207475207475726e6f2070617261207265746960008301527f72617200000000000000000000000000000000000000000000000000000000006020830152604082019050919050565b6114fa81611715565b82525050565b6115098161171f565b82525050565b600060208201905061152460008301846112b8565b92915050565b600060208201905061153f60008301846112d6565b92915050565b6000602082019050818103600083015261155e816112e5565b9050919050565b6000602082019050818103600083015261157e81611325565b9050919050565b6000602082019050818103600083015261159e8161138b565b9050919050565b600060208201905081810360008301526115be816113cb565b9050919050565b600060208201905081810360008301526115de8161140b565b9050919050565b600060208201905081810360008301526115fe8161144b565b9050919050565b6000602082019050818103600083015261161e8161148b565b9050919050565b600060208201905061163a60008301846114f1565b92915050565b600060c0820190506116556000830189611500565b61166260208301886112a9565b61166f60408301876112c7565b61167c60608301866112c7565b61168960808301856112c7565b61169660a08301846112c7565b979650505050505050565b600082825260208201905092915050565b60006116bd826116f5565b9050919050565b60006116cf826116f5565b9050919050565b60008115159050919050565b60008190506116f08261173e565b919050565b600073ffffffffffffffffffffffffffffffffffffffff82169050919050565b6000819050919050565b600060ff82169050919050565b6000611737826116e2565b9050919050565b6003811061174857fe5b50565b611754816116b2565b811461175f57600080fd5b50565b61176b81611715565b811461177657600080fd5b5056fea265627a7a72305820da0a4c56a96350596e2d2634b270f884758687e4837e480562ca3e35d4e189826c6578706572696d656e74616cf50037",
  "source": "pragma solidity >=0.4.22 <0.7.0;\npragma experimental ABIEncoderV2;\n\ncontract GroupsTime {\n    enum Stages {\n        //Stages of the round\n        setup, //register and receive the initial cash in\n        save, //receive payments\n        finished //Cash in is sent to the users\n    }\n\n    struct User {\n        //Information from each user\n        uint8 userId;\n        address payable userAddr;\n        bool cashInFlag;\n        bool saveAmountFlag;\n        bool currentRoundFlag; //defines if the user is participating in the current round\n        bool latePaymentFlag;\n    }\n\n    mapping(address => User) public users;\n    address payable admin; //The user that deploy the contract is the administrator\n\n    //Constructor deployment variables\n    uint256 cashIn; //amount to be payed as commitment at the begining of the saving circle\n    uint256 saveAmount; //Payment on each round/cycle\n    uint256 public groupSize; //Number of slots for users to participate on the saving circle\n\n    //Counters and flags\n    uint8 usersCounter = 0;\n    uint256 CashInPayeesCount = 0; //Comitment payments counter\n    uint256 saveAmountPayeesCount = 0; //Payments done in round counter\n    uint256 public turn = 1; //Current cycle/round in the saving circle\n    uint256 creationTime;\n    uint256 public totalSaveAmount = 0; //Collective saving on the round\n    uint256 public totalCashIn = 0;\n    address[] public addressOrderList;\n    Stages public stage;\n\n    constructor(\n        uint256 _cashIn,\n        uint256 _saveAmount,\n        uint8 _groupSize\n    ) public {\n        admin = msg.sender;\n        cashIn = _cashIn * 1e17;\n        saveAmount = _saveAmount * 1e17;\n        groupSize = _groupSize;\n        stage = Stages.setup;\n        creationTime = now;\n    }\n\n    modifier isUsersTurn() {\n        //Verifies if it is the users round to widraw\n        require(\n            msg.sender == addressOrderList[turn - 1],\n            \"Debes esperar tu turno para retirar\"\n        );\n        _;\n    }\n\n    modifier isRegisteredUser() {\n        //Verifies if it is the users round to widraw\n        require(\n            users[msg.sender].currentRoundFlag == true,\n            \"Usuario no registrado\"\n        );\n        _;\n    }\n\n    modifier isPayAmountCorrect() {\n        //Verifies if it is the users round to widraw\n        require(msg.value >= cashIn, \"Fondos Insuficientes\");\n        _;\n    }\n\n    modifier atStage(Stages _stage) {\n        require(stage == _stage);\n        _;\n    }\n\n    modifier timedTransitions() {\n        // if (stage == Stages.setup && now >= creationTime + 5 minutes)\n        //     stage = Stages.save;\n        if (\n            stage == Stages.save &&\n            now >= creationTime + 1 minutes + groupSize * 60 + 1 minutes\n        ) stage = Stages.finished;\n        _;\n    }\n\n    function registerUser()\n        public\n        payable\n        isPayAmountCorrect\n        atStage(Stages.setup)\n    {\n        require(usersCounter < groupSize, \"El grupo esta completo\"); //the saving circle is full\n        usersCounter++;\n        users[msg.sender] = User(\n            usersCounter,\n            msg.sender,\n            false,\n            false,\n            true,\n            false\n        );\n        addressOrderList.push(msg.sender); //store user\n        totalCashIn = totalCashIn + msg.value;\n        users[msg.sender].cashInFlag = true;\n        CashInPayeesCount++;\n        if (CashInPayeesCount == groupSize) {\n            CashInPayeesCount = 0;\n            stage = Stages.save;\n        }\n    }\n\n    function payTurn()\n        public\n        payable\n        isRegisteredUser\n        isPayAmountCorrect\n        atStage(Stages.save)\n    {\n        //users make the payment for the cycle\n        require(\n            users[msg.sender].saveAmountFlag == false,\n            \"Ya ahorraste este turno\"\n        ); //you have already saved this round\n        require(now <= creationTime + 1 minutes + turn * 60, \"Pago tardio\");\n        totalSaveAmount = totalSaveAmount + msg.value;\n        users[msg.sender].saveAmountFlag = true;\n        saveAmountPayeesCount++;\n        if (saveAmountPayeesCount == groupSize) {\n            saveAmountPayeesCount = 0;\n        }\n    }\n\n    function withdrawTurn()\n        public\n        payable\n        isRegisteredUser\n        isUsersTurn\n        atStage(Stages.save)\n    {\n        //User assigned to the round can widraw\n        if (totalSaveAmount != groupSize * saveAmount) {\n            for (uint8 i = 0; i < groupSize; i++) {\n                address useraddress = addressOrderList[i];\n                if (\n                    now >= creationTime + 1 minutes + turn * 60 &&\n                    users[useraddress].saveAmountFlag == false\n                ) {\n                    users[useraddress].latePaymentFlag = true;\n                    totalSaveAmount = totalSaveAmount + saveAmount;\n                    totalCashIn = totalCashIn - saveAmount;\n                }\n            }\n        }\n        require(\n            totalSaveAmount == groupSize * saveAmount,\n            \"Espera a que tengamos el monto de tu ahorro\"\n        ); //Se debe estar en fase de pago\n        address addressUserInTurn = addressOrderList[turn - 1];\n        users[addressUserInTurn].userAddr.transfer(totalSaveAmount);\n        if (turn >= groupSize) {\n            stage = Stages.finished;\n        } else {\n            newTurn();\n        }\n        turn++;\n    }\n\n    function newTurn() private {\n        //repeats the save and pay stages according to the saving circle size\n        for (uint8 i = 0; i < groupSize; i++) {\n            address useraddress = addressOrderList[i];\n            users[useraddress].saveAmountFlag = false;\n        }\n        totalSaveAmount = 0;\n    }\n\n    function withdrawCashIn() public payable atStage(Stages.finished) {\n        //When all the rounds are done the admin sends the cash in to the users\n        for (uint8 i = 0; i < groupSize; i++) {\n            address useraddress = addressOrderList[i];\n            users[useraddress].cashInFlag = false;\n            users[useraddress].currentRoundFlag = false;\n            if (users[useraddress].latePaymentFlag = false) {\n                users[useraddress].userAddr.transfer(cashIn);\n            }\n        }\n        totalCashIn = 0;\n        CashInPayeesCount = 0;\n        usersCounter = 0;\n        addressOrderList = new address[](0);\n        stage = Stages.setup;\n        totalSaveAmount = 0;\n        turn = 1;\n        creationTime = now;\n    }\n}\n",
  "sourcePath": "/Users/federico/Desktop/bbvaHack/bloinx/contracts/GroupsTime.sol",
  "compiler": {
    "name": "solc",
    "version": "0.5.8+commit.23d335f2.Emscripten.clang"
  },
  "schemaVersion": "3.0.15",
  "updatedAt": "2020-09-26T17:22:01.727Z",
  "devdoc": {
    "methods": {}
  },
  "userdoc": {
    "methods": {}
  }
}