{
  "contractName": "GroupsTime",
  "abi": [
    {
      "constant": true,
      "inputs": [
        {
          "name": "",
          "type": "uint256"
        }
      ],
      "name": "addressOrderList",
      "outputs": [
        {
          "name": "",
          "type": "address"
        }
      ],
      "payable": false,
      "stateMutability": "view",
      "type": "function"
    },
    {
      "constant": true,
      "inputs": [],
      "name": "groupSize",
      "outputs": [
        {
          "name": "",
          "type": "uint256"
        }
      ],
      "payable": false,
      "stateMutability": "view",
      "type": "function"
    },
    {
      "constant": true,
      "inputs": [],
      "name": "totalSaveAmount",
      "outputs": [
        {
          "name": "",
          "type": "uint256"
        }
      ],
      "payable": false,
      "stateMutability": "view",
      "type": "function"
    },
    {
      "constant": true,
      "inputs": [],
      "name": "turn",
      "outputs": [
        {
          "name": "",
          "type": "uint256"
        }
      ],
      "payable": false,
      "stateMutability": "view",
      "type": "function"
    },
    {
      "constant": true,
      "inputs": [
        {
          "name": "",
          "type": "address"
        }
      ],
      "name": "users",
      "outputs": [
        {
          "name": "userId",
          "type": "uint8"
        },
        {
          "name": "userAddr",
          "type": "address"
        },
        {
          "name": "cashInFlag",
          "type": "bool"
        },
        {
          "name": "saveAmountFlag",
          "type": "bool"
        },
        {
          "name": "currentRoundFlag",
          "type": "bool"
        },
        {
          "name": "latePaymentFlag",
          "type": "bool"
        }
      ],
      "payable": false,
      "stateMutability": "view",
      "type": "function"
    },
    {
      "constant": true,
      "inputs": [],
      "name": "totalCashIn",
      "outputs": [
        {
          "name": "",
          "type": "uint256"
        }
      ],
      "payable": false,
      "stateMutability": "view",
      "type": "function"
    },
    {
      "constant": true,
      "inputs": [],
      "name": "stage",
      "outputs": [
        {
          "name": "",
          "type": "uint8"
        }
      ],
      "payable": false,
      "stateMutability": "view",
      "type": "function"
    },
    {
      "constant": true,
      "inputs": [],
      "name": "admin",
      "outputs": [
        {
          "name": "",
          "type": "address"
        }
      ],
      "payable": false,
      "stateMutability": "view",
      "type": "function"
    },
    {
      "inputs": [
        {
          "name": "_cashIn",
          "type": "uint256"
        },
        {
          "name": "_saveAmount",
          "type": "uint256"
        },
        {
          "name": "_groupSize",
          "type": "uint8"
        }
      ],
      "payable": false,
      "stateMutability": "nonpayable",
      "type": "constructor"
    },
    {
      "constant": false,
      "inputs": [],
      "name": "registerUser",
      "outputs": [],
      "payable": true,
      "stateMutability": "payable",
      "type": "function"
    },
    {
      "constant": false,
      "inputs": [],
      "name": "payTurn",
      "outputs": [],
      "payable": true,
      "stateMutability": "payable",
      "type": "function"
    },
    {
      "constant": false,
      "inputs": [],
      "name": "withdrawTurn",
      "outputs": [],
      "payable": true,
      "stateMutability": "payable",
      "type": "function"
    },
    {
      "constant": false,
      "inputs": [],
      "name": "withdrawCashIn",
      "outputs": [],
      "payable": true,
      "stateMutability": "payable",
      "type": "function"
    }
  ],
  "bytecode": "0x60806040526000600560006101000a81548160ff021916908360ff1602179055506000600655600060075560016008556000600a556000600b553480156200004657600080fd5b5060405160608062001a78833981018060405262000068919081019062000138565b33600160006101000a81548173ffffffffffffffffffffffffffffffffffffffff021916908373ffffffffffffffffffffffffffffffffffffffff16021790555067016345785d8a0000830260028190555067016345785d8a000082026003819055508060ff166004819055506000600d60006101000a81548160ff02191690836002811115620000f557fe5b021790555042600981905550505050620001d9565b6000815190506200011b81620001a5565b92915050565b6000815190506200013281620001bf565b92915050565b6000806000606084860312156200014e57600080fd5b60006200015e868287016200010a565b935050602062000171868287016200010a565b9250506040620001848682870162000121565b9150509250925092565b6000819050919050565b600060ff82169050919050565b620001b0816200018e565b8114620001bc57600080fd5b50565b620001ca8162000198565b8114620001d657600080fd5b50565b61188f80620001e96000396000f3fe6080604052600436106100a75760003560e01c80638b299903116100645780638b2999031461015d578063a87430ba14610188578063b4bde59e146101ca578063b6a26cab146101f5578063c040e6b8146101ff578063f851a4401461022a576100a7565b8063193e76c7146100ac57806330fceb6c146100b65780634d3820eb146100c05780635394dda8146100ca57806363b635ea1461010757806364f9a17c14610132575b600080fd5b6100b4610255565b005b6100be610486565b005b6100c86108d9565b005b3480156100d657600080fd5b506100f160048036036100ec919081019061131b565b610c7c565b6040516100fe91906115d0565b60405180910390f35b34801561011357600080fd5b5061011c610cb8565b6040516101299190611701565b60405180910390f35b34801561013e57600080fd5b50610147610cbe565b6040516101549190611701565b60405180910390f35b34801561016957600080fd5b50610172610cc4565b60405161017f9190611701565b60405180910390f35b34801561019457600080fd5b506101af60048036036101aa91908101906112f2565b610cca565b6040516101c19695949392919061171c565b60405180910390f35b3480156101d657600080fd5b506101df610d67565b6040516101ec9190611701565b60405180910390f35b6101fd610d6d565b005b34801561020b57600080fd5b506102146110fd565b6040516102219190611606565b60405180910390f35b34801561023657600080fd5b5061023f611110565b60405161024c91906115eb565b60405180910390f35b600115156000803373ffffffffffffffffffffffffffffffffffffffff1673ffffffffffffffffffffffffffffffffffffffff16815260200190815260200160002060000160179054906101000a900460ff161515146102ea576040517f08c379a00000000000000000000000000000000000000000000000000000000081526004016102e190611641565b60405180910390fd5b60025434101561032f576040517f08c379a0000000000000000000000000000000000000000000000000000000008152600401610326906116c1565b60405180910390fd5b600180600281111561033d57fe5b600d60009054906101000a900460ff16600281111561035857fe5b1461036257600080fd5b600015156000803373ffffffffffffffffffffffffffffffffffffffff1673ffffffffffffffffffffffffffffffffffffffff16815260200190815260200160002060000160169054906101000a900460ff161515146103f7576040517f08c379a00000000000000000000000000000000000000000000000000000000081526004016103ee906116a1565b60405180910390fd5b34600a5401600a8190555060016000803373ffffffffffffffffffffffffffffffffffffffff1673ffffffffffffffffffffffffffffffffffffffff16815260200190815260200160002060000160166101000a81548160ff02191690831515021790555060076000815480929190600101919050555060045460075414156104835760006007819055505b50565b600115156000803373ffffffffffffffffffffffffffffffffffffffff1673ffffffffffffffffffffffffffffffffffffffff16815260200190815260200160002060000160179054906101000a900460ff1615151461051b576040517f08c379a000000000000000000000000000000000000000000000000000000000815260040161051290611641565b60405180910390fd5b600c6001600854038154811061052d57fe5b9060005260206000200160009054906101000a900473ffffffffffffffffffffffffffffffffffffffff1673ffffffffffffffffffffffffffffffffffffffff163373ffffffffffffffffffffffffffffffffffffffff16146105c5576040517f08c379a00000000000000000000000000000000000000000000000000000000081526004016105bc906116e1565b60405180910390fd5b60018060028111156105d357fe5b600d60009054906101000a900460ff1660028111156105ee57fe5b146105f857600080fd5b60035460045402600a54146107515760008090505b6004548160ff16101561074f576000600c8260ff168154811061062c57fe5b9060005260206000200160009054906101000a900473ffffffffffffffffffffffffffffffffffffffff169050603c60085402603c600954010142101580156106c75750600015156000808373ffffffffffffffffffffffffffffffffffffffff1673ffffffffffffffffffffffffffffffffffffffff16815260200190815260200160002060000160169054906101000a900460ff161515145b156107415760016000808373ffffffffffffffffffffffffffffffffffffffff1673ffffffffffffffffffffffffffffffffffffffff16815260200190815260200160002060000160186101000a81548160ff021916908315150217905550600354600a5401600a81905550600354600b5403600b819055505b50808060010191505061060d565b505b60035460045402600a541461079b576040517f08c379a000000000000000000000000000000000000000000000000000000000815260040161079290611661565b60405180910390fd5b6000600c600160085403815481106107af57fe5b9060005260206000200160009054906101000a900473ffffffffffffffffffffffffffffffffffffffff1690506000808273ffffffffffffffffffffffffffffffffffffffff1673ffffffffffffffffffffffffffffffffffffffff16815260200190815260200160002060000160019054906101000a900473ffffffffffffffffffffffffffffffffffffffff1673ffffffffffffffffffffffffffffffffffffffff166108fc600a549081150290604051600060405180830381858888f19350505050158015610885573d6000803e3d6000fd5b50600454600854106108ba576002600d60006101000a81548160ff021916908360028111156108b057fe5b02179055506108c3565b6108c2611136565b5b6008600081548092919060010191905055505050565b60025434101561091e576040517f08c379a0000000000000000000000000000000000000000000000000000000008152600401610915906116c1565b60405180910390fd5b600080600281111561092c57fe5b600d60009054906101000a900460ff16600281111561094757fe5b1461095157600080fd5b600454600560009054906101000a900460ff1660ff16106109a7576040517f08c379a000000000000000000000000000000000000000000000000000000000815260040161099e90611681565b60405180910390fd5b6005600081819054906101000a900460ff168092919060010191906101000a81548160ff021916908360ff160217905550506040518060c00160405280600560009054906101000a900460ff1660ff1681526020013373ffffffffffffffffffffffffffffffffffffffff168152602001600015158152602001600015158152602001600115158152602001600015158152506000803373ffffffffffffffffffffffffffffffffffffffff1673ffffffffffffffffffffffffffffffffffffffff16815260200190815260200160002060008201518160000160006101000a81548160ff021916908360ff16021790555060208201518160000160016101000a81548173ffffffffffffffffffffffffffffffffffffffff021916908373ffffffffffffffffffffffffffffffffffffffff16021790555060408201518160000160156101000a81548160ff02191690831515021790555060608201518160000160166101000a81548160ff02191690831515021790555060808201518160000160176101000a81548160ff02191690831515021790555060a08201518160000160186101000a81548160ff021916908315150217905550905050600c3390806001815401808255809150509060018203906000526020600020016000909192909190916101000a81548173ffffffffffffffffffffffffffffffffffffffff021916908373ffffffffffffffffffffffffffffffffffffffff1602179055505034600b5401600b8190555060016000803373ffffffffffffffffffffffffffffffffffffffff1673ffffffffffffffffffffffffffffffffffffffff16815260200190815260200160002060000160156101000a81548160ff0219169083151502179055506006600081548092919060010191905055506004546006541415610c795760006006819055506001600d60006101000a81548160ff02191690836002811115610c7357fe5b02179055505b50565b600c8181548110610c8957fe5b906000526020600020016000915054906101000a900473ffffffffffffffffffffffffffffffffffffffff1681565b60045481565b600a5481565b60085481565b60006020528060005260406000206000915090508060000160009054906101000a900460ff16908060000160019054906101000a900473ffffffffffffffffffffffffffffffffffffffff16908060000160159054906101000a900460ff16908060000160169054906101000a900460ff16908060000160179054906101000a900460ff16908060000160189054906101000a900460ff16905086565b600b5481565b6002806002811115610d7b57fe5b600d60009054906101000a900460ff166002811115610d9657fe5b14610da057600080fd5b600160009054906101000a900473ffffffffffffffffffffffffffffffffffffffff1673ffffffffffffffffffffffffffffffffffffffff163373ffffffffffffffffffffffffffffffffffffffff1614610e30576040517f08c379a0000000000000000000000000000000000000000000000000000000008152600401610e2790611621565b60405180910390fd5b60008090505b6004548160ff16101561104a576000600c8260ff1681548110610e5557fe5b9060005260206000200160009054906101000a900473ffffffffffffffffffffffffffffffffffffffff16905060008060008373ffffffffffffffffffffffffffffffffffffffff1673ffffffffffffffffffffffffffffffffffffffff16815260200190815260200160002060000160156101000a81548160ff02191690831515021790555060008060008373ffffffffffffffffffffffffffffffffffffffff1673ffffffffffffffffffffffffffffffffffffffff16815260200190815260200160002060000160176101000a81548160ff021916908315150217905550600015156000808373ffffffffffffffffffffffffffffffffffffffff1673ffffffffffffffffffffffffffffffffffffffff16815260200190815260200160002060000160189054906101000a900460ff161515141561103c576000808273ffffffffffffffffffffffffffffffffffffffff1673ffffffffffffffffffffffffffffffffffffffff16815260200190815260200160002060000160019054906101000a900473ffffffffffffffffffffffffffffffffffffffff1673ffffffffffffffffffffffffffffffffffffffff166108fc6002549081150290604051600060405180830381858888f1935050505015801561103a573d6000803e3d6000fd5b505b508080600101915050610e36565b506000600b8190555060006006819055506000600560006101000a81548160ff021916908360ff16021790555060006040519080825280602002602001820160405280156110a75781602001602082028038833980820191505090505b50600c90805190602001906110bd9291906111fb565b506000600d60006101000a81548160ff021916908360028111156110dd57fe5b02179055506000600a819055506001600881905550600060098190555050565b600d60009054906101000a900460ff1681565b600160009054906101000a900473ffffffffffffffffffffffffffffffffffffffff1681565b60008090505b6004548160ff1610156111f0576000600c8260ff168154811061115b57fe5b9060005260206000200160009054906101000a900473ffffffffffffffffffffffffffffffffffffffff16905060008060008373ffffffffffffffffffffffffffffffffffffffff1673ffffffffffffffffffffffffffffffffffffffff16815260200190815260200160002060000160166101000a81548160ff02191690831515021790555050808060010191505061113c565b506000600a81905550565b828054828255906000526020600020908101928215611274579160200282015b828111156112735782518260006101000a81548173ffffffffffffffffffffffffffffffffffffffff021916908373ffffffffffffffffffffffffffffffffffffffff1602179055509160200191906001019061121b565b5b5090506112819190611285565b5090565b6112c591905b808211156112c157600081816101000a81549073ffffffffffffffffffffffffffffffffffffffff02191690555060010161128b565b5090565b90565b6000813590506112d781611827565b92915050565b6000813590506112ec8161183e565b92915050565b60006020828403121561130457600080fd5b6000611312848285016112c8565b91505092915050565b60006020828403121561132d57600080fd5b600061133b848285016112dd565b91505092915050565b61134d816117a0565b82525050565b61135c8161178e565b82525050565b61136b816117b2565b82525050565b61137a81611808565b82525050565b600061138d60258361177d565b91507f536f6c6f20656c2061646d696e207075656465206c6c616d6172206c6120667560008301527f6e63696f6e0000000000000000000000000000000000000000000000000000006020830152604082019050919050565b60006113f360158361177d565b91507f5573756172696f206e6f207265676973747261646f00000000000000000000006000830152602082019050919050565b6000611433602b8361177d565b91507f4573706572612061207175652074656e67616d6f7320656c206d6f6e746f206460008301527f652074752061686f72726f0000000000000000000000000000000000000000006020830152604082019050919050565b600061149960168361177d565b91507f456c20677275706f206573746120636f6d706c65746f000000000000000000006000830152602082019050919050565b60006114d960178361177d565b91507f59612061686f7272617374652065737465207475726e6f0000000000000000006000830152602082019050919050565b600061151960148361177d565b91507f466f6e646f7320496e737566696369656e7465730000000000000000000000006000830152602082019050919050565b600061155960238361177d565b91507f44656265732065737065726172207475207475726e6f2070617261207265746960008301527f72617200000000000000000000000000000000000000000000000000000000006020830152604082019050919050565b6115bb816117f1565b82525050565b6115ca816117fb565b82525050565b60006020820190506115e56000830184611353565b92915050565b60006020820190506116006000830184611344565b92915050565b600060208201905061161b6000830184611371565b92915050565b6000602082019050818103600083015261163a81611380565b9050919050565b6000602082019050818103600083015261165a816113e6565b9050919050565b6000602082019050818103600083015261167a81611426565b9050919050565b6000602082019050818103600083015261169a8161148c565b9050919050565b600060208201905081810360008301526116ba816114cc565b9050919050565b600060208201905081810360008301526116da8161150c565b9050919050565b600060208201905081810360008301526116fa8161154c565b9050919050565b600060208201905061171660008301846115b2565b92915050565b600060c08201905061173160008301896115c1565b61173e6020830188611344565b61174b6040830187611362565b6117586060830186611362565b6117656080830185611362565b61177260a0830184611362565b979650505050505050565b600082825260208201905092915050565b6000611799826117d1565b9050919050565b60006117ab826117d1565b9050919050565b60008115159050919050565b60008190506117cc8261181a565b919050565b600073ffffffffffffffffffffffffffffffffffffffff82169050919050565b6000819050919050565b600060ff82169050919050565b6000611813826117be565b9050919050565b6003811061182457fe5b50565b6118308161178e565b811461183b57600080fd5b50565b611847816117f1565b811461185257600080fd5b5056fea265627a7a72305820bbdb2938847f286c53c90a9b995e827b2fd96412ad202629c151d44b880e8c506c6578706572696d656e74616cf50037",
  "source": "pragma solidity >=0.4.22 <0.7.0;\npragma experimental ABIEncoderV2;\n\ncontract GroupsTime {\n    enum Stages {\n        //Stages of the round\n        Setup, //register and receive the initial cash in\n        Save, //receive payments\n        Finished //Cash in is sent to the users\n    }\n\n    struct User {\n        //Information from each user\n        uint8 userId;\n        address payable userAddr;\n        bool cashInFlag;\n        bool saveAmountFlag;\n        bool currentRoundFlag; //defines if the user is participating in the current round\n        bool latePaymentFlag;\n    }\n\n    mapping(address => User) public users;\n    address payable public admin; //The user that deploy the contract is the administrator\n\n    //Constructor deployment variables\n    uint256 cashIn; //amount to be payed as commitment at the begining of the saving circle\n    uint256 saveAmount; //Payment on each round/cycle\n    uint256 public groupSize; //Number of slots for users to participate on the saving circle\n\n    //Counters and flags\n    uint8 usersCounter = 0;\n    uint256 CashInPayeesCount = 0; //Comitment payments counter\n    uint256 saveAmountPayeesCount = 0; //Payments done in round counter\n    uint256 public turn = 1; //Current cycle/round in the saving circle\n    uint256 creationTime;\n    uint256 public totalSaveAmount = 0; //Collective saving on the round\n    uint256 public totalCashIn = 0;\n    address[] public addressOrderList;\n    Stages public stage;\n\n    constructor(\n        uint256 _cashIn,\n        uint256 _saveAmount,\n        uint8 _groupSize\n    ) public {\n        admin = msg.sender;\n        cashIn = _cashIn * 1e17;\n        saveAmount = _saveAmount * 1e17;\n        groupSize = _groupSize;\n        stage = Stages.Setup;\n        creationTime = now;\n    }\n\n    modifier isUsersTurn() {\n        //Verifies if it is the users round to widraw\n        require(\n            msg.sender == addressOrderList[turn - 1],\n            \"Debes esperar tu turno para retirar\"\n        );\n        _;\n    }\n\n    modifier isRegisteredUser() {\n        //Verifies if it is the users round to widraw\n        require(\n            users[msg.sender].currentRoundFlag == true,\n            \"Usuario no registrado\"\n        );\n        _;\n    }\n\n    modifier isPayAmountCorrect() {\n        //Verifies if it is the users round to widraw\n        require(msg.value >= cashIn, \"Fondos Insuficientes\");\n        _;\n    }\n\n    modifier atStage(Stages _stage) {\n        require(stage == _stage);\n        _;\n    }\n\n    modifier timedTransitions() {\n        if (stage == Stages.Setup && now >= creationTime + 3 minutes) {\n            stage = Stages.Save;\n        }\n        if (\n            stage == Stages.Save &&\n            now >= creationTime + 3 minutes + groupSize * 60 + 1 minutes\n        ) stage = Stages.Finished;\n        _;\n    }\n\n    modifier onlyAdmin() {\n        require(msg.sender == admin, \"Solo el admin puede llamar la funcion\");\n        _;\n    }\n\n    function registerUser()\n        public\n        payable\n        isPayAmountCorrect\n        atStage(Stages.Setup)\n    {\n        require(usersCounter < groupSize, \"El grupo esta completo\"); //the saving circle is full\n        usersCounter++;\n        users[msg.sender] = User(\n            usersCounter,\n            msg.sender,\n            false,\n            false,\n            true,\n            false\n        );\n        addressOrderList.push(msg.sender); //store user\n        totalCashIn = totalCashIn + msg.value;\n        users[msg.sender].cashInFlag = true;\n        CashInPayeesCount++;\n        if (CashInPayeesCount == groupSize) {\n            CashInPayeesCount = 0;\n            stage = Stages.Save;\n        }\n    }\n\n    function payTurn()\n        public\n        payable\n        isRegisteredUser\n        isPayAmountCorrect\n        atStage(Stages.Save)\n    {\n        //users make the payment for the cycle\n        require(\n            users[msg.sender].saveAmountFlag == false,\n            \"Ya ahorraste este turno\"\n        ); //you have already saved this round\n        // require(now <= creationTime + 2 minutes + turn * 60, \"Pago tardio\");\n        totalSaveAmount = totalSaveAmount + msg.value;\n        users[msg.sender].saveAmountFlag = true;\n        saveAmountPayeesCount++;\n        if (saveAmountPayeesCount == groupSize) {\n            saveAmountPayeesCount = 0;\n        }\n    }\n\n    function withdrawTurn()\n        public\n        payable\n        isRegisteredUser\n        isUsersTurn\n        atStage(Stages.Save)\n    {\n        //User assigned to the round can widraw\n        if (totalSaveAmount != groupSize * saveAmount) {\n            for (uint8 i = 0; i < groupSize; i++) {\n                address useraddress = addressOrderList[i];\n                if (\n                    now >= creationTime + 1 minutes + turn * 60 &&\n                    users[useraddress].saveAmountFlag == false\n                ) {\n                    users[useraddress].latePaymentFlag = true;\n                    totalSaveAmount = totalSaveAmount + saveAmount;\n                    totalCashIn = totalCashIn - saveAmount;\n                }\n            }\n        }\n        require(\n            totalSaveAmount == groupSize * saveAmount,\n            \"Espera a que tengamos el monto de tu ahorro\"\n        ); //Se debe estar en fase de pago\n        address addressUserInTurn = addressOrderList[turn - 1];\n        users[addressUserInTurn].userAddr.transfer(totalSaveAmount);\n        if (turn >= groupSize) {\n            stage = Stages.Finished;\n        } else {\n            newTurn();\n        }\n        turn++;\n    }\n\n    function newTurn() private {\n        //repeats the save and pay stages according to the saving circle size\n        for (uint8 i = 0; i < groupSize; i++) {\n            address useraddress = addressOrderList[i];\n            users[useraddress].saveAmountFlag = false;\n        }\n        totalSaveAmount = 0;\n    }\n\n    function withdrawCashIn() public payable atStage(Stages.Finished) onlyAdmin {\n        //When all the rounds are done the admin sends the cash in to the users\n        for (uint8 i = 0; i < groupSize; i++) {\n            address useraddress = addressOrderList[i];\n            users[useraddress].cashInFlag = false;\n            users[useraddress].currentRoundFlag = false;\n            if (users[useraddress].latePaymentFlag == false) {\n                users[useraddress].userAddr.transfer(cashIn);\n            }\n        }\n        totalCashIn = 0;\n        CashInPayeesCount = 0;\n        usersCounter = 0;\n        addressOrderList = new address[](0);\n        stage = Stages.Setup;\n        totalSaveAmount = 0;\n        turn = 1;\n        creationTime = 0;\n    }\n}\n",
  "sourcePath": "/Users/federico/Desktop/bbvaHack/bloinx/contracts/GroupsTime.sol",
  "compiler": {
    "name": "solc",
    "version": "0.5.8+commit.23d335f2.Emscripten.clang"
  },
  "schemaVersion": "3.0.15",
  "updatedAt": "2020-09-28T00:11:38.848Z",
  "devdoc": {
    "methods": {}
  },
  "userdoc": {
    "methods": {}
  }
}