{
  "contractName": "Groups",
  "abi": [
    {
      "constant": true,
      "inputs": [
        {
          "name": "",
          "type": "uint256"
        }
      ],
      "name": "rooms",
      "outputs": [
        {
          "name": "roomId",
          "type": "uint256"
        },
        {
          "components": [
            {
              "name": "userId",
              "type": "uint256"
            },
            {
              "name": "userName",
              "type": "string"
            },
            {
              "name": "userAddr",
              "type": "address"
            },
            {
              "name": "cashInFlag",
              "type": "bool"
            },
            {
              "name": "saveAmountFlag",
              "type": "bool"
            }
          ],
          "name": "user",
          "type": "tuple"
        }
      ],
      "payable": false,
      "stateMutability": "view",
      "type": "function"
    },
    {
      "constant": true,
      "inputs": [
        {
          "name": "",
          "type": "uint256"
        }
      ],
      "name": "addressOrderList",
      "outputs": [
        {
          "name": "",
          "type": "address"
        }
      ],
      "payable": false,
      "stateMutability": "view",
      "type": "function"
    },
    {
      "constant": true,
      "inputs": [
        {
          "name": "",
          "type": "address"
        }
      ],
      "name": "users",
      "outputs": [
        {
          "name": "userId",
          "type": "uint256"
        },
        {
          "name": "userName",
          "type": "string"
        },
        {
          "name": "userAddr",
          "type": "address"
        },
        {
          "name": "cashInFlag",
          "type": "bool"
        },
        {
          "name": "saveAmountFlag",
          "type": "bool"
        }
      ],
      "payable": false,
      "stateMutability": "view",
      "type": "function"
    },
    {
      "constant": true,
      "inputs": [],
      "name": "stage",
      "outputs": [
        {
          "name": "",
          "type": "uint8"
        }
      ],
      "payable": false,
      "stateMutability": "view",
      "type": "function"
    },
    {
      "constant": true,
      "inputs": [],
      "name": "admin",
      "outputs": [
        {
          "name": "",
          "type": "address"
        }
      ],
      "payable": false,
      "stateMutability": "view",
      "type": "function"
    },
    {
      "inputs": [
        {
          "name": "_cashIn",
          "type": "uint256"
        },
        {
          "name": "_saveAmount",
          "type": "uint256"
        },
        {
          "name": "_groupSize",
          "type": "uint8"
        }
      ],
      "payable": false,
      "stateMutability": "nonpayable",
      "type": "constructor"
    },
    {
      "constant": false,
      "inputs": [
        {
          "name": "_userName",
          "type": "string"
        }
      ],
      "name": "registerUser",
      "outputs": [],
      "payable": false,
      "stateMutability": "nonpayable",
      "type": "function"
    },
    {
      "constant": false,
      "inputs": [],
      "name": "payCashIn",
      "outputs": [],
      "payable": true,
      "stateMutability": "payable",
      "type": "function"
    },
    {
      "constant": false,
      "inputs": [],
      "name": "payRound",
      "outputs": [],
      "payable": true,
      "stateMutability": "payable",
      "type": "function"
    },
    {
      "constant": false,
      "inputs": [],
      "name": "WithdrawRound",
      "outputs": [],
      "payable": true,
      "stateMutability": "payable",
      "type": "function"
    },
    {
      "constant": false,
      "inputs": [],
      "name": "newRound",
      "outputs": [],
      "payable": false,
      "stateMutability": "nonpayable",
      "type": "function"
    },
    {
      "constant": false,
      "inputs": [],
      "name": "withdrawCashIn",
      "outputs": [],
      "payable": true,
      "stateMutability": "payable",
      "type": "function"
    }
  ],
  "bytecode": "0x6080604052600160025560006003556000600755600060085560016009556000600a556000600b553480156200003457600080fd5b5060405160608062001fe483398101806040526200005691908101906200010b565b33600f60006101000a81548173ffffffffffffffffffffffffffffffffffffffff021916908373ffffffffffffffffffffffffffffffffffffffff16021790555082600481905550816005819055508060ff166006819055506000600c60006101000a81548160ff02191690836003811115620000cf57fe5b0217905550505050620001ac565b600081519050620000ee8162000178565b92915050565b600081519050620001058162000192565b92915050565b6000806000606084860312156200012157600080fd5b60006200013186828701620000dd565b93505060206200014486828701620000dd565b92505060406200015786828701620000f4565b9150509250925092565b6000819050919050565b600060ff82169050919050565b620001838162000161565b81146200018f57600080fd5b50565b6200019d816200016b565b8114620001a957600080fd5b50565b611e2880620001bc6000396000f3fe60806040526004361061009c5760003560e01c806371c5061c1161006457806371c5061c14610159578063a87430ba14610163578063b6a26cab146101a4578063c040e6b8146101ae578063c5b1d9aa146101d9578063f851a440146101f05761009c565b80631229b1d1146100a15780631bae0ac8146100ab5780635394dda8146100e9578063561a57b214610126578063704f1b9414610130575b600080fd5b6100a961021b565b005b3480156100b757600080fd5b506100d260048036036100cd9190810190611493565b61057d565b6040516100e0929190611c2b565b60405180910390f35b3480156100f557600080fd5b50610110600480360361010b9190810190611493565b6106e3565b60405161011d9190611a00565b60405180910390f35b61012e61071f565b005b34801561013c57600080fd5b5061015760048036036101529190810190611452565b6109e2565b005b610161610c3f565b005b34801561016f57600080fd5b5061018a60048036036101859190810190611429565b610f6d565b60405161019b959493929190611bd1565b60405180910390f35b6101ac611075565b005b3480156101ba57600080fd5b506101c361120e565b6040516101d09190611a36565b60405180910390f35b3480156101e557600080fd5b506101ee611221565b005b3480156101fc57600080fd5b506102056112e0565b6040516102129190611a1b565b60405180910390f35b6000803373ffffffffffffffffffffffffffffffffffffffff1673ffffffffffffffffffffffffffffffffffffffff16815260200190815260200160002060020160009054906101000a900473ffffffffffffffffffffffffffffffffffffffff1673ffffffffffffffffffffffffffffffffffffffff163373ffffffffffffffffffffffffffffffffffffffff16146102ea576040517f08c379a00000000000000000000000000000000000000000000000000000000081526004016102e190611ad1565b60405180910390fd5b600d600160095403815481106102fc57fe5b9060005260206000200160009054906101000a900473ffffffffffffffffffffffffffffffffffffffff1673ffffffffffffffffffffffffffffffffffffffff163373ffffffffffffffffffffffffffffffffffffffff1614610394576040517f08c379a000000000000000000000000000000000000000000000000000000000815260040161038b90611bb1565b60405180910390fd5b600260038111156103a157fe5b600c60009054906101000a900460ff1660038111156103bc57fe5b146103fc576040517f08c379a00000000000000000000000000000000000000000000000000000000081526004016103f390611af1565b60405180910390fd5b6001600c60006101000a81548160ff0219169083600381111561041b57fe5b02179055506000600d6001600954038154811061043457fe5b9060005260206000200160009054906101000a900473ffffffffffffffffffffffffffffffffffffffff1690506000808273ffffffffffffffffffffffffffffffffffffffff1673ffffffffffffffffffffffffffffffffffffffff16815260200190815260200160002060020160009054906101000a900473ffffffffffffffffffffffffffffffffffffffff1673ffffffffffffffffffffffffffffffffffffffff166108fc600a549081150290604051600060405180830381858888f1935050505015801561050a573d6000803e3d6000fd5b506009600081548092919060010191905055506001600c60006101000a81548160ff0219169083600381111561053c57fe5b0217905550610549611221565b600654600954111561057a576003600c60006101000a81548160ff0219169083600381111561057457fe5b02179055505b50565b6001602052806000526040600020600091509050806000015490806001016040518060a001604052908160008201548152602001600182018054600181600116156101000203166002900480601f0160208091040260200160405190810160405280929190818152602001828054600181600116156101000203166002900480156106495780601f1061061e57610100808354040283529160200191610649565b820191906000526020600020905b81548152906001019060200180831161062c57829003601f168201915b505050505081526020016002820160009054906101000a900473ffffffffffffffffffffffffffffffffffffffff1673ffffffffffffffffffffffffffffffffffffffff1673ffffffffffffffffffffffffffffffffffffffff1681526020016002820160149054906101000a900460ff161515151581526020016002820160159054906101000a900460ff161515151581525050905082565b600d81815481106106f057fe5b906000526020600020016000915054906101000a900473ffffffffffffffffffffffffffffffffffffffff1681565b6000803373ffffffffffffffffffffffffffffffffffffffff1673ffffffffffffffffffffffffffffffffffffffff16815260200190815260200160002060020160009054906101000a900473ffffffffffffffffffffffffffffffffffffffff1673ffffffffffffffffffffffffffffffffffffffff163373ffffffffffffffffffffffffffffffffffffffff16146107ee576040517f08c379a00000000000000000000000000000000000000000000000000000000081526004016107e590611ad1565b60405180910390fd5b600160038111156107fb57fe5b600c60009054906101000a900460ff16600381111561081657fe5b14610856576040517f08c379a000000000000000000000000000000000000000000000000000000000815260040161084d90611b71565b60405180910390fd5b600015156000803373ffffffffffffffffffffffffffffffffffffffff1673ffffffffffffffffffffffffffffffffffffffff16815260200190815260200160002060020160159054906101000a900460ff161515146108eb576040517f08c379a00000000000000000000000000000000000000000000000000000000081526004016108e290611ab1565b60405180910390fd5b600454341015610930576040517f08c379a000000000000000000000000000000000000000000000000000000000815260040161092790611b91565b60405180910390fd5b60016000803373ffffffffffffffffffffffffffffffffffffffff1673ffffffffffffffffffffffffffffffffffffffff16815260200190815260200160002060020160156101000a81548160ff02191690831515021790555060086000815480929190600101919050555034600a5401600a8190555060065460085414156109e05760006008819055506002600c60006101000a81548160ff021916908360038111156109da57fe5b02179055505b565b600060038111156109ef57fe5b600c60009054906101000a900460ff166003811115610a0a57fe5b14610a4a576040517f08c379a0000000000000000000000000000000000000000000000000000000008152600401610a4190611a51565b60405180910390fd5b60065460035410610a90576040517f08c379a0000000000000000000000000000000000000000000000000000000008152600401610a8790611b31565b60405180910390fd5b6003600081548092919060010191905055506040518060a0016040528060035481526020018281526020013373ffffffffffffffffffffffffffffffffffffffff168152602001600015158152602001600015158152506000803373ffffffffffffffffffffffffffffffffffffffff1673ffffffffffffffffffffffffffffffffffffffff168152602001908152602001600020600082015181600001556020820151816001019080519060200190610b4b929190611306565b5060408201518160020160006101000a81548173ffffffffffffffffffffffffffffffffffffffff021916908373ffffffffffffffffffffffffffffffffffffffff16021790555060608201518160020160146101000a81548160ff02191690831515021790555060808201518160020160156101000a81548160ff021916908315150217905550905050600d3390806001815401808255809150509060018203906000526020600020016000909192909190916101000a81548173ffffffffffffffffffffffffffffffffffffffff021916908373ffffffffffffffffffffffffffffffffffffffff1602179055505050565b6000803373ffffffffffffffffffffffffffffffffffffffff1673ffffffffffffffffffffffffffffffffffffffff16815260200190815260200160002060020160009054906101000a900473ffffffffffffffffffffffffffffffffffffffff1673ffffffffffffffffffffffffffffffffffffffff163373ffffffffffffffffffffffffffffffffffffffff1614610d0e576040517f08c379a0000000000000000000000000000000000000000000000000000000008152600401610d0590611ad1565b60405180910390fd5b60006003811115610d1b57fe5b600c60009054906101000a900460ff166003811115610d3657fe5b14610d76576040517f08c379a0000000000000000000000000000000000000000000000000000000008152600401610d6d90611a91565b60405180910390fd5b600015156000803373ffffffffffffffffffffffffffffffffffffffff1673ffffffffffffffffffffffffffffffffffffffff16815260200190815260200160002060020160149054906101000a900460ff16151514610e0b576040517f08c379a0000000000000000000000000000000000000000000000000000000008152600401610e0290611b51565b60405180910390fd5b600454341015610e50576040517f08c379a0000000000000000000000000000000000000000000000000000000008152600401610e4790611b91565b60405180910390fd5b34600b5401600b8190555060016000803373ffffffffffffffffffffffffffffffffffffffff1673ffffffffffffffffffffffffffffffffffffffff16815260200190815260200160002060020160146101000a81548160ff0219169083151502179055506007600081548092919060010191905055506006546007541415610f6b57600f60009054906101000a900473ffffffffffffffffffffffffffffffffffffffff1673ffffffffffffffffffffffffffffffffffffffff166108fc600b549081150290604051600060405180830381858888f19350505050158015610f3d573d6000803e3d6000fd5b5060006007819055506001600c60006101000a81548160ff02191690836003811115610f6557fe5b02179055505b565b6000602052806000526040600020600091509050806000015490806001018054600181600116156101000203166002900480601f01602080910402602001604051908101604052809291908181526020018280546001816001161561010002031660029004801561101f5780601f10610ff45761010080835404028352916020019161101f565b820191906000526020600020905b81548152906001019060200180831161100257829003601f168201915b5050505050908060020160009054906101000a900473ffffffffffffffffffffffffffffffffffffffff16908060020160149054906101000a900460ff16908060020160159054906101000a900460ff16905085565b60038081111561108157fe5b600c60009054906101000a900460ff16600381111561109c57fe5b146110dc576040517f08c379a00000000000000000000000000000000000000000000000000000000081526004016110d390611b11565b60405180910390fd5b600115156000803373ffffffffffffffffffffffffffffffffffffffff1673ffffffffffffffffffffffffffffffffffffffff16815260200190815260200160002060020160149054906101000a900460ff16151514611171576040517f08c379a000000000000000000000000000000000000000000000000000000000815260040161116890611a71565b60405180910390fd5b3373ffffffffffffffffffffffffffffffffffffffff166108fc6004549081150290604051600060405180830381858888f193505050501580156111b9573d6000803e3d6000fd5b50600015156000803373ffffffffffffffffffffffffffffffffffffffff1673ffffffffffffffffffffffffffffffffffffffff16815260200190815260200160002060020160149054906101000a90505050565b600c60009054906101000a900460ff1681565b60008090505b6006548110156112d5576000600d828154811061124057fe5b9060005260206000200160009054906101000a900473ffffffffffffffffffffffffffffffffffffffff16905060008060008373ffffffffffffffffffffffffffffffffffffffff1673ffffffffffffffffffffffffffffffffffffffff16815260200190815260200160002060020160156101000a81548160ff021916908315150217905550508080600101915050611227565b506000600a81905550565b600f60009054906101000a900473ffffffffffffffffffffffffffffffffffffffff1681565b828054600181600116156101000203166002900490600052602060002090601f016020900481019282601f1061134757805160ff1916838001178555611375565b82800160010185558215611375579182015b82811115611374578251825591602001919060010190611359565b5b5090506113829190611386565b5090565b6113a891905b808211156113a457600081600090555060010161138c565b5090565b90565b6000813590506113ba81611dc0565b92915050565b600082601f8301126113d157600080fd5b81356113e46113df82611c88565b611c5b565b9150808252602083016020830185838301111561140057600080fd5b61140b838284611d60565b50505092915050565b60008135905061142381611dd7565b92915050565b60006020828403121561143b57600080fd5b6000611449848285016113ab565b91505092915050565b60006020828403121561146457600080fd5b600082013567ffffffffffffffff81111561147e57600080fd5b61148a848285016113c0565b91505092915050565b6000602082840312156114a557600080fd5b60006114b384828501611414565b91505092915050565b6114c581611cf3565b82525050565b6114d481611cf3565b82525050565b6114e381611ce1565b82525050565b6114f281611d05565b82525050565b61150181611d05565b82525050565b61151081611d4e565b82525050565b600061152182611cb4565b61152b8185611cbf565b935061153b818560208601611d6f565b61154481611da2565b840191505092915050565b600061155a82611cb4565b6115648185611cd0565b9350611574818560208601611d6f565b61157d81611da2565b840191505092915050565b6000611595602f83611cd0565b91507f4c612074616e646120796120636f6d656e7a6f2079206e6f206163657074612060008301527f6e7565766f73207573756172696f7300000000000000000000000000000000006020830152604082019050919050565b60006115fb603283611cd0565b91507f4e6f2074656e656d6f73207265676973747261646f206e696e67756e6120646560008301527f766f6c7563696f6e2070656e6469656e746500000000000000000000000000006020830152604082019050919050565b6000611661602883611cd0565b91507f546f646f732068616e2070616761646f20737520656e7472616461206578697460008301527f6f73616d656e74650000000000000000000000000000000000000000000000006020830152604082019050919050565b60006116c7601783611cd0565b91507f59612061686f727261737465206573746120726f6e64610000000000000000006000830152602082019050919050565b6000611707601583611cd0565b91507f5573756172696f206e6f207265676973747261646f00000000000000000000006000830152602082019050919050565b6000611747602b83611cd0565b91507f4573706572612061207175652074656e67616d6f7320656c206d6f6e746f206460008301527f652074752061686f72726f0000000000000000000000000000000000000000006020830152604082019050919050565b60006117ad603083611cd0565b91507f44656265732065737065726172206120717565207465726d696e6520656c206360008301527f697263756c6f2064652061686f72726f000000000000000000000000000000006020830152604082019050919050565b6000611813601683611cd0565b91507f456c20677275706f206573746120636f6d706c65746f000000000000000000006000830152602082019050919050565b6000611853601e83611cd0565b91507f59612074656e656d6f732072656769737261646f2074752043617368496e00006000830152602082019050919050565b6000611893602083611cd0565b91507f45737065726120756e61206e7565766120726f6e64612064652061686f72726f6000830152602082019050919050565b60006118d3601483611cd0565b91507f466f6e646f7320496e737566696369656e7465730000000000000000000000006000830152602082019050919050565b6000611913602383611cd0565b91507f44656265732065737065726172207475207475726e6f2070617261207265746960008301527f72617200000000000000000000000000000000000000000000000000000000006020830152604082019050919050565b600060a08301600083015161198460008601826119e2565b506020830151848203602086015261199c8282611516565b91505060408301516119b160408601826114bc565b5060608301516119c460608601826114e9565b5060808301516119d760808601826114e9565b508091505092915050565b6119eb81611d44565b82525050565b6119fa81611d44565b82525050565b6000602082019050611a1560008301846114da565b92915050565b6000602082019050611a3060008301846114cb565b92915050565b6000602082019050611a4b6000830184611507565b92915050565b60006020820190508181036000830152611a6a81611588565b9050919050565b60006020820190508181036000830152611a8a816115ee565b9050919050565b60006020820190508181036000830152611aaa81611654565b9050919050565b60006020820190508181036000830152611aca816116ba565b9050919050565b60006020820190508181036000830152611aea816116fa565b9050919050565b60006020820190508181036000830152611b0a8161173a565b9050919050565b60006020820190508181036000830152611b2a816117a0565b9050919050565b60006020820190508181036000830152611b4a81611806565b9050919050565b60006020820190508181036000830152611b6a81611846565b9050919050565b60006020820190508181036000830152611b8a81611886565b9050919050565b60006020820190508181036000830152611baa816118c6565b9050919050565b60006020820190508181036000830152611bca81611906565b9050919050565b600060a082019050611be660008301886119f1565b8181036020830152611bf8818761154f565b9050611c0760408301866114cb565b611c1460608301856114f8565b611c2160808301846114f8565b9695505050505050565b6000604082019050611c4060008301856119f1565b8181036020830152611c52818461196c565b90509392505050565b6000604051905081810181811067ffffffffffffffff82111715611c7e57600080fd5b8060405250919050565b600067ffffffffffffffff821115611c9f57600080fd5b601f19601f8301169050602081019050919050565b600081519050919050565b600082825260208201905092915050565b600082825260208201905092915050565b6000611cec82611d24565b9050919050565b6000611cfe82611d24565b9050919050565b60008115159050919050565b6000819050611d1f82611db3565b919050565b600073ffffffffffffffffffffffffffffffffffffffff82169050919050565b6000819050919050565b6000611d5982611d11565b9050919050565b82818337600083830152505050565b60005b83811015611d8d578082015181840152602081019050611d72565b83811115611d9c576000848401525b50505050565b6000601f19601f8301169050919050565b60048110611dbd57fe5b50565b611dc981611ce1565b8114611dd457600080fd5b50565b611de081611d44565b8114611deb57600080fd5b5056fea265627a7a7230582066ecc8f5d7a149510c1f84085ac96c8f0f24b3f5ff77f99b6c46b9358a91304c6c6578706572696d656e74616cf50037",
  "source": "pragma solidity >=0.4.22 <0.7.0;\npragma experimental ABIEncoderV2;\n\ncontract Groups {\n\n    enum Stages {   //Stages of the round\n        setup,      //receive the initial fees\n        save,     //receive payments for stage number 1\n        pay,      //send savings to user in 1rst number\n        finished  //all users Withdrew their saving\n    }\n    \n    struct User {\n        uint256 userId;\n        string userName;\n        address payable userAddr;\n        bool cashInFlag;\n        bool saveAmountFlag;\n    }\n    \n    struct Room {\n        uint256 roomId;\n        User user;\n    }\n    \n    mapping(address => User) public users;\n    mapping(uint => Room) public rooms;\n    uint roomCounter = 1;\n    uint usersCounter = 0;\n    uint cashIn;\n    uint saveAmount; //Monto de ahorro periodicamente\n    uint groupSize;\n    uint CashInPayeesCount = 0;\n    uint saveAmountPayeesCount = 0;  //Cantidad de pagos que se realizan por stage\n    uint cycle = 1;   //Sirve para saber el usuario en turno\n    uint totalSaveAmount = 0;  //Monto del ahorro logrado en la tanda\n    uint totalCashIn = 0;\n\n    Stages public stage;\n\n    address[] public addressOrderList;\n    Room[] roomsList;\n\n    address payable public admin;\n\n    modifier isUsersTurn() {\n        require(msg.sender == addressOrderList[cycle-1], \"Debes esperar tu turno para retirar\");\n        _;\n    }\n\n    modifier isRegisteredUser() {\n        require(msg.sender == users[msg.sender].userAddr, \"Usuario no registrado\");\n        _;\n    }\n\n    constructor(uint _cashIn, uint _saveAmount, uint8 _groupSize) public {\n        admin = msg.sender;\n        cashIn = _cashIn;\n        saveAmount = _saveAmount;\n        groupSize = _groupSize;\n        stage = Stages.setup;\n    }\n\n    function registerUser(string memory _userName) public {\n        require(stage == Stages.setup, \"La tanda ya comenzo y no acepta nuevos usuarios\");\n        require(usersCounter < groupSize, \"El grupo esta completo\");\n        usersCounter++;\n        users[msg.sender] = User(usersCounter, _userName, msg.sender, false, false);\n        addressOrderList.push(msg.sender);\n    }\n\n    function payCashIn() public isRegisteredUser payable {\n        require(stage == Stages.setup, \"Todos han pagado su entrada exitosamente\");\n        require(users[msg.sender].cashInFlag == false, \"Ya tenemos regisrado tu CashIn\");\n        require(msg.value >= cashIn, 'Fondos Insuficientes');\n        totalCashIn = totalCashIn + msg.value;\n        users[msg.sender].cashInFlag = true;\n        CashInPayeesCount++;\n        if (CashInPayeesCount == groupSize){\n            admin.transfer(totalCashIn);\n            CashInPayeesCount = 0;\n            stage = Stages.save;\n        }\n    }\n\n\n    function payRound() public isRegisteredUser payable {\n        require(stage == Stages.save, \"Espera una nueva ronda de ahorro\");\n        require(users[msg.sender].saveAmountFlag == false, \"Ya ahorraste esta ronda\");\n        require(msg.value >= cashIn, 'Fondos Insuficientes');\n        users[msg.sender].saveAmountFlag = true;\n        saveAmountPayeesCount++;\n        totalSaveAmount = totalSaveAmount + msg.value;\n        if (saveAmountPayeesCount == groupSize){\n            saveAmountPayeesCount = 0;\n            stage = Stages.pay;            //La tanda puede pagarse si todos ahorraron en la ronda\n        }\n    }\n    \n    function WithdrawRound() payable isRegisteredUser isUsersTurn public {\n        require(stage == Stages.pay, \"Espera a que tengamos el monto de tu ahorro\");     //Se debe estar en fase de pago\n        stage = Stages.save;\n        address addressUserInTurn = addressOrderList[cycle-1];\n        users[addressUserInTurn].userAddr.transfer(totalSaveAmount);\n        cycle++;\n        stage = Stages.save;\n        newRound();\n        if(cycle > groupSize){\n            stage = Stages.finished;\n        }\n    }\n    \n    \n    function newRound() public {\n        for(uint256 i = 0; i<groupSize; i++){\n            address useraddress = addressOrderList[i];\n            users[useraddress].saveAmountFlag = false;\n        }\n        totalSaveAmount = 0;\n    }\n    \n    function withdrawCashIn() payable public {  //*******Falta garantizar que los fondos se devolvieron al contrato*******\n        require(stage == Stages.finished, \"Debes esperar a que termine el circulo de ahorro\");\n        require(users[msg.sender].cashInFlag == true, \"No tenemos registrado ninguna devolucion pendiente\");\n        msg.sender.transfer(cashIn);\n        users[msg.sender].cashInFlag == false;\n    }\n    \n\n}\n",
  "sourcePath": "/Users/federico/Desktop/bbvaHack/bloinx/contracts/Groups.sol",
  "compiler": {
    "name": "solc",
    "version": "0.5.8+commit.23d335f2.Emscripten.clang"
  },
  "schemaVersion": "3.0.15",
  "updatedAt": "2020-07-23T02:49:55.378Z",
  "devdoc": {
    "methods": {}
  },
  "userdoc": {
    "methods": {}
  }
}