{
  "contractName": "GroupsTime",
  "abi": [
    {
      "constant": true,
      "inputs": [
        {
          "name": "",
          "type": "uint256"
        }
      ],
      "name": "addressOrderList",
      "outputs": [
        {
          "name": "",
          "type": "address"
        }
      ],
      "payable": false,
      "stateMutability": "view",
      "type": "function"
    },
    {
      "constant": true,
      "inputs": [],
      "name": "groupSize",
      "outputs": [
        {
          "name": "",
          "type": "uint256"
        }
      ],
      "payable": false,
      "stateMutability": "view",
      "type": "function"
    },
    {
      "constant": true,
      "inputs": [],
      "name": "totalSaveAmount",
      "outputs": [
        {
          "name": "",
          "type": "uint256"
        }
      ],
      "payable": false,
      "stateMutability": "view",
      "type": "function"
    },
    {
      "constant": true,
      "inputs": [],
      "name": "turn",
      "outputs": [
        {
          "name": "",
          "type": "uint256"
        }
      ],
      "payable": false,
      "stateMutability": "view",
      "type": "function"
    },
    {
      "constant": true,
      "inputs": [
        {
          "name": "",
          "type": "address"
        }
      ],
      "name": "users",
      "outputs": [
        {
          "name": "userId",
          "type": "uint8"
        },
        {
          "name": "userAddr",
          "type": "address"
        },
        {
          "name": "cashInFlag",
          "type": "bool"
        },
        {
          "name": "saveAmountFlag",
          "type": "bool"
        },
        {
          "name": "currentRoundFlag",
          "type": "bool"
        },
        {
          "name": "latePaymentFlag",
          "type": "bool"
        }
      ],
      "payable": false,
      "stateMutability": "view",
      "type": "function"
    },
    {
      "constant": true,
      "inputs": [],
      "name": "totalCashIn",
      "outputs": [
        {
          "name": "",
          "type": "uint256"
        }
      ],
      "payable": false,
      "stateMutability": "view",
      "type": "function"
    },
    {
      "constant": true,
      "inputs": [],
      "name": "stage",
      "outputs": [
        {
          "name": "",
          "type": "uint8"
        }
      ],
      "payable": false,
      "stateMutability": "view",
      "type": "function"
    },
    {
      "inputs": [
        {
          "name": "_cashIn",
          "type": "uint256"
        },
        {
          "name": "_saveAmount",
          "type": "uint256"
        },
        {
          "name": "_groupSize",
          "type": "uint8"
        }
      ],
      "payable": false,
      "stateMutability": "nonpayable",
      "type": "constructor"
    },
    {
      "constant": false,
      "inputs": [],
      "name": "registerUser",
      "outputs": [],
      "payable": true,
      "stateMutability": "payable",
      "type": "function"
    },
    {
      "constant": false,
      "inputs": [],
      "name": "payTurn",
      "outputs": [],
      "payable": true,
      "stateMutability": "payable",
      "type": "function"
    },
    {
      "constant": false,
      "inputs": [],
      "name": "WithdrawTurn",
      "outputs": [],
      "payable": true,
      "stateMutability": "payable",
      "type": "function"
    },
    {
      "constant": false,
      "inputs": [],
      "name": "withdrawCashIn",
      "outputs": [],
      "payable": true,
      "stateMutability": "payable",
      "type": "function"
    }
  ],
  "bytecode": "0x60806040526000600560006101000a81548160ff021916908360ff1602179055506000600655600060075560016008556000600a556000600b553480156200004657600080fd5b5060405160608062001c73833981018060405262000068919081019062000124565b33600160006101000a81548173ffffffffffffffffffffffffffffffffffffffff021916908373ffffffffffffffffffffffffffffffffffffffff16021790555082600281905550816003819055508060ff166004819055506000600c60006101000a81548160ff02191690836002811115620000e157fe5b021790555042600981905550505050620001c5565b600081519050620001078162000191565b92915050565b6000815190506200011e81620001ab565b92915050565b6000806000606084860312156200013a57600080fd5b60006200014a86828701620000f6565b93505060206200015d86828701620000f6565b925050604062000170868287016200010d565b9150509250925092565b6000819050919050565b600060ff82169050919050565b6200019c816200017a565b8114620001a857600080fd5b50565b620001b68162000184565b8114620001c257600080fd5b50565b611a9e80620001d56000396000f3fe60806040526004361061009c5760003560e01c80638b299903116100645780638b29990314610148578063a0609bed14610173578063a87430ba1461017d578063b4bde59e146101bf578063b6a26cab146101ea578063c040e6b8146101f45761009c565b8063193e76c7146100a15780634d3820eb146100ab5780635394dda8146100b557806363b635ea146100f257806364f9a17c1461011d575b600080fd5b6100a961021f565b005b6100b3610570565b005b3480156100c157600080fd5b506100dc60048036036100d7919081019061156b565b6109c0565b6040516100e991906117fa565b60405180910390f35b3480156100fe57600080fd5b506101076109fc565b6040516101149190611910565b60405180910390f35b34801561012957600080fd5b50610132610a02565b60405161013f9190611910565b60405180910390f35b34801561015457600080fd5b5061015d610a08565b60405161016a9190611910565b60405180910390f35b61017b610a0e565b005b34801561018957600080fd5b506101a4600480360361019f9190810190611542565b610efd565b6040516101b69695949392919061192b565b60405180910390f35b3480156101cb57600080fd5b506101d4610f9a565b6040516101e19190611910565b60405180910390f35b6101f2610fa0565b005b34801561020057600080fd5b50610209611373565b6040516102169190611815565b60405180910390f35b6000600281111561022c57fe5b600c60009054906101000a900460ff16600281111561024757fe5b1480156102595750603c600954014210155b15610283576001600c60006101000a81548160ff0219169083600281111561027d57fe5b02179055505b6001600281111561029057fe5b600c60009054906101000a900460ff1660028111156102ab57fe5b1480156102c65750603c8060045402603c6009540101014210155b156102f0576002600c60006101000a81548160ff021916908360028111156102ea57fe5b02179055505b600115156000803373ffffffffffffffffffffffffffffffffffffffff1673ffffffffffffffffffffffffffffffffffffffff16815260200190815260200160002060000160179054906101000a900460ff16151514610385576040517f08c379a000000000000000000000000000000000000000000000000000000000815260040161037c90611830565b60405180910390fd5b6002543410156103ca576040517f08c379a00000000000000000000000000000000000000000000000000000000081526004016103c1906118b0565b60405180910390fd5b60018060028111156103d857fe5b600c60009054906101000a900460ff1660028111156103f357fe5b146103fd57600080fd5b600015156000803373ffffffffffffffffffffffffffffffffffffffff1673ffffffffffffffffffffffffffffffffffffffff16815260200190815260200160002060000160169054906101000a900460ff16151514610492576040517f08c379a000000000000000000000000000000000000000000000000000000000815260040161048990611890565b60405180910390fd5b603c60085402603c60095401014211156104e1576040517f08c379a00000000000000000000000000000000000000000000000000000000081526004016104d8906118d0565b60405180910390fd5b34600a5401600a8190555060016000803373ffffffffffffffffffffffffffffffffffffffff1673ffffffffffffffffffffffffffffffffffffffff16815260200190815260200160002060000160166101000a81548160ff021916908315150217905550600760008154809291906001019190505550600454600754141561056d5760006007819055505b50565b6000600281111561057d57fe5b600c60009054906101000a900460ff16600281111561059857fe5b1480156105aa5750603c600954014210155b156105d4576001600c60006101000a81548160ff021916908360028111156105ce57fe5b02179055505b600160028111156105e157fe5b600c60009054906101000a900460ff1660028111156105fc57fe5b1480156106175750603c8060045402603c6009540101014210155b15610641576002600c60006101000a81548160ff0219169083600281111561063b57fe5b02179055505b600254341015610686576040517f08c379a000000000000000000000000000000000000000000000000000000000815260040161067d906118b0565b60405180910390fd5b600080600281111561069457fe5b600c60009054906101000a900460ff1660028111156106af57fe5b146106b957600080fd5b600454600560009054906101000a900460ff1660ff161061070f576040517f08c379a000000000000000000000000000000000000000000000000000000000815260040161070690611870565b60405180910390fd5b6005600081819054906101000a900460ff168092919060010191906101000a81548160ff021916908360ff160217905550506040518060c00160405280600560009054906101000a900460ff1660ff1681526020013373ffffffffffffffffffffffffffffffffffffffff168152602001600015158152602001600015158152602001600115158152602001600015158152506000803373ffffffffffffffffffffffffffffffffffffffff1673ffffffffffffffffffffffffffffffffffffffff16815260200190815260200160002060008201518160000160006101000a81548160ff021916908360ff16021790555060208201518160000160016101000a81548173ffffffffffffffffffffffffffffffffffffffff021916908373ffffffffffffffffffffffffffffffffffffffff16021790555060408201518160000160156101000a81548160ff02191690831515021790555060608201518160000160166101000a81548160ff02191690831515021790555060808201518160000160176101000a81548160ff02191690831515021790555060a08201518160000160186101000a81548160ff021916908315150217905550905050600d3390806001815401808255809150509060018203906000526020600020016000909192909190916101000a81548173ffffffffffffffffffffffffffffffffffffffff021916908373ffffffffffffffffffffffffffffffffffffffff1602179055505034600b5401600b8190555060016000803373ffffffffffffffffffffffffffffffffffffffff1673ffffffffffffffffffffffffffffffffffffffff16815260200190815260200160002060000160156101000a81548160ff02191690831515021790555060066000815480929190600101919050555060045460065414156109bd5760006006819055505b50565b600d81815481106109cd57fe5b906000526020600020016000915054906101000a900473ffffffffffffffffffffffffffffffffffffffff1681565b60045481565b600a5481565b60085481565b60006002811115610a1b57fe5b600c60009054906101000a900460ff166002811115610a3657fe5b148015610a485750603c600954014210155b15610a72576001600c60006101000a81548160ff02191690836002811115610a6c57fe5b02179055505b60016002811115610a7f57fe5b600c60009054906101000a900460ff166002811115610a9a57fe5b148015610ab55750603c8060045402603c6009540101014210155b15610adf576002600c60006101000a81548160ff02191690836002811115610ad957fe5b02179055505b600115156000803373ffffffffffffffffffffffffffffffffffffffff1673ffffffffffffffffffffffffffffffffffffffff16815260200190815260200160002060000160179054906101000a900460ff16151514610b74576040517f08c379a0000000000000000000000000000000000000000000000000000000008152600401610b6b90611830565b60405180910390fd5b600d60016008540381548110610b8657fe5b9060005260206000200160009054906101000a900473ffffffffffffffffffffffffffffffffffffffff1673ffffffffffffffffffffffffffffffffffffffff163373ffffffffffffffffffffffffffffffffffffffff1614610c1e576040517f08c379a0000000000000000000000000000000000000000000000000000000008152600401610c15906118f0565b60405180910390fd5b6001806002811115610c2c57fe5b600c60009054906101000a900460ff166002811115610c4757fe5b14610c5157600080fd5b60035460045402600a5414610daa5760008090505b6004548160ff161015610da8576000600d8260ff1681548110610c8557fe5b9060005260206000200160009054906101000a900473ffffffffffffffffffffffffffffffffffffffff169050603c60085402603c60095401014210158015610d205750600015156000808373ffffffffffffffffffffffffffffffffffffffff1673ffffffffffffffffffffffffffffffffffffffff16815260200190815260200160002060000160169054906101000a900460ff161515145b15610d9a5760016000808373ffffffffffffffffffffffffffffffffffffffff1673ffffffffffffffffffffffffffffffffffffffff16815260200190815260200160002060000160186101000a81548160ff021916908315150217905550600354600a5401600a81905550600354600b5403600b819055505b508080600101915050610c66565b505b60035460045402600a5414610df4576040517f08c379a0000000000000000000000000000000000000000000000000000000008152600401610deb90611850565b60405180910390fd5b6000600d60016008540381548110610e0857fe5b9060005260206000200160009054906101000a900473ffffffffffffffffffffffffffffffffffffffff1690506000808273ffffffffffffffffffffffffffffffffffffffff1673ffffffffffffffffffffffffffffffffffffffff16815260200190815260200160002060000160019054906101000a900473ffffffffffffffffffffffffffffffffffffffff1673ffffffffffffffffffffffffffffffffffffffff166108fc600a549081150290604051600060405180830381858888f19350505050158015610ede573d6000803e3d6000fd5b50600860008154809291906001019190505550610ef9611386565b5050565b60006020528060005260406000206000915090508060000160009054906101000a900460ff16908060000160019054906101000a900473ffffffffffffffffffffffffffffffffffffffff16908060000160159054906101000a900460ff16908060000160169054906101000a900460ff16908060000160179054906101000a900460ff16908060000160189054906101000a900460ff16905086565b600b5481565b60006002811115610fad57fe5b600c60009054906101000a900460ff166002811115610fc857fe5b148015610fda5750603c600954014210155b15611004576001600c60006101000a81548160ff02191690836002811115610ffe57fe5b02179055505b6001600281111561101157fe5b600c60009054906101000a900460ff16600281111561102c57fe5b1480156110475750603c8060045402603c6009540101014210155b15611071576002600c60006101000a81548160ff0219169083600281111561106b57fe5b02179055505b600280600281111561107f57fe5b600c60009054906101000a900460ff16600281111561109a57fe5b146110a457600080fd5b60008090505b6004548160ff1610156112c1576000600d8260ff16815481106110c957fe5b9060005260206000200160009054906101000a900473ffffffffffffffffffffffffffffffffffffffff16905060008060008373ffffffffffffffffffffffffffffffffffffffff1673ffffffffffffffffffffffffffffffffffffffff16815260200190815260200160002060000160156101000a81548160ff02191690831515021790555060008060008373ffffffffffffffffffffffffffffffffffffffff1673ffffffffffffffffffffffffffffffffffffffff16815260200190815260200160002060000160176101000a81548160ff02191690831515021790555060008060008373ffffffffffffffffffffffffffffffffffffffff1673ffffffffffffffffffffffffffffffffffffffff16815260200190815260200160002060000160186101000a81548160ff0219169083151502179055156112b3576000808273ffffffffffffffffffffffffffffffffffffffff1673ffffffffffffffffffffffffffffffffffffffff16815260200190815260200160002060000160019054906101000a900473ffffffffffffffffffffffffffffffffffffffff1673ffffffffffffffffffffffffffffffffffffffff166108fc6002549081150290604051600060405180830381858888f193505050501580156112b1573d6000803e3d6000fd5b505b5080806001019150506110aa565b506000600b8190555060006006819055506000600560006101000a81548160ff021916908360ff160217905550600060405190808252806020026020018201604052801561131e5781602001602082028038833980820191505090505b50600d908051906020019061133492919061144b565b506000600c60006101000a81548160ff0219169083600281111561135457fe5b02179055506000600a8190555060016008819055504260098190555050565b600c60009054906101000a900460ff1681565b60008090505b6004548160ff161015611440576000600d8260ff16815481106113ab57fe5b9060005260206000200160009054906101000a900473ffffffffffffffffffffffffffffffffffffffff16905060008060008373ffffffffffffffffffffffffffffffffffffffff1673ffffffffffffffffffffffffffffffffffffffff16815260200190815260200160002060000160166101000a81548160ff02191690831515021790555050808060010191505061138c565b506000600a81905550565b8280548282559060005260206000209081019282156114c4579160200282015b828111156114c35782518260006101000a81548173ffffffffffffffffffffffffffffffffffffffff021916908373ffffffffffffffffffffffffffffffffffffffff1602179055509160200191906001019061146b565b5b5090506114d191906114d5565b5090565b61151591905b8082111561151157600081816101000a81549073ffffffffffffffffffffffffffffffffffffffff0219169055506001016114db565b5090565b90565b60008135905061152781611a36565b92915050565b60008135905061153c81611a4d565b92915050565b60006020828403121561155457600080fd5b600061156284828501611518565b91505092915050565b60006020828403121561157d57600080fd5b600061158b8482850161152d565b91505092915050565b61159d816119af565b82525050565b6115ac8161199d565b82525050565b6115bb816119c1565b82525050565b6115ca81611a17565b82525050565b60006115dd60158361198c565b91507f5573756172696f206e6f207265676973747261646f00000000000000000000006000830152602082019050919050565b600061161d602b8361198c565b91507f4573706572612061207175652074656e67616d6f7320656c206d6f6e746f206460008301527f652074752061686f72726f0000000000000000000000000000000000000000006020830152604082019050919050565b600061168360168361198c565b91507f456c20677275706f206573746120636f6d706c65746f000000000000000000006000830152602082019050919050565b60006116c360178361198c565b91507f59612061686f7272617374652065737465207475726e6f0000000000000000006000830152602082019050919050565b600061170360148361198c565b91507f466f6e646f7320496e737566696369656e7465730000000000000000000000006000830152602082019050919050565b6000611743600b8361198c565b91507f5061676f2074617264696f0000000000000000000000000000000000000000006000830152602082019050919050565b600061178360238361198c565b91507f44656265732065737065726172207475207475726e6f2070617261207265746960008301527f72617200000000000000000000000000000000000000000000000000000000006020830152604082019050919050565b6117e581611a00565b82525050565b6117f481611a0a565b82525050565b600060208201905061180f60008301846115a3565b92915050565b600060208201905061182a60008301846115c1565b92915050565b60006020820190508181036000830152611849816115d0565b9050919050565b6000602082019050818103600083015261186981611610565b9050919050565b6000602082019050818103600083015261188981611676565b9050919050565b600060208201905081810360008301526118a9816116b6565b9050919050565b600060208201905081810360008301526118c9816116f6565b9050919050565b600060208201905081810360008301526118e981611736565b9050919050565b6000602082019050818103600083015261190981611776565b9050919050565b600060208201905061192560008301846117dc565b92915050565b600060c08201905061194060008301896117eb565b61194d6020830188611594565b61195a60408301876115b2565b61196760608301866115b2565b61197460808301856115b2565b61198160a08301846115b2565b979650505050505050565b600082825260208201905092915050565b60006119a8826119e0565b9050919050565b60006119ba826119e0565b9050919050565b60008115159050919050565b60008190506119db82611a29565b919050565b600073ffffffffffffffffffffffffffffffffffffffff82169050919050565b6000819050919050565b600060ff82169050919050565b6000611a22826119cd565b9050919050565b60038110611a3357fe5b50565b611a3f8161199d565b8114611a4a57600080fd5b50565b611a5681611a00565b8114611a6157600080fd5b5056fea265627a7a72305820e175fca6e9d2a7a15a25804fb7388e91a3788157851eeea1a863b8e6ab8f6b9a6c6578706572696d656e74616cf50037",
  "source": "pragma solidity >=0.4.22 <0.7.0;\npragma experimental ABIEncoderV2;\n\ncontract GroupsTime {\n\n    enum Stages {   //Stages of the round\n        setup,      //register and receive the initial cash in\n        save,     //receive payments\n        finished  //Cash in is sent to the users\n    }\n\n    struct User {   //Information from each user\n        uint8 userId;\n        address payable userAddr;\n        bool cashInFlag;\n        bool saveAmountFlag;\n        bool currentRoundFlag;   //defines if the user is participating in the current round\n        bool latePaymentFlag;\n    }\n\n    mapping(address => User) public users;\n\n\n    address payable admin;   //The user that deploy the contract is the administrator\n\n    //Constructor deployment variables\n    uint cashIn;        //amount to be payed as commitment at the begining of the saving circle\n    uint saveAmount; //Payment on each round/cycle\n    uint public groupSize; //Number of slots for users to participate on the saving circle\n\n    //Counters and flags\n    uint8 usersCounter = 0;\n    uint CashInPayeesCount = 0;     //Comitment payments counter\n    uint saveAmountPayeesCount = 0;  //Payments done in round counter\n    uint public turn = 1;   //Current cycle/round in the saving circle\n    uint creationTime;\n\n    uint public totalSaveAmount = 0;  //Collective saving on the round\n    uint public totalCashIn = 0;\n\n    Stages public stage;\n\n    address[] public addressOrderList;\n\n    modifier isUsersTurn() {    //Verifies if it is the users round to widraw\n        require(msg.sender == addressOrderList[turn-1], \"Debes esperar tu turno para retirar\");\n        _;\n    }\n    \n    modifier isRegisteredUser() {    //Verifies if it is the users round to widraw\n        require(users[msg.sender].currentRoundFlag == true, \"Usuario no registrado\");\n        _;\n    }\n    \n    modifier isPayAmountCorrect() {    //Verifies if it is the users round to widraw\n        require(msg.value >= cashIn, 'Fondos Insuficientes');\n        _;\n    }\n    \n    modifier atStage(Stages _stage) {\n        require(stage == _stage);\n        _;\n    }\n    \n    modifier timedTransitions() {\n        if (stage == Stages.setup && now >= creationTime + 1 minutes)\n            stage = Stages.save;\n        if (stage == Stages.save && now >= creationTime + 1 minutes + groupSize*60 + 1 minutes)\n            stage=Stages.finished;\n        _;\n    }\n\n    constructor(uint _cashIn, uint _saveAmount, uint8 _groupSize) public {\n        admin = msg.sender;\n        cashIn = _cashIn;\n        saveAmount = _saveAmount;\n        groupSize = _groupSize;\n        stage = Stages.setup;\n        creationTime=now;\n    }\n\n    function registerUser() public timedTransitions isPayAmountCorrect atStage(Stages.setup) payable{\n        require(usersCounter < groupSize, \"El grupo esta completo\");    //the saving circle is full\n        usersCounter++;\n        users[msg.sender] = User(usersCounter, msg.sender, false, false, true, false);\n        addressOrderList.push(msg.sender);  //store user\n        totalCashIn = totalCashIn + msg.value;\n        users[msg.sender].cashInFlag = true;\n        CashInPayeesCount++;\n        if (CashInPayeesCount == groupSize){\n            CashInPayeesCount = 0;\n        }\n    }\n\n    function payTurn() public timedTransitions isRegisteredUser isPayAmountCorrect atStage(Stages.save) payable {    //users make the payment for the cycle\n        require(users[msg.sender].saveAmountFlag == false, \"Ya ahorraste este turno\");  //you have already saved this round\n        require(now <= creationTime + 1 minutes + turn*60 , 'Pago tardio');\n        totalSaveAmount = totalSaveAmount + msg.value;\n        users[msg.sender].saveAmountFlag = true;\n        saveAmountPayeesCount++;\n        if (saveAmountPayeesCount == groupSize){\n            saveAmountPayeesCount = 0;\n        }\n    }\n\n    function WithdrawTurn() payable timedTransitions isRegisteredUser isUsersTurn atStage(Stages.save) public {   //User assigned to the round can widraw\n        \n        if(totalSaveAmount != groupSize*saveAmount){\n            for(uint8 i = 0; i<groupSize; i++){\n                address useraddress = addressOrderList[i];\n                if(now >= creationTime + 1 minutes + turn*60 && users[useraddress].saveAmountFlag == false){\n                    users[useraddress].latePaymentFlag = true;\n                    totalSaveAmount = totalSaveAmount + saveAmount;\n                    totalCashIn = totalCashIn - saveAmount;\n                }\n            }\n        }\n        require(totalSaveAmount==groupSize*saveAmount, \"Espera a que tengamos el monto de tu ahorro\");     //Se debe estar en fase de pago\n        address addressUserInTurn = addressOrderList[turn-1];\n        users[addressUserInTurn].userAddr.transfer(totalSaveAmount);\n        turn++;\n        newTurn();\n    }\n\n\n    function newTurn() private{    //repeats the save and pay stages according to the saving circle size\n        for(uint8 i = 0; i<groupSize; i++){\n            address useraddress = addressOrderList[i];\n            users[useraddress].saveAmountFlag = false;\n        }\n        totalSaveAmount = 0;\n    }\n\n\n    function withdrawCashIn() payable timedTransitions public atStage(Stages.finished){  //When all the rounds are done the admin sends the cash in to the users\n        for(uint8 i = 0; i<groupSize; i++){\n            address useraddress = addressOrderList[i];\n            users[useraddress].cashInFlag = false;\n            users[useraddress].currentRoundFlag = false;\n            if (users[useraddress].latePaymentFlag = false){\n            users[useraddress].userAddr.transfer(cashIn);\n            }\n        }\n        totalCashIn=0;\n        CashInPayeesCount = 0;\n        usersCounter = 0;\n        addressOrderList = new address[](0);\n        stage = Stages.setup;\n        totalSaveAmount = 0;\n        turn=1;\n        creationTime=now;\n    }\n}\n",
  "sourcePath": "/Users/federico/Desktop/bbvaHack/bloinx/contracts/GroupsTime.sol",
  "compiler": {
    "name": "solc",
    "version": "0.5.8+commit.23d335f2.Emscripten.clang"
  },
  "schemaVersion": "3.0.15",
  "updatedAt": "2020-09-21T02:46:15.836Z",
  "devdoc": {
    "methods": {}
  },
  "userdoc": {
    "methods": {}
  }
}