{
  "contractName": "GroupsTime",
  "abi": [
    {
      "constant": true,
      "inputs": [
        {
          "name": "",
          "type": "uint256"
        }
      ],
      "name": "addressOrderList",
      "outputs": [
        {
          "name": "",
          "type": "address"
        }
      ],
      "payable": false,
      "stateMutability": "view",
      "type": "function"
    },
    {
      "constant": true,
      "inputs": [],
      "name": "groupSize",
      "outputs": [
        {
          "name": "",
          "type": "uint256"
        }
      ],
      "payable": false,
      "stateMutability": "view",
      "type": "function"
    },
    {
      "constant": true,
      "inputs": [],
      "name": "totalSaveAmount",
      "outputs": [
        {
          "name": "",
          "type": "uint256"
        }
      ],
      "payable": false,
      "stateMutability": "view",
      "type": "function"
    },
    {
      "constant": true,
      "inputs": [],
      "name": "turn",
      "outputs": [
        {
          "name": "",
          "type": "uint256"
        }
      ],
      "payable": false,
      "stateMutability": "view",
      "type": "function"
    },
    {
      "constant": true,
      "inputs": [
        {
          "name": "",
          "type": "address"
        }
      ],
      "name": "users",
      "outputs": [
        {
          "name": "userId",
          "type": "uint8"
        },
        {
          "name": "userAddr",
          "type": "address"
        },
        {
          "name": "cashInFlag",
          "type": "bool"
        },
        {
          "name": "saveAmountFlag",
          "type": "bool"
        },
        {
          "name": "currentRoundFlag",
          "type": "bool"
        },
        {
          "name": "latePaymentFlag",
          "type": "bool"
        }
      ],
      "payable": false,
      "stateMutability": "view",
      "type": "function"
    },
    {
      "constant": true,
      "inputs": [],
      "name": "totalCashIn",
      "outputs": [
        {
          "name": "",
          "type": "uint256"
        }
      ],
      "payable": false,
      "stateMutability": "view",
      "type": "function"
    },
    {
      "constant": true,
      "inputs": [],
      "name": "stage",
      "outputs": [
        {
          "name": "",
          "type": "uint8"
        }
      ],
      "payable": false,
      "stateMutability": "view",
      "type": "function"
    },
    {
      "constant": true,
      "inputs": [],
      "name": "admin",
      "outputs": [
        {
          "name": "",
          "type": "address"
        }
      ],
      "payable": false,
      "stateMutability": "view",
      "type": "function"
    },
    {
      "inputs": [
        {
          "name": "_cashIn",
          "type": "uint256"
        },
        {
          "name": "_saveAmount",
          "type": "uint256"
        },
        {
          "name": "_groupSize",
          "type": "uint8"
        }
      ],
      "payable": false,
      "stateMutability": "nonpayable",
      "type": "constructor"
    },
    {
      "constant": false,
      "inputs": [],
      "name": "registerUser",
      "outputs": [],
      "payable": true,
      "stateMutability": "payable",
      "type": "function"
    },
    {
      "constant": false,
      "inputs": [],
      "name": "payTurn",
      "outputs": [],
      "payable": true,
      "stateMutability": "payable",
      "type": "function"
    },
    {
      "constant": false,
      "inputs": [],
      "name": "withdrawTurn",
      "outputs": [],
      "payable": true,
      "stateMutability": "payable",
      "type": "function"
    },
    {
      "constant": false,
      "inputs": [],
      "name": "withdrawCashIn",
      "outputs": [],
      "payable": true,
      "stateMutability": "payable",
      "type": "function"
    }
  ],
  "bytecode": "0x60806040526000600560006101000a81548160ff021916908360ff1602179055506000600655600060075560016008556000600a556000600b553480156200004657600080fd5b5060405160608062001ceb833981018060405262000068919081019062000138565b33600160006101000a81548173ffffffffffffffffffffffffffffffffffffffff021916908373ffffffffffffffffffffffffffffffffffffffff16021790555067016345785d8a0000830260028190555067016345785d8a000082026003819055508060ff166004819055506000600d60006101000a81548160ff02191690836002811115620000f557fe5b021790555042600981905550505050620001d9565b6000815190506200011b81620001a5565b92915050565b6000815190506200013281620001bf565b92915050565b6000806000606084860312156200014e57600080fd5b60006200015e868287016200010a565b935050602062000171868287016200010a565b9250506040620001848682870162000121565b9150509250925092565b6000819050919050565b600060ff82169050919050565b620001b0816200018e565b8114620001bc57600080fd5b50565b620001ca8162000198565b8114620001d657600080fd5b50565b611b0280620001e96000396000f3fe6080604052600436106100a75760003560e01c80638b299903116100645780638b2999031461015d578063a87430ba14610188578063b4bde59e146101ca578063b6a26cab146101f5578063c040e6b8146101ff578063f851a4401461022a576100a7565b8063193e76c7146100ac57806330fceb6c146100b65780634d3820eb146100c05780635394dda8146100ca57806363b635ea1461010757806364f9a17c14610132575b600080fd5b6100b4610255565b005b6100be610557565b005b6100c8610a7b565b005b3480156100d657600080fd5b506100f160048036036100ec919081019061158e565b610eef565b6040516100fe9190611843565b60405180910390f35b34801561011357600080fd5b5061011c610f2b565b6040516101299190611974565b60405180910390f35b34801561013e57600080fd5b50610147610f31565b6040516101549190611974565b60405180910390f35b34801561016957600080fd5b50610172610f37565b60405161017f9190611974565b60405180910390f35b34801561019457600080fd5b506101af60048036036101aa9190810190611565565b610f3d565b6040516101c19695949392919061198f565b60405180910390f35b3480156101d657600080fd5b506101df610fda565b6040516101ec9190611974565b60405180910390f35b6101fd610fe0565b005b34801561020b57600080fd5b50610214611370565b6040516102219190611879565b60405180910390f35b34801561023657600080fd5b5061023f611383565b60405161024c919061185e565b60405180910390f35b600115156000803373ffffffffffffffffffffffffffffffffffffffff1673ffffffffffffffffffffffffffffffffffffffff16815260200190815260200160002060000160179054906101000a900460ff161515146102ea576040517f08c379a00000000000000000000000000000000000000000000000000000000081526004016102e1906118b4565b60405180910390fd5b60025434101561032f576040517f08c379a000000000000000000000000000000000000000000000000000000000815260040161032690611934565b60405180910390fd5b600180600281111561033d57fe5b600d60009054906101000a900460ff16600281111561035857fe5b1461036257600080fd5b6000600281111561036f57fe5b600d60009054906101000a900460ff16600281111561038a57fe5b14801561039c575060b4600954014210155b156103c6576001600d60006101000a81548160ff021916908360028111156103c057fe5b02179055505b600160028111156103d357fe5b600d60009054906101000a900460ff1660028111156103ee57fe5b1480156104095750603c806004540260b46009540101014210155b15610433576002600d60006101000a81548160ff0219169083600281111561042d57fe5b02179055505b600015156000803373ffffffffffffffffffffffffffffffffffffffff1673ffffffffffffffffffffffffffffffffffffffff16815260200190815260200160002060000160169054906101000a900460ff161515146104c8576040517f08c379a00000000000000000000000000000000000000000000000000000000081526004016104bf90611914565b60405180910390fd5b34600a5401600a8190555060016000803373ffffffffffffffffffffffffffffffffffffffff1673ffffffffffffffffffffffffffffffffffffffff16815260200190815260200160002060000160166101000a81548160ff02191690831515021790555060076000815480929190600101919050555060045460075414156105545760006007819055505b50565b600115156000803373ffffffffffffffffffffffffffffffffffffffff1673ffffffffffffffffffffffffffffffffffffffff16815260200190815260200160002060000160179054906101000a900460ff161515146105ec576040517f08c379a00000000000000000000000000000000000000000000000000000000081526004016105e3906118b4565b60405180910390fd5b600c600160085403815481106105fe57fe5b9060005260206000200160009054906101000a900473ffffffffffffffffffffffffffffffffffffffff1673ffffffffffffffffffffffffffffffffffffffff163373ffffffffffffffffffffffffffffffffffffffff1614610696576040517f08c379a000000000000000000000000000000000000000000000000000000000815260040161068d90611954565b60405180910390fd5b60018060028111156106a457fe5b600d60009054906101000a900460ff1660028111156106bf57fe5b146106c957600080fd5b600060028111156106d657fe5b600d60009054906101000a900460ff1660028111156106f157fe5b148015610703575060b4600954014210155b1561072d576001600d60006101000a81548160ff0219169083600281111561072757fe5b02179055505b6001600281111561073a57fe5b600d60009054906101000a900460ff16600281111561075557fe5b1480156107705750603c806004540260b46009540101014210155b1561079a576002600d60006101000a81548160ff0219169083600281111561079457fe5b02179055505b60035460045402600a54146108f35760008090505b6004548160ff1610156108f1576000600c8260ff16815481106107ce57fe5b9060005260206000200160009054906101000a900473ffffffffffffffffffffffffffffffffffffffff169050603c60085402603c600954010142101580156108695750600015156000808373ffffffffffffffffffffffffffffffffffffffff1673ffffffffffffffffffffffffffffffffffffffff16815260200190815260200160002060000160169054906101000a900460ff161515145b156108e35760016000808373ffffffffffffffffffffffffffffffffffffffff1673ffffffffffffffffffffffffffffffffffffffff16815260200190815260200160002060000160186101000a81548160ff021916908315150217905550600354600a5401600a81905550600354600b5403600b819055505b5080806001019150506107af565b505b60035460045402600a541461093d576040517f08c379a0000000000000000000000000000000000000000000000000000000008152600401610934906118d4565b60405180910390fd5b6000600c6001600854038154811061095157fe5b9060005260206000200160009054906101000a900473ffffffffffffffffffffffffffffffffffffffff1690506000808273ffffffffffffffffffffffffffffffffffffffff1673ffffffffffffffffffffffffffffffffffffffff16815260200190815260200160002060000160019054906101000a900473ffffffffffffffffffffffffffffffffffffffff1673ffffffffffffffffffffffffffffffffffffffff166108fc600a549081150290604051600060405180830381858888f19350505050158015610a27573d6000803e3d6000fd5b5060045460085410610a5c576002600d60006101000a81548160ff02191690836002811115610a5257fe5b0217905550610a65565b610a646113a9565b5b6008600081548092919060010191905055505050565b600254341015610ac0576040517f08c379a0000000000000000000000000000000000000000000000000000000008152600401610ab790611934565b60405180910390fd5b6000806002811115610ace57fe5b600d60009054906101000a900460ff166002811115610ae957fe5b14610af357600080fd5b60006002811115610b0057fe5b600d60009054906101000a900460ff166002811115610b1b57fe5b148015610b2d575060b4600954014210155b15610b57576001600d60006101000a81548160ff02191690836002811115610b5157fe5b02179055505b60016002811115610b6457fe5b600d60009054906101000a900460ff166002811115610b7f57fe5b148015610b9a5750603c806004540260b46009540101014210155b15610bc4576002600d60006101000a81548160ff02191690836002811115610bbe57fe5b02179055505b600454600560009054906101000a900460ff1660ff1610610c1a576040517f08c379a0000000000000000000000000000000000000000000000000000000008152600401610c11906118f4565b60405180910390fd5b6005600081819054906101000a900460ff168092919060010191906101000a81548160ff021916908360ff160217905550506040518060c00160405280600560009054906101000a900460ff1660ff1681526020013373ffffffffffffffffffffffffffffffffffffffff168152602001600015158152602001600015158152602001600115158152602001600015158152506000803373ffffffffffffffffffffffffffffffffffffffff1673ffffffffffffffffffffffffffffffffffffffff16815260200190815260200160002060008201518160000160006101000a81548160ff021916908360ff16021790555060208201518160000160016101000a81548173ffffffffffffffffffffffffffffffffffffffff021916908373ffffffffffffffffffffffffffffffffffffffff16021790555060408201518160000160156101000a81548160ff02191690831515021790555060608201518160000160166101000a81548160ff02191690831515021790555060808201518160000160176101000a81548160ff02191690831515021790555060a08201518160000160186101000a81548160ff021916908315150217905550905050600c3390806001815401808255809150509060018203906000526020600020016000909192909190916101000a81548173ffffffffffffffffffffffffffffffffffffffff021916908373ffffffffffffffffffffffffffffffffffffffff1602179055505034600b5401600b8190555060016000803373ffffffffffffffffffffffffffffffffffffffff1673ffffffffffffffffffffffffffffffffffffffff16815260200190815260200160002060000160156101000a81548160ff0219169083151502179055506006600081548092919060010191905055506004546006541415610eec5760006006819055506001600d60006101000a81548160ff02191690836002811115610ee657fe5b02179055505b50565b600c8181548110610efc57fe5b906000526020600020016000915054906101000a900473ffffffffffffffffffffffffffffffffffffffff1681565b60045481565b600a5481565b60085481565b60006020528060005260406000206000915090508060000160009054906101000a900460ff16908060000160019054906101000a900473ffffffffffffffffffffffffffffffffffffffff16908060000160159054906101000a900460ff16908060000160169054906101000a900460ff16908060000160179054906101000a900460ff16908060000160189054906101000a900460ff16905086565b600b5481565b6002806002811115610fee57fe5b600d60009054906101000a900460ff16600281111561100957fe5b1461101357600080fd5b600160009054906101000a900473ffffffffffffffffffffffffffffffffffffffff1673ffffffffffffffffffffffffffffffffffffffff163373ffffffffffffffffffffffffffffffffffffffff16146110a3576040517f08c379a000000000000000000000000000000000000000000000000000000000815260040161109a90611894565b60405180910390fd5b60008090505b6004548160ff1610156112bd576000600c8260ff16815481106110c857fe5b9060005260206000200160009054906101000a900473ffffffffffffffffffffffffffffffffffffffff16905060008060008373ffffffffffffffffffffffffffffffffffffffff1673ffffffffffffffffffffffffffffffffffffffff16815260200190815260200160002060000160156101000a81548160ff02191690831515021790555060008060008373ffffffffffffffffffffffffffffffffffffffff1673ffffffffffffffffffffffffffffffffffffffff16815260200190815260200160002060000160176101000a81548160ff021916908315150217905550600015156000808373ffffffffffffffffffffffffffffffffffffffff1673ffffffffffffffffffffffffffffffffffffffff16815260200190815260200160002060000160189054906101000a900460ff16151514156112af576000808273ffffffffffffffffffffffffffffffffffffffff1673ffffffffffffffffffffffffffffffffffffffff16815260200190815260200160002060000160019054906101000a900473ffffffffffffffffffffffffffffffffffffffff1673ffffffffffffffffffffffffffffffffffffffff166108fc6002549081150290604051600060405180830381858888f193505050501580156112ad573d6000803e3d6000fd5b505b5080806001019150506110a9565b506000600b8190555060006006819055506000600560006101000a81548160ff021916908360ff160217905550600060405190808252806020026020018201604052801561131a5781602001602082028038833980820191505090505b50600c908051906020019061133092919061146e565b506000600d60006101000a81548160ff0219169083600281111561135057fe5b02179055506000600a819055506001600881905550600060098190555050565b600d60009054906101000a900460ff1681565b600160009054906101000a900473ffffffffffffffffffffffffffffffffffffffff1681565b60008090505b6004548160ff161015611463576000600c8260ff16815481106113ce57fe5b9060005260206000200160009054906101000a900473ffffffffffffffffffffffffffffffffffffffff16905060008060008373ffffffffffffffffffffffffffffffffffffffff1673ffffffffffffffffffffffffffffffffffffffff16815260200190815260200160002060000160166101000a81548160ff0219169083151502179055505080806001019150506113af565b506000600a81905550565b8280548282559060005260206000209081019282156114e7579160200282015b828111156114e65782518260006101000a81548173ffffffffffffffffffffffffffffffffffffffff021916908373ffffffffffffffffffffffffffffffffffffffff1602179055509160200191906001019061148e565b5b5090506114f491906114f8565b5090565b61153891905b8082111561153457600081816101000a81549073ffffffffffffffffffffffffffffffffffffffff0219169055506001016114fe565b5090565b90565b60008135905061154a81611a9a565b92915050565b60008135905061155f81611ab1565b92915050565b60006020828403121561157757600080fd5b60006115858482850161153b565b91505092915050565b6000602082840312156115a057600080fd5b60006115ae84828501611550565b91505092915050565b6115c081611a13565b82525050565b6115cf81611a01565b82525050565b6115de81611a25565b82525050565b6115ed81611a7b565b82525050565b60006116006025836119f0565b91507f536f6c6f20656c2061646d696e207075656465206c6c616d6172206c6120667560008301527f6e63696f6e0000000000000000000000000000000000000000000000000000006020830152604082019050919050565b60006116666015836119f0565b91507f5573756172696f206e6f207265676973747261646f00000000000000000000006000830152602082019050919050565b60006116a6602b836119f0565b91507f4573706572612061207175652074656e67616d6f7320656c206d6f6e746f206460008301527f652074752061686f72726f0000000000000000000000000000000000000000006020830152604082019050919050565b600061170c6016836119f0565b91507f456c20677275706f206573746120636f6d706c65746f000000000000000000006000830152602082019050919050565b600061174c6017836119f0565b91507f59612061686f7272617374652065737465207475726e6f0000000000000000006000830152602082019050919050565b600061178c6014836119f0565b91507f466f6e646f7320496e737566696369656e7465730000000000000000000000006000830152602082019050919050565b60006117cc6023836119f0565b91507f44656265732065737065726172207475207475726e6f2070617261207265746960008301527f72617200000000000000000000000000000000000000000000000000000000006020830152604082019050919050565b61182e81611a64565b82525050565b61183d81611a6e565b82525050565b600060208201905061185860008301846115c6565b92915050565b600060208201905061187360008301846115b7565b92915050565b600060208201905061188e60008301846115e4565b92915050565b600060208201905081810360008301526118ad816115f3565b9050919050565b600060208201905081810360008301526118cd81611659565b9050919050565b600060208201905081810360008301526118ed81611699565b9050919050565b6000602082019050818103600083015261190d816116ff565b9050919050565b6000602082019050818103600083015261192d8161173f565b9050919050565b6000602082019050818103600083015261194d8161177f565b9050919050565b6000602082019050818103600083015261196d816117bf565b9050919050565b60006020820190506119896000830184611825565b92915050565b600060c0820190506119a46000830189611834565b6119b160208301886115b7565b6119be60408301876115d5565b6119cb60608301866115d5565b6119d860808301856115d5565b6119e560a08301846115d5565b979650505050505050565b600082825260208201905092915050565b6000611a0c82611a44565b9050919050565b6000611a1e82611a44565b9050919050565b60008115159050919050565b6000819050611a3f82611a8d565b919050565b600073ffffffffffffffffffffffffffffffffffffffff82169050919050565b6000819050919050565b600060ff82169050919050565b6000611a8682611a31565b9050919050565b60038110611a9757fe5b50565b611aa381611a01565b8114611aae57600080fd5b50565b611aba81611a64565b8114611ac557600080fd5b5056fea265627a7a72305820608228eec78c37e8a541e060bbc2911ea54b9da146d7b69a272c5d8ae9726b6d6c6578706572696d656e74616cf50037",
  "source": "pragma solidity >=0.4.22 <0.7.0;\npragma experimental ABIEncoderV2;\n\ncontract GroupsTime {\n    enum Stages {\n        //Stages of the round\n        Setup, //register and receive the initial cash in\n        Save, //receive payments\n        Finished //Cash in is sent to the users\n    }\n\n    struct User {\n        //Information from each user\n        uint8 userId;\n        address payable userAddr;\n        bool cashInFlag;\n        bool saveAmountFlag;\n        bool currentRoundFlag; //defines if the user is participating in the current round\n        bool latePaymentFlag;\n    }\n\n    mapping(address => User) public users;\n    address payable public admin; //The user that deploy the contract is the administrator\n\n    //Constructor deployment variables\n    uint256 cashIn; //amount to be payed as commitment at the begining of the saving circle\n    uint256 saveAmount; //Payment on each round/cycle\n    uint256 public groupSize; //Number of slots for users to participate on the saving circle\n\n    //Counters and flags\n    uint8 usersCounter = 0;\n    uint256 CashInPayeesCount = 0; //Comitment payments counter\n    uint256 saveAmountPayeesCount = 0; //Payments done in round counter\n    uint256 public turn = 1; //Current cycle/round in the saving circle\n    uint256 creationTime;\n    uint256 public totalSaveAmount = 0; //Collective saving on the round\n    uint256 public totalCashIn = 0;\n    address[] public addressOrderList;\n    Stages public stage;\n\n    constructor(\n        uint256 _cashIn,\n        uint256 _saveAmount,\n        uint8 _groupSize\n    ) public {\n        admin = msg.sender;\n        cashIn = _cashIn * 1e17;\n        saveAmount = _saveAmount * 1e17;\n        groupSize = _groupSize;\n        stage = Stages.Setup;\n        creationTime = now;\n    }\n\n    modifier isUsersTurn() {\n        //Verifies if it is the users round to widraw\n        require(\n            msg.sender == addressOrderList[turn - 1],\n            \"Debes esperar tu turno para retirar\"\n        );\n        _;\n    }\n\n    modifier isRegisteredUser() {\n        //Verifies if it is the users round to widraw\n        require(\n            users[msg.sender].currentRoundFlag == true,\n            \"Usuario no registrado\"\n        );\n        _;\n    }\n\n    modifier isPayAmountCorrect() {\n        //Verifies if it is the users round to widraw\n        require(msg.value >= cashIn, \"Fondos Insuficientes\");\n        _;\n    }\n\n    modifier atStage(Stages _stage) {\n        require(stage == _stage);\n        _;\n    }\n\n    modifier timedTransitions() {\n        if (stage == Stages.Setup && now >= creationTime + 3 minutes) {\n            stage = Stages.Save;\n        }\n        if (\n            stage == Stages.Save &&\n            now >= creationTime + 3 minutes + groupSize * 60 + 1 minutes\n        ) stage = Stages.Finished;\n        _;\n    }\n\n    modifier onlyAdmin() {\n        require(msg.sender == admin, \"Solo el admin puede llamar la funcion\");\n        _;\n    }\n\n    function registerUser()\n        public\n        payable\n        isPayAmountCorrect\n        atStage(Stages.Setup)\n        timedTransitions\n    {\n        require(usersCounter < groupSize, \"El grupo esta completo\"); //the saving circle is full\n        usersCounter++;\n        users[msg.sender] = User(\n            usersCounter,\n            msg.sender,\n            false,\n            false,\n            true,\n            false\n        );\n        addressOrderList.push(msg.sender); //store user\n        totalCashIn = totalCashIn + msg.value;\n        users[msg.sender].cashInFlag = true;\n        CashInPayeesCount++;\n        if (CashInPayeesCount == groupSize) {\n            CashInPayeesCount = 0;\n            stage = Stages.Save;\n        }\n    }\n\n    function payTurn()\n        public\n        payable\n        isRegisteredUser\n        isPayAmountCorrect\n        atStage(Stages.Save)\n        timedTransitions\n    {\n        //users make the payment for the cycle\n        require(\n            users[msg.sender].saveAmountFlag == false,\n            \"Ya ahorraste este turno\"\n        ); //you have already saved this round\n        // require(now <= creationTime + 2 minutes + turn * 60, \"Pago tardio\");\n        totalSaveAmount = totalSaveAmount + msg.value;\n        users[msg.sender].saveAmountFlag = true;\n        saveAmountPayeesCount++;\n        if (saveAmountPayeesCount == groupSize) {\n            saveAmountPayeesCount = 0;\n        }\n    }\n\n    function withdrawTurn()\n        public\n        payable\n        isRegisteredUser\n        isUsersTurn\n        atStage(Stages.Save)\n        timedTransitions\n    {\n        //User assigned to the round can widraw\n        if (totalSaveAmount != groupSize * saveAmount) {\n            for (uint8 i = 0; i < groupSize; i++) {\n                address useraddress = addressOrderList[i];\n                if (\n                    now >= creationTime + 1 minutes + turn * 60 &&\n                    users[useraddress].saveAmountFlag == false\n                ) {\n                    users[useraddress].latePaymentFlag = true;\n                    totalSaveAmount = totalSaveAmount + saveAmount;\n                    totalCashIn = totalCashIn - saveAmount;\n                }\n            }\n        }\n        require(\n            totalSaveAmount == groupSize * saveAmount,\n            \"Espera a que tengamos el monto de tu ahorro\"\n        ); //Se debe estar en fase de pago\n        address addressUserInTurn = addressOrderList[turn - 1];\n        users[addressUserInTurn].userAddr.transfer(totalSaveAmount);\n        if (turn >= groupSize) {\n            stage = Stages.Finished;\n        } else {\n            newTurn();\n        }\n        turn++;\n    }\n\n    function newTurn() private {\n        //repeats the save and pay stages according to the saving circle size\n        for (uint8 i = 0; i < groupSize; i++) {\n            address useraddress = addressOrderList[i];\n            users[useraddress].saveAmountFlag = false;\n        }\n        totalSaveAmount = 0;\n    }\n\n    function withdrawCashIn() public payable atStage(Stages.Finished) onlyAdmin {\n        //When all the rounds are done the admin sends the cash in to the users\n        for (uint8 i = 0; i < groupSize; i++) {\n            address useraddress = addressOrderList[i];\n            users[useraddress].cashInFlag = false;\n            users[useraddress].currentRoundFlag = false;\n            if (users[useraddress].latePaymentFlag == false) {\n                users[useraddress].userAddr.transfer(cashIn);\n            }\n        }\n        totalCashIn = 0;\n        CashInPayeesCount = 0;\n        usersCounter = 0;\n        addressOrderList = new address[](0);\n        stage = Stages.Setup;\n        totalSaveAmount = 0;\n        turn = 1;\n        creationTime = 0;\n    }\n}\n",
  "sourcePath": "/Users/federico/Desktop/bbvaHack/bloinx/contracts/GroupsTime.sol",
  "compiler": {
    "name": "solc",
    "version": "0.5.8+commit.23d335f2.Emscripten.clang"
  },
  "schemaVersion": "3.0.15",
  "updatedAt": "2020-09-27T01:40:51.505Z",
  "devdoc": {
    "methods": {}
  },
  "userdoc": {
    "methods": {}
  }
}