{
  "contractName": "Groups",
  "abi": [
    {
      "inputs": [
        {
          "internalType": "uint256",
          "name": "_cashIn",
          "type": "uint256"
        },
        {
          "internalType": "uint256",
          "name": "_saveAmount",
          "type": "uint256"
        },
        {
          "internalType": "uint8",
          "name": "_groupSize",
          "type": "uint8"
        }
      ],
      "payable": false,
      "stateMutability": "nonpayable",
      "type": "constructor"
    },
    {
      "constant": true,
      "inputs": [
        {
          "internalType": "uint256",
          "name": "",
          "type": "uint256"
        }
      ],
      "name": "addressOrderList",
      "outputs": [
        {
          "internalType": "address",
          "name": "",
          "type": "address"
        }
      ],
      "payable": false,
      "stateMutability": "view",
      "type": "function"
    },
    {
      "constant": true,
      "inputs": [],
      "name": "admin",
      "outputs": [
        {
          "internalType": "address payable",
          "name": "",
          "type": "address"
        }
      ],
      "payable": false,
      "stateMutability": "view",
      "type": "function"
    },
    {
      "constant": true,
      "inputs": [],
      "name": "stage",
      "outputs": [
        {
          "internalType": "enum Groups.Stages",
          "name": "",
          "type": "uint8"
        }
      ],
      "payable": false,
      "stateMutability": "view",
      "type": "function"
    },
    {
      "constant": true,
      "inputs": [
        {
          "internalType": "address",
          "name": "",
          "type": "address"
        }
      ],
      "name": "users",
      "outputs": [
        {
          "internalType": "uint8",
          "name": "userId",
          "type": "uint8"
        },
        {
          "internalType": "string",
          "name": "userName",
          "type": "string"
        },
        {
          "internalType": "address payable",
          "name": "userAddr",
          "type": "address"
        },
        {
          "internalType": "bool",
          "name": "cashInFlag",
          "type": "bool"
        },
        {
          "internalType": "bool",
          "name": "saveAmountFlag",
          "type": "bool"
        },
        {
          "internalType": "bool",
          "name": "current",
          "type": "bool"
        }
      ],
      "payable": false,
      "stateMutability": "view",
      "type": "function"
    },
    {
      "constant": false,
      "inputs": [
        {
          "internalType": "string",
          "name": "_userName",
          "type": "string"
        }
      ],
      "name": "registerUser",
      "outputs": [],
      "payable": false,
      "stateMutability": "nonpayable",
      "type": "function"
    },
    {
      "constant": false,
      "inputs": [],
      "name": "payCashIn",
      "outputs": [],
      "payable": true,
      "stateMutability": "payable",
      "type": "function"
    },
    {
      "constant": false,
      "inputs": [],
      "name": "payRound",
      "outputs": [],
      "payable": true,
      "stateMutability": "payable",
      "type": "function"
    },
    {
      "constant": false,
      "inputs": [],
      "name": "withdrawRound",
      "outputs": [],
      "payable": true,
      "stateMutability": "payable",
      "type": "function"
    },
    {
      "constant": false,
      "inputs": [],
      "name": "withdrawCashIn",
      "outputs": [],
      "payable": true,
      "stateMutability": "payable",
      "type": "function"
    }
  ],
  "bytecode": "0x60806040526000600560006101000a81548160ff021916908360ff16021790555060006006556000600755600160085560006009556000600a553480156200004657600080fd5b5060405162001e9638038062001e9683398181016040526200006c919081019062000121565b33600160006101000a81548173ffffffffffffffffffffffffffffffffffffffff021916908373ffffffffffffffffffffffffffffffffffffffff16021790555082600281905550816003819055508060ff166004819055506000600b60006101000a81548160ff02191690836003811115620000e557fe5b0217905550505050620001c2565b60008151905062000104816200018e565b92915050565b6000815190506200011b81620001a8565b92915050565b6000806000606084860312156200013757600080fd5b60006200014786828701620000f3565b93505060206200015a86828701620000f3565b92505060406200016d868287016200010a565b9150509250925092565b6000819050919050565b600060ff82169050919050565b620001998162000177565b8114620001a557600080fd5b50565b620001b38162000181565b8114620001bf57600080fd5b50565b611cc480620001d26000396000f3fe6080604052600436106100865760003560e01c806371c5061c1161005957806371c5061c14610105578063a87430ba1461010f578063b6a26cab14610151578063c040e6b81461015b578063f851a4401461018657610086565b80633e58451a1461008b5780635394dda814610095578063561a57b2146100d2578063704f1b94146100dc575b600080fd5b6100936101b1565b005b3480156100a157600080fd5b506100bc60048036036100b7919081019061144e565b6104b5565b6040516100c991906118b9565b60405180910390f35b6100da6104f1565b005b3480156100e857600080fd5b5061010360048036036100fe919081019061140d565b6106e5565b005b61010d6109c2565b005b34801561011b57600080fd5b50610136600480360361013191908101906113e4565b610cb6565b60405161014896959493929190611a8a565b60405180910390f35b610159610dde565b005b34801561016757600080fd5b506101706110f6565b60405161017d91906118ef565b60405180910390f35b34801561019257600080fd5b5061019b611109565b6040516101a891906118d4565b60405180910390f35b600c600160085403815481106101c357fe5b9060005260206000200160009054906101000a900473ffffffffffffffffffffffffffffffffffffffff1673ffffffffffffffffffffffffffffffffffffffff163373ffffffffffffffffffffffffffffffffffffffff161461025b576040517f08c379a000000000000000000000000000000000000000000000000000000000815260040161025290611a6a565b60405180910390fd5b6002600381111561026857fe5b600b60009054906101000a900460ff16600381111561028357fe5b146102c3576040517f08c379a00000000000000000000000000000000000000000000000000000000081526004016102ba9061198a565b60405180910390fd5b600115156000803373ffffffffffffffffffffffffffffffffffffffff1673ffffffffffffffffffffffffffffffffffffffff16815260200190815260200160002060020160169054906101000a900460ff16151514610358576040517f08c379a000000000000000000000000000000000000000000000000000000000815260040161034f9061196a565b60405180910390fd5b6000600c6001600854038154811061036c57fe5b9060005260206000200160009054906101000a900473ffffffffffffffffffffffffffffffffffffffff1690506000808273ffffffffffffffffffffffffffffffffffffffff1673ffffffffffffffffffffffffffffffffffffffff16815260200190815260200160002060020160009054906101000a900473ffffffffffffffffffffffffffffffffffffffff1673ffffffffffffffffffffffffffffffffffffffff166108fc6009549081150290604051600060405180830381858888f19350505050158015610442573d6000803e3d6000fd5b506008600081548092919060010191905055506001600b60006101000a81548160ff0219169083600381111561047457fe5b021790555061048161112f565b60045460085411156104b2576003600b60006101000a81548160ff021916908360038111156104ac57fe5b02179055505b50565b600c81815481106104c257fe5b906000526020600020016000915054906101000a900473ffffffffffffffffffffffffffffffffffffffff1681565b600160038111156104fe57fe5b600b60009054906101000a900460ff16600381111561051957fe5b14610559576040517f08c379a000000000000000000000000000000000000000000000000000000000815260040161055090611a0a565b60405180910390fd5b600015156000803373ffffffffffffffffffffffffffffffffffffffff1673ffffffffffffffffffffffffffffffffffffffff16815260200190815260200160002060020160159054906101000a900460ff161515146105ee576040517f08c379a00000000000000000000000000000000000000000000000000000000081526004016105e59061194a565b60405180910390fd5b600254341015610633576040517f08c379a000000000000000000000000000000000000000000000000000000000815260040161062a90611a2a565b60405180910390fd5b60016000803373ffffffffffffffffffffffffffffffffffffffff1673ffffffffffffffffffffffffffffffffffffffff16815260200190815260200160002060020160156101000a81548160ff021916908315150217905550600760008154809291906001019190505550346009540160098190555060045460075414156106e35760006007819055506002600b60006101000a81548160ff021916908360038111156106dd57fe5b02179055505b565b600060038111156106f257fe5b600b60009054906101000a900460ff16600381111561070d57fe5b1461074d576040517f08c379a00000000000000000000000000000000000000000000000000000000081526004016107449061190a565b60405180910390fd5b600454600560009054906101000a900460ff1660ff16106107a3576040517f08c379a000000000000000000000000000000000000000000000000000000000815260040161079a906119ca565b60405180910390fd5b6005600081819054906101000a900460ff168092919060010191906101000a81548160ff021916908360ff160217905550506040518060c00160405280600560009054906101000a900460ff1660ff1681526020018281526020013373ffffffffffffffffffffffffffffffffffffffff168152602001600015158152602001600015158152602001600115158152506000803373ffffffffffffffffffffffffffffffffffffffff1673ffffffffffffffffffffffffffffffffffffffff16815260200190815260200160002060008201518160000160006101000a81548160ff021916908360ff16021790555060208201518160010190805190602001906108ae9291906111f4565b5060408201518160020160006101000a81548173ffffffffffffffffffffffffffffffffffffffff021916908373ffffffffffffffffffffffffffffffffffffffff16021790555060608201518160020160146101000a81548160ff02191690831515021790555060808201518160020160156101000a81548160ff02191690831515021790555060a08201518160020160166101000a81548160ff021916908315150217905550905050600c3390806001815401808255809150509060018203906000526020600020016000909192909190916101000a81548173ffffffffffffffffffffffffffffffffffffffff021916908373ffffffffffffffffffffffffffffffffffffffff1602179055505050565b600060038111156109cf57fe5b600b60009054906101000a900460ff1660038111156109ea57fe5b14610a2a576040517f08c379a0000000000000000000000000000000000000000000000000000000008152600401610a219061192a565b60405180910390fd5b600015156000803373ffffffffffffffffffffffffffffffffffffffff1673ffffffffffffffffffffffffffffffffffffffff16815260200190815260200160002060020160149054906101000a900460ff16151514610abf576040517f08c379a0000000000000000000000000000000000000000000000000000000008152600401610ab6906119ea565b60405180910390fd5b600115156000803373ffffffffffffffffffffffffffffffffffffffff1673ffffffffffffffffffffffffffffffffffffffff16815260200190815260200160002060020160169054906101000a900460ff16151514610b54576040517f08c379a0000000000000000000000000000000000000000000000000000000008152600401610b4b9061196a565b60405180910390fd5b600254341015610b99576040517f08c379a0000000000000000000000000000000000000000000000000000000008152600401610b9090611a2a565b60405180910390fd5b34600a5401600a8190555060016000803373ffffffffffffffffffffffffffffffffffffffff1673ffffffffffffffffffffffffffffffffffffffff16815260200190815260200160002060020160146101000a81548160ff0219169083151502179055506006600081548092919060010191905055506004546006541415610cb457600160009054906101000a900473ffffffffffffffffffffffffffffffffffffffff1673ffffffffffffffffffffffffffffffffffffffff166108fc600a549081150290604051600060405180830381858888f19350505050158015610c86573d6000803e3d6000fd5b5060006006819055506001600b60006101000a81548160ff02191690836003811115610cae57fe5b02179055505b565b60006020528060005260406000206000915090508060000160009054906101000a900460ff1690806001018054600181600116156101000203166002900480601f016020809104026020016040519081016040528092919081815260200182805460018160011615610100020316600290048015610d755780601f10610d4a57610100808354040283529160200191610d75565b820191906000526020600020905b815481529060010190602001808311610d5857829003601f168201915b5050505050908060020160009054906101000a900473ffffffffffffffffffffffffffffffffffffffff16908060020160149054906101000a900460ff16908060020160159054906101000a900460ff16908060020160169054906101000a900460ff16905086565b600380811115610dea57fe5b600b60009054906101000a900460ff166003811115610e0557fe5b14610e45576040517f08c379a0000000000000000000000000000000000000000000000000000000008152600401610e3c906119aa565b60405180910390fd5b60045460025402341015610e8e576040517f08c379a0000000000000000000000000000000000000000000000000000000008152600401610e8590611a4a565b60405180910390fd5b60008090505b6004548160ff16101561104c576000600c8260ff1681548110610eb357fe5b9060005260206000200160009054906101000a900473ffffffffffffffffffffffffffffffffffffffff16905060008060008373ffffffffffffffffffffffffffffffffffffffff1673ffffffffffffffffffffffffffffffffffffffff16815260200190815260200160002060020160146101000a81548160ff02191690831515021790555060008060008373ffffffffffffffffffffffffffffffffffffffff1673ffffffffffffffffffffffffffffffffffffffff16815260200190815260200160002060020160166101000a81548160ff0219169083151502179055506000808273ffffffffffffffffffffffffffffffffffffffff1673ffffffffffffffffffffffffffffffffffffffff16815260200190815260200160002060020160009054906101000a900473ffffffffffffffffffffffffffffffffffffffff1673ffffffffffffffffffffffffffffffffffffffff166108fc6002549081150290604051600060405180830381858888f1935050505015801561103d573d6000803e3d6000fd5b50508080600101915050610e94565b506000600a8190555060006006819055506000600560006101000a81548160ff021916908360ff16021790555060006040519080825280602002602001820160405280156110a95781602001602082028038833980820191505090505b50600c90805190602001906110bf929190611274565b506000600b60006101000a81548160ff021916908360038111156110df57fe5b021790555060006009819055506001600881905550565b600b60009054906101000a900460ff1681565b600160009054906101000a900473ffffffffffffffffffffffffffffffffffffffff1681565b60008090505b6004548160ff1610156111e9576000600c8260ff168154811061115457fe5b9060005260206000200160009054906101000a900473ffffffffffffffffffffffffffffffffffffffff16905060008060008373ffffffffffffffffffffffffffffffffffffffff1673ffffffffffffffffffffffffffffffffffffffff16815260200190815260200160002060020160156101000a81548160ff021916908315150217905550508080600101915050611135565b506000600981905550565b828054600181600116156101000203166002900490600052602060002090601f016020900481019282601f1061123557805160ff1916838001178555611263565b82800160010185558215611263579182015b82811115611262578251825591602001919060010190611247565b5b50905061127091906112fe565b5090565b8280548282559060005260206000209081019282156112ed579160200282015b828111156112ec5782518260006101000a81548173ffffffffffffffffffffffffffffffffffffffff021916908373ffffffffffffffffffffffffffffffffffffffff16021790555091602001919060010190611294565b5b5090506112fa9190611323565b5090565b61132091905b8082111561131c576000816000905550600101611304565b5090565b90565b61136391905b8082111561135f57600081816101000a81549073ffffffffffffffffffffffffffffffffffffffff021916905550600101611329565b5090565b90565b60008135905061137581611c53565b92915050565b600082601f83011261138c57600080fd5b813561139f61139a82611b1f565b611af2565b915080825260208301602083018583830111156113bb57600080fd5b6113c6838284611bf3565b50505092915050565b6000813590506113de81611c6a565b92915050565b6000602082840312156113f657600080fd5b600061140484828501611366565b91505092915050565b60006020828403121561141f57600080fd5b600082013567ffffffffffffffff81111561143957600080fd5b6114458482850161137b565b91505092915050565b60006020828403121561146057600080fd5b600061146e848285016113cf565b91505092915050565b61148081611b79565b82525050565b61148f81611b67565b82525050565b61149e81611b8b565b82525050565b6114ad81611be1565b82525050565b60006114be82611b4b565b6114c88185611b56565b93506114d8818560208601611c02565b6114e181611c35565b840191505092915050565b60006114f9602f83611b56565b91507f4c612074616e646120796120636f6d656e7a6f2079206e6f206163657074612060008301527f6e7565766f73207573756172696f7300000000000000000000000000000000006020830152604082019050919050565b600061155f602883611b56565b91507f546f646f732068616e2070616761646f20737520656e7472616461206578697460008301527f6f73616d656e74650000000000000000000000000000000000000000000000006020830152604082019050919050565b60006115c5601783611b56565b91507f59612061686f727261737465206573746120726f6e64610000000000000000006000830152602082019050919050565b6000611605601583611b56565b91507f5573756172696f206e6f207265676973747261646f00000000000000000000006000830152602082019050919050565b6000611645602b83611b56565b91507f4573706572612061207175652074656e67616d6f7320656c206d6f6e746f206460008301527f652074752061686f72726f0000000000000000000000000000000000000000006020830152604082019050919050565b60006116ab603083611b56565b91507f44656265732065737065726172206120717565207465726d696e6520656c206360008301527f697263756c6f2064652061686f72726f000000000000000000000000000000006020830152604082019050919050565b6000611711601683611b56565b91507f456c20677275706f206573746120636f6d706c65746f000000000000000000006000830152602082019050919050565b6000611751601e83611b56565b91507f59612074656e656d6f732072656769737261646f2074752043617368496e00006000830152602082019050919050565b6000611791602083611b56565b91507f45737065726120756e61206e7565766120726f6e64612064652061686f72726f6000830152602082019050919050565b60006117d1601483611b56565b91507f466f6e646f7320496e737566696369656e7465730000000000000000000000006000830152602082019050919050565b6000611811601483611b56565b91507f666f6e646f7320696e737566696369656e7465730000000000000000000000006000830152602082019050919050565b6000611851602383611b56565b91507f44656265732065737065726172207475207475726e6f2070617261207265746960008301527f72617200000000000000000000000000000000000000000000000000000000006020830152604082019050919050565b6118b381611bd4565b82525050565b60006020820190506118ce6000830184611486565b92915050565b60006020820190506118e96000830184611477565b92915050565b600060208201905061190460008301846114a4565b92915050565b60006020820190508181036000830152611923816114ec565b9050919050565b6000602082019050818103600083015261194381611552565b9050919050565b60006020820190508181036000830152611963816115b8565b9050919050565b60006020820190508181036000830152611983816115f8565b9050919050565b600060208201905081810360008301526119a381611638565b9050919050565b600060208201905081810360008301526119c38161169e565b9050919050565b600060208201905081810360008301526119e381611704565b9050919050565b60006020820190508181036000830152611a0381611744565b9050919050565b60006020820190508181036000830152611a2381611784565b9050919050565b60006020820190508181036000830152611a43816117c4565b9050919050565b60006020820190508181036000830152611a6381611804565b9050919050565b60006020820190508181036000830152611a8381611844565b9050919050565b600060c082019050611a9f60008301896118aa565b8181036020830152611ab181886114b3565b9050611ac06040830187611477565b611acd6060830186611495565b611ada6080830185611495565b611ae760a0830184611495565b979650505050505050565b6000604051905081810181811067ffffffffffffffff82111715611b1557600080fd5b8060405250919050565b600067ffffffffffffffff821115611b3657600080fd5b601f19601f8301169050602081019050919050565b600081519050919050565b600082825260208201905092915050565b6000611b7282611baa565b9050919050565b6000611b8482611baa565b9050919050565b60008115159050919050565b6000819050611ba582611c46565b919050565b600073ffffffffffffffffffffffffffffffffffffffff82169050919050565b6000819050919050565b600060ff82169050919050565b6000611bec82611b97565b9050919050565b82818337600083830152505050565b60005b83811015611c20578082015181840152602081019050611c05565b83811115611c2f576000848401525b50505050565b6000601f19601f8301169050919050565b60048110611c5057fe5b50565b611c5c81611b67565b8114611c6757600080fd5b50565b611c7381611bca565b8114611c7e57600080fd5b5056fea365627a7a72315820c8a2fe71bb7bfc4c35323ce81dce8de0563fb940750e083c86961a85049cef7b6c6578706572696d656e74616cf564736f6c63430005100040",
  "source": "pragma solidity >=0.4.22 <0.7.0;\npragma experimental ABIEncoderV2;\n\ncontract Groups {\n\n    enum Stages {   //Stages of the round\n        setup,      //register and receive the initial cash in\n        save,     //receive payments\n        pay,      //withraw permited for the user assigned to the current period\n        finished  //Cash in is sent to the users\n    }\n    \n    struct User {   //Information from each user\n        uint8 userId;\n        string userName;\n        address payable userAddr;\n        bool cashInFlag;\n        bool saveAmountFlag;\n        bool current;   //defines if the user is participating in the current round\n    }\n    \n    /*struct Room {\n        uint8 roomId;\n        User user;\n    }*/\n    \n    mapping(address => User) public users;\n    //mapping(uint => Room) public rooms;\n    //uint roomCounter = 1;\n    \n    address payable public admin;   //The user that deploy the contract is the administrator\n    \n    //Constructor deployment variables\n    uint cashIn;        //amount to be payed as commitment at the begining of the saving circle\n    uint saveAmount; //Payment on each round/cycle\n    uint groupSize; //Number of slots for users to participate on the saving circle\n    \n    //Counters and flags\n    uint8 usersCounter = 0;\n    uint CashInPayeesCount = 0;     //Comitment payments counter\n    uint saveAmountPayeesCount = 0;  //Payments done in round counter\n    uint cycle = 1;   //Current cycle/round in the saving circle\n    \n    uint totalSaveAmount = 0;  //Collective saving on the round\n    uint totalCashIn = 0;   \n\n    Stages public stage;\n\n    address[] public addressOrderList;\n    //Room[] roomsList;\n\n    modifier isUsersTurn() {    //Verifies if it is the users round to widraw\n        require(msg.sender == addressOrderList[cycle-1], \"Debes esperar tu turno para retirar\");\n        _;\n    }\n\n    constructor(uint _cashIn, uint _saveAmount, uint8 _groupSize) public {\n        admin = msg.sender;\n        cashIn = _cashIn;\n        saveAmount = _saveAmount;\n        groupSize = _groupSize;\n        stage = Stages.setup;\n    }\n\n    function registerUser(string memory _userName) public {\n        require(stage == Stages.setup, \"La tanda ya comenzo y no acepta nuevos usuarios\");  //The saving circle has started and doesn't accept new users\n        require(usersCounter < groupSize, \"El grupo esta completo\");    //the saving circle is full\n        usersCounter++;\n        users[msg.sender] = User(usersCounter, _userName, msg.sender, false, false, true);\n        addressOrderList.push(msg.sender);  //store user\n    }\n\n    function payCashIn() public payable {       //Receive the comitment payment\n        require(stage == Stages.setup, \"Todos han pagado su entrada exitosamente\");\n        require(users[msg.sender].cashInFlag == false, \"Ya tenemos regisrado tu CashIn\"); //you have payed the cash in\n        require(users[msg.sender].current == true, \"Usuario no registrado\");    //user not registered\n        require(msg.value >= cashIn, 'Fondos Insuficientes');   //insufucuent funds\n        totalCashIn = totalCashIn + msg.value;\n        users[msg.sender].cashInFlag = true;\n        //users[msg.sender].current = true;\n        CashInPayeesCount++;\n        if (CashInPayeesCount == groupSize){\n            admin.transfer(totalCashIn);\n            CashInPayeesCount = 0;\n            stage = Stages.save;\n        }\n    }\n\n\n    function payRound() public payable {    //users make the payment for the cycle\n        require(stage == Stages.save, \"Espera una nueva ronda de ahorro\");  //wait for a new round\n        require(users[msg.sender].saveAmountFlag == false, \"Ya ahorraste esta ronda\");  //you have already saved this round\n        //require(users[msg.sender].current == true, \"Usuario no registrado\");  //unregistered user\n        require(msg.value >= cashIn, 'Fondos Insuficientes');   //insuficient funds\n        users[msg.sender].saveAmountFlag = true;\n        saveAmountPayeesCount++;\n        totalSaveAmount = totalSaveAmount + msg.value;\n        if (saveAmountPayeesCount == groupSize){\n            saveAmountPayeesCount = 0;\n            stage = Stages.pay;            //When all the payments are done go to next stage\n        }\n    }\n    \n    function withdrawRound() payable isUsersTurn public {   //User assigned to the round can widraw\n        require(stage == Stages.pay, \"Espera a que tengamos el monto de tu ahorro\");     //Se debe estar en fase de pago\n        require(users[msg.sender].current == true, \"Usuario no registrado\");\n        //stage = Stages.save;\n        address addressUserInTurn = addressOrderList[cycle-1];\n        users[addressUserInTurn].userAddr.transfer(totalSaveAmount);\n        cycle++;\n        stage = Stages.save;\n        newRound();\n        if(cycle > groupSize){\n            stage = Stages.finished;\n            \n        }\n    }\n    \n    \n    function newRound() private{    //repeats the save and pay stages according to the saving circle size\n        for(uint8 i = 0; i<groupSize; i++){\n            address useraddress = addressOrderList[i];\n            users[useraddress].saveAmountFlag = false;\n        }\n        totalSaveAmount = 0;\n    }\n    \n    \n    function withdrawCashIn() payable public {  //When all the rounds are done the admin sends the cash in to the users\n        require(stage == Stages.finished, \"Debes esperar a que termine el circulo de ahorro\");//wait for the saving circle to end\n        //require(msg.sender == admin, \"Debes ser el administrador para ejecutar esta funcion\");//only admins can execute this function\n        require(msg.value >= (cashIn * groupSize),\"fondos insuficientes\");\n        for(uint8 i = 0; i<groupSize; i++){\n            address useraddress = addressOrderList[i];\n            users[useraddress].cashInFlag = false;\n            users[useraddress].current = false;\n            users[useraddress].userAddr.transfer(cashIn);\n        }\n        totalCashIn=0;\n        CashInPayeesCount = 0;\n        usersCounter = 0;\n        addressOrderList = new address[](0);\n        stage = Stages.setup;\n        totalSaveAmount = 0;\n        cycle=1;\n    }\n}\n",
  "sourcePath": "/home/nita/Documents/01.Projects/BloinX/repo/contracts/Groups.sol",
  "compiler": {
    "name": "solc",
    "version": "0.5.16+commit.9c3226ce.Emscripten.clang"
  },
  "schemaVersion": "3.2.2",
  "updatedAt": "2020-10-24T01:28:33.593Z",
  "devdoc": {
    "methods": {}
  },
  "userdoc": {
    "methods": {}
  }
}