{
  "contractName": "oneRoundReusable",
  "abi": [
    {
      "inputs": [
        {
          "internalType": "uint256",
          "name": "_cashIn",
          "type": "uint256"
        },
        {
          "internalType": "uint256",
          "name": "_saveAmount",
          "type": "uint256"
        },
        {
          "internalType": "uint256",
          "name": "_groupSize",
          "type": "uint256"
        }
      ],
      "payable": false,
      "stateMutability": "nonpayable",
      "type": "constructor"
    },
    {
      "constant": true,
      "inputs": [
        {
          "internalType": "uint256",
          "name": "",
          "type": "uint256"
        }
      ],
      "name": "addressOrderList",
      "outputs": [
        {
          "internalType": "address",
          "name": "",
          "type": "address"
        }
      ],
      "payable": false,
      "stateMutability": "view",
      "type": "function"
    },
    {
      "constant": true,
      "inputs": [],
      "name": "admin",
      "outputs": [
        {
          "internalType": "address payable",
          "name": "",
          "type": "address"
        }
      ],
      "payable": false,
      "stateMutability": "view",
      "type": "function"
    },
    {
      "constant": true,
      "inputs": [],
      "name": "cashOutUsers",
      "outputs": [
        {
          "internalType": "uint256",
          "name": "",
          "type": "uint256"
        }
      ],
      "payable": false,
      "stateMutability": "view",
      "type": "function"
    },
    {
      "constant": true,
      "inputs": [],
      "name": "groupSize",
      "outputs": [
        {
          "internalType": "uint256",
          "name": "",
          "type": "uint256"
        }
      ],
      "payable": false,
      "stateMutability": "view",
      "type": "function"
    },
    {
      "constant": true,
      "inputs": [],
      "name": "stage",
      "outputs": [
        {
          "internalType": "enum oneRoundReusable.Stages",
          "name": "",
          "type": "uint8"
        }
      ],
      "payable": false,
      "stateMutability": "view",
      "type": "function"
    },
    {
      "constant": true,
      "inputs": [],
      "name": "totalCashIn",
      "outputs": [
        {
          "internalType": "uint256",
          "name": "",
          "type": "uint256"
        }
      ],
      "payable": false,
      "stateMutability": "view",
      "type": "function"
    },
    {
      "constant": true,
      "inputs": [],
      "name": "totalSaveAmount",
      "outputs": [
        {
          "internalType": "uint256",
          "name": "",
          "type": "uint256"
        }
      ],
      "payable": false,
      "stateMutability": "view",
      "type": "function"
    },
    {
      "constant": true,
      "inputs": [],
      "name": "turn",
      "outputs": [
        {
          "internalType": "uint256",
          "name": "",
          "type": "uint256"
        }
      ],
      "payable": false,
      "stateMutability": "view",
      "type": "function"
    },
    {
      "constant": true,
      "inputs": [
        {
          "internalType": "address",
          "name": "",
          "type": "address"
        }
      ],
      "name": "users",
      "outputs": [
        {
          "internalType": "address payable",
          "name": "userAddr",
          "type": "address"
        },
        {
          "internalType": "bool",
          "name": "cashInFlag",
          "type": "bool"
        },
        {
          "internalType": "bool",
          "name": "saveAmountFlag",
          "type": "bool"
        },
        {
          "internalType": "bool",
          "name": "currentRoundFlag",
          "type": "bool"
        },
        {
          "internalType": "bool",
          "name": "latePaymentFlag",
          "type": "bool"
        }
      ],
      "payable": false,
      "stateMutability": "view",
      "type": "function"
    },
    {
      "constant": false,
      "inputs": [
        {
          "internalType": "uint256",
          "name": "_usrTurn",
          "type": "uint256"
        }
      ],
      "name": "registerUser",
      "outputs": [],
      "payable": true,
      "stateMutability": "payable",
      "type": "function"
    },
    {
      "constant": false,
      "inputs": [
        {
          "internalType": "uint256",
          "name": "_usrTurn",
          "type": "uint256"
        }
      ],
      "name": "removeUser",
      "outputs": [],
      "payable": true,
      "stateMutability": "payable",
      "type": "function"
    },
    {
      "constant": false,
      "inputs": [],
      "name": "startRound",
      "outputs": [],
      "payable": false,
      "stateMutability": "nonpayable",
      "type": "function"
    },
    {
      "constant": false,
      "inputs": [],
      "name": "payTurn",
      "outputs": [],
      "payable": true,
      "stateMutability": "payable",
      "type": "function"
    },
    {
      "constant": false,
      "inputs": [],
      "name": "payLateTurn",
      "outputs": [],
      "payable": true,
      "stateMutability": "payable",
      "type": "function"
    },
    {
      "constant": false,
      "inputs": [],
      "name": "withdrawTurn",
      "outputs": [],
      "payable": true,
      "stateMutability": "payable",
      "type": "function"
    },
    {
      "constant": false,
      "inputs": [],
      "name": "advanceTurn",
      "outputs": [],
      "payable": true,
      "stateMutability": "payable",
      "type": "function"
    },
    {
      "constant": false,
      "inputs": [],
      "name": "withdrawCashIn",
      "outputs": [],
      "payable": true,
      "stateMutability": "payable",
      "type": "function"
    },
    {
      "constant": false,
      "inputs": [],
      "name": "restartRound",
      "outputs": [],
      "payable": true,
      "stateMutability": "payable",
      "type": "function"
    },
    {
      "constant": false,
      "inputs": [],
      "name": "payCashIn",
      "outputs": [],
      "payable": true,
      "stateMutability": "payable",
      "type": "function"
    }
  ],
  "bytecode": "0x60806040526000600560006101000a81548160ff021916908360ff1602179055506000600655600060075560016008556000600a556000600b556000600d556040518060600160405280600073ffffffffffffffffffffffffffffffffffffffff1673ffffffffffffffffffffffffffffffffffffffff168152602001600073ffffffffffffffffffffffffffffffffffffffff1673ffffffffffffffffffffffffffffffffffffffff168152602001600073ffffffffffffffffffffffffffffffffffffffff1673ffffffffffffffffffffffffffffffffffffffff16815250600e906003620000f2929190620001d3565b5061012c60105561012c6011553480156200010c57600080fd5b5060405162003449380380620034498339818101604052620001329190810190620002bf565b33600160006101000a81548173ffffffffffffffffffffffffffffffffffffffff021916908373ffffffffffffffffffffffffffffffffffffffff16021790555067016345785d8a0000830260028190555067016345785d8a0000820260038190555080600481905550600454600c819055506000600f60006101000a81548160ff02191690836002811115620001c557fe5b021790555050505062000339565b8280548282559060005260206000209081019282156200024f579160200282015b828111156200024e5782518260006101000a81548173ffffffffffffffffffffffffffffffffffffffff021916908373ffffffffffffffffffffffffffffffffffffffff16021790555091602001919060010190620001f4565b5b5090506200025e919062000262565b5090565b620002a591905b80821115620002a157600081816101000a81549073ffffffffffffffffffffffffffffffffffffffff02191690555060010162000269565b5090565b90565b600081519050620002b9816200031f565b92915050565b600080600060608486031215620002d557600080fd5b6000620002e586828701620002a8565b9350506020620002f886828701620002a8565b92505060406200030b86828701620002a8565b9150509250925092565b6000819050919050565b6200032a8162000315565b81146200033657600080fd5b50565b61310080620003496000396000f3fe6080604052600436106101145760003560e01c80636f3d7e64116100a0578063b4bde59e11610064578063b4bde59e146102a3578063b6a26cab146102ce578063b842478b146102d8578063c040e6b814610303578063f851a4401461032e57610114565b80636f3d7e641461021957806371c5061c146102235780637dab75311461022d5780638b29990314610237578063a87430ba1461026257610114565b806330fceb6c116100e757806330fceb6c146101655780635394dda81461016f57806355e3f086146101ac57806363b635ea146101c357806364f9a17c146101ee57610114565b806311dc470314610119578063193e76c7146101355780631bbfae0e1461013f5780632d14252f1461015b575b600080fd5b610133600480360361012e9190810190612827565b610359565b005b61013d61072f565b005b61015960048036036101549190810190612827565b610a65565b005b610163610dd8565b005b61016d6112a8565b005b34801561017b57600080fd5b5061019660048036036101919190810190612827565b611902565b6040516101a39190612d33565b60405180910390f35b3480156101b857600080fd5b506101c161193e565b005b3480156101cf57600080fd5b506101d8611a75565b6040516101e59190612fd7565b60405180910390f35b3480156101fa57600080fd5b50610203611a7b565b6040516102109190612fd7565b60405180910390f35b610221611a81565b005b61022b611fd4565b005b6102356121ef565b005b34801561024357600080fd5b5061024c612401565b6040516102599190612fd7565b60405180910390f35b34801561026e57600080fd5b50610289600480360361028491908101906127fe565b612407565b60405161029a959493929190612d69565b60405180910390f35b3480156102af57600080fd5b506102b8612491565b6040516102c59190612fd7565b60405180910390f35b6102d6612497565b005b3480156102e457600080fd5b506102ed6126d8565b6040516102fa9190612fd7565b60405180910390f35b34801561030f57600080fd5b506103186126de565b6040516103259190612dbc565b60405180910390f35b34801561033a57600080fd5b506103436126f1565b6040516103509190612d4e565b60405180910390f35b600160009054906101000a900473ffffffffffffffffffffffffffffffffffffffff1673ffffffffffffffffffffffffffffffffffffffff163373ffffffffffffffffffffffffffffffffffffffff16146103e9576040517f08c379a00000000000000000000000000000000000000000000000000000000081526004016103e090612e17565b60405180910390fd5b60008060028111156103f757fe5b600f60009054906101000a900460ff16600281111561041257fe5b1461041c57600080fd5b600073ffffffffffffffffffffffffffffffffffffffff16600e600184038154811061044457fe5b9060005260206000200160009054906101000a900473ffffffffffffffffffffffffffffffffffffffff1673ffffffffffffffffffffffffffffffffffffffff1614156104c6576040517f08c379a00000000000000000000000000000000000000000000000000000000081526004016104bd90612e57565b60405180910390fd5b600115156000803373ffffffffffffffffffffffffffffffffffffffff1673ffffffffffffffffffffffffffffffffffffffff16815260200190815260200160002060000160149054906101000a900460ff16151514156106445734600b5403600b819055506000803373ffffffffffffffffffffffffffffffffffffffff1673ffffffffffffffffffffffffffffffffffffffff16815260200190815260200160002060000160009054906101000a900473ffffffffffffffffffffffffffffffffffffffff1673ffffffffffffffffffffffffffffffffffffffff166108fc6002549081150290604051600060405180830381858888f193505050501580156105d5573d6000803e3d6000fd5b506006600081548092919060019003919050555060008060003373ffffffffffffffffffffffffffffffffffffffff1673ffffffffffffffffffffffffffffffffffffffff16815260200190815260200160002060000160146101000a81548160ff0219169083151502179055505b6000600e600184038154811061065657fe5b9060005260206000200160006101000a81548173ffffffffffffffffffffffffffffffffffffffff021916908373ffffffffffffffffffffffffffffffffffffffff1602179055506005600081819054906101000a900460ff16809291906001900391906101000a81548160ff021916908360ff1602179055505060008060003373ffffffffffffffffffffffffffffffffffffffff1673ffffffffffffffffffffffffffffffffffffffff16815260200190815260200160002060000160166101000a81548160ff0219169083151502179055505050565b600115156000803373ffffffffffffffffffffffffffffffffffffffff1673ffffffffffffffffffffffffffffffffffffffff16815260200190815260200160002060000160169054906101000a900460ff161515146107c4576040517f08c379a00000000000000000000000000000000000000000000000000000000081526004016107bb90612e77565b60405180910390fd5b6002543414610808576040517f08c379a00000000000000000000000000000000000000000000000000000000081526004016107ff90612f37565b60405180910390fd5b600e6001600854038154811061081a57fe5b9060005260206000200160009054906101000a900473ffffffffffffffffffffffffffffffffffffffff1673ffffffffffffffffffffffffffffffffffffffff163373ffffffffffffffffffffffffffffffffffffffff1614156108b3576040517f08c379a00000000000000000000000000000000000000000000000000000000081526004016108aa90612f97565b60405180910390fd5b60018060028111156108c157fe5b600f60009054906101000a900460ff1660028111156108dc57fe5b146108e657600080fd5b600015156000803373ffffffffffffffffffffffffffffffffffffffff1673ffffffffffffffffffffffffffffffffffffffff16815260200190815260200160002060000160159054906101000a900460ff1615151461097b576040517f08c379a000000000000000000000000000000000000000000000000000000000815260040161097290612ed7565b60405180910390fd5b601154600160085403026010546008540260095401014211156109d3576040517f08c379a00000000000000000000000000000000000000000000000000000000081526004016109ca90612f77565b60405180910390fd5b34600a5401600a8190555060016000803373ffffffffffffffffffffffffffffffffffffffff1673ffffffffffffffffffffffffffffffffffffffff16815260200190815260200160002060000160156101000a81548160ff0219169083151502179055506007600081548092919060010191905055506001600454036007541415610a625760006007819055505b50565b6002543414610aa9576040517f08c379a0000000000000000000000000000000000000000000000000000000008152600401610aa090612f37565b60405180910390fd5b6000806002811115610ab757fe5b600f60009054906101000a900460ff166002811115610ad257fe5b14610adc57600080fd5b600454600560009054906101000a900460ff1660ff1610610b32576040517f08c379a0000000000000000000000000000000000000000000000000000000008152600401610b2990612eb7565b60405180910390fd5b600073ffffffffffffffffffffffffffffffffffffffff16600e6001840381548110610b5a57fe5b9060005260206000200160009054906101000a900473ffffffffffffffffffffffffffffffffffffffff1673ffffffffffffffffffffffffffffffffffffffff1614610bdb576040517f08c379a0000000000000000000000000000000000000000000000000000000008152600401610bd290612e37565b60405180910390fd5b6005600081819054906101000a900460ff168092919060010191906101000a81548160ff021916908360ff1602179055505034600b5401600b819055506040518060a001604052803373ffffffffffffffffffffffffffffffffffffffff168152602001600115158152602001600015158152602001600115158152602001600015158152506000803373ffffffffffffffffffffffffffffffffffffffff1673ffffffffffffffffffffffffffffffffffffffff16815260200190815260200160002060008201518160000160006101000a81548173ffffffffffffffffffffffffffffffffffffffff021916908373ffffffffffffffffffffffffffffffffffffffff16021790555060208201518160000160146101000a81548160ff02191690831515021790555060408201518160000160156101000a81548160ff02191690831515021790555060608201518160000160166101000a81548160ff02191690831515021790555060808201518160000160176101000a81548160ff02191690831515021790555090505033600e6001840381548110610d7a57fe5b9060005260206000200160006101000a81548173ffffffffffffffffffffffffffffffffffffffff021916908373ffffffffffffffffffffffffffffffffffffffff1602179055506006600081548092919060010191905055505050565b6002806002811115610de657fe5b600f60009054906101000a900460ff166002811115610e0157fe5b14610e0b57600080fd5b600160009054906101000a900473ffffffffffffffffffffffffffffffffffffffff1673ffffffffffffffffffffffffffffffffffffffff163373ffffffffffffffffffffffffffffffffffffffff1614610e9b576040517f08c379a0000000000000000000000000000000000000000000000000000000008152600401610e9290612e17565b60405180910390fd5b600c5460025402600b54101561114157600c54600b5481610eb857fe5b04600d8190555060008090505b6004548160ff161015611133576000600e8260ff1681548110610ee457fe5b9060005260206000200160009054906101000a900473ffffffffffffffffffffffffffffffffffffffff169050600015156000808373ffffffffffffffffffffffffffffffffffffffff1673ffffffffffffffffffffffffffffffffffffffff16815260200190815260200160002060000160179054906101000a900460ff1615151415611017576000808273ffffffffffffffffffffffffffffffffffffffff1673ffffffffffffffffffffffffffffffffffffffff16815260200190815260200160002060000160009054906101000a900473ffffffffffffffffffffffffffffffffffffffff1673ffffffffffffffffffffffffffffffffffffffff166108fc600d549081150290604051600060405180830381858888f19350505050158015611015573d6000803e3d6000fd5b505b60008060008373ffffffffffffffffffffffffffffffffffffffff1673ffffffffffffffffffffffffffffffffffffffff16815260200190815260200160002060000160146101000a81548160ff02191690831515021790555060008060008373ffffffffffffffffffffffffffffffffffffffff1673ffffffffffffffffffffffffffffffffffffffff16815260200190815260200160002060000160176101000a81548160ff02191690831515021790555060008060008373ffffffffffffffffffffffffffffffffffffffff1673ffffffffffffffffffffffffffffffffffffffff16815260200190815260200160002060000160156101000a81548160ff021916908315150217905550508080600101915050610ec5565b506000600b81905550611268565b600c5460025402600b5414156112675760008090505b6004548160ff161015611265576000600e8260ff168154811061117657fe5b9060005260206000200160009054906101000a900473ffffffffffffffffffffffffffffffffffffffff16905060008060008373ffffffffffffffffffffffffffffffffffffffff1673ffffffffffffffffffffffffffffffffffffffff16815260200190815260200160002060000160176101000a81548160ff02191690831515021790555060008060008373ffffffffffffffffffffffffffffffffffffffff1673ffffffffffffffffffffffffffffffffffffffff16815260200190815260200160002060000160156101000a81548160ff021916908315150217905550508080600101915050611157565b505b5b600454600c819055506000600a8190555060016008819055506000600f60006101000a81548160ff021916908360028111156112a057fe5b021790555050565b600115156000803373ffffffffffffffffffffffffffffffffffffffff1673ffffffffffffffffffffffffffffffffffffffff16815260200190815260200160002060000160169054906101000a900460ff1615151461133d576040517f08c379a000000000000000000000000000000000000000000000000000000000815260040161133490612e77565b60405180910390fd5b600180600281111561134b57fe5b600f60009054906101000a900460ff16600281111561136657fe5b1461137057600080fd5b600e6001600854038154811061138257fe5b9060005260206000200160009054906101000a900473ffffffffffffffffffffffffffffffffffffffff1673ffffffffffffffffffffffffffffffffffffffff163373ffffffffffffffffffffffffffffffffffffffff161461141a576040517f08c379a000000000000000000000000000000000000000000000000000000000815260040161141190612fb7565b60405180910390fd5b6011546008540260105460085402600954010142111561146f576040517f08c379a000000000000000000000000000000000000000000000000000000000815260040161146690612f17565b60405180910390fd5b4260115460016008540302601054600854026009540101101561176f5760008090505b6004548160ff16101561176d576000600e8260ff16815481106114b157fe5b9060005260206000200160009054906101000a900473ffffffffffffffffffffffffffffffffffffffff169050600015156000808373ffffffffffffffffffffffffffffffffffffffff1673ffffffffffffffffffffffffffffffffffffffff16815260200190815260200160002060000160159054906101000a900460ff16151514801561160957506000808273ffffffffffffffffffffffffffffffffffffffff1673ffffffffffffffffffffffffffffffffffffffff16815260200190815260200160002060000160009054906101000a900473ffffffffffffffffffffffffffffffffffffffff1673ffffffffffffffffffffffffffffffffffffffff16600e600160085403815481106115c557fe5b9060005260206000200160009054906101000a900473ffffffffffffffffffffffffffffffffffffffff1673ffffffffffffffffffffffffffffffffffffffff1614155b1561175f57600354600b5403600b81905550600354600a5401600a81905550600015156000808373ffffffffffffffffffffffffffffffffffffffff1673ffffffffffffffffffffffffffffffffffffffff16815260200190815260200160002060000160179054906101000a900460ff161515141561175e57600c600081548092919060019003919050555060016000808373ffffffffffffffffffffffffffffffffffffffff1673ffffffffffffffffffffffffffffffffffffffff16815260200190815260200160002060000160176101000a81548160ff0219169083151502179055506006600081548092919060019003919050555060008060008373ffffffffffffffffffffffffffffffffffffffff1673ffffffffffffffffffffffffffffffffffffffff16815260200190815260200160002060000160146101000a81548160ff0219169083151502179055505b5b508080600101915050611492565b505b60035460016004540302600a54146117bc576040517f08c379a00000000000000000000000000000000000000000000000000000000081526004016117b390612e97565b60405180910390fd5b6000600e600160085403815481106117d057fe5b9060005260206000200160009054906101000a900473ffffffffffffffffffffffffffffffffffffffff1690506000808273ffffffffffffffffffffffffffffffffffffffff1673ffffffffffffffffffffffffffffffffffffffff16815260200190815260200160002060000160009054906101000a900473ffffffffffffffffffffffffffffffffffffffff1673ffffffffffffffffffffffffffffffffffffffff166108fc600a549081150290604051600060405180830381858888f193505050501580156118a6573d6000803e3d6000fd5b506000600a81905550600454600854106118e3576002600f60006101000a81548160ff021916908360028111156118d957fe5b02179055506118ec565b6118eb612717565b5b6008600081548092919060010191905055505050565b600e818154811061190f57fe5b906000526020600020016000915054906101000a900473ffffffffffffffffffffffffffffffffffffffff1681565b600160009054906101000a900473ffffffffffffffffffffffffffffffffffffffff1673ffffffffffffffffffffffffffffffffffffffff163373ffffffffffffffffffffffffffffffffffffffff16146119ce576040517f08c379a00000000000000000000000000000000000000000000000000000000081526004016119c590612e17565b60405180910390fd5b60008060028111156119dc57fe5b600f60009054906101000a900460ff1660028111156119f757fe5b14611a0157600080fd5b60045460065414611a47576040517f08c379a0000000000000000000000000000000000000000000000000000000008152600401611a3e90612f57565b60405180910390fd5b6001600f60006101000a81548160ff02191690836002811115611a6657fe5b02179055504260098190555050565b60045481565b600a5481565b600160009054906101000a900473ffffffffffffffffffffffffffffffffffffffff1673ffffffffffffffffffffffffffffffffffffffff163373ffffffffffffffffffffffffffffffffffffffff1614611b11576040517f08c379a0000000000000000000000000000000000000000000000000000000008152600401611b0890612e17565b60405180910390fd5b6001806002811115611b1f57fe5b600f60009054906101000a900460ff166002811115611b3a57fe5b14611b4457600080fd5b426011546008540260105460085402600954010110611b98576040517f08c379a0000000000000000000000000000000000000000000000000000000008152600401611b8f90612df7565b60405180910390fd5b60035460016004540302600a541015611e8e5760008090505b6004548160ff161015611e8c576000600e8260ff1681548110611bd057fe5b9060005260206000200160009054906101000a900473ffffffffffffffffffffffffffffffffffffffff169050600015156000808373ffffffffffffffffffffffffffffffffffffffff1673ffffffffffffffffffffffffffffffffffffffff16815260200190815260200160002060000160159054906101000a900460ff161515148015611d2857506000808273ffffffffffffffffffffffffffffffffffffffff1673ffffffffffffffffffffffffffffffffffffffff16815260200190815260200160002060000160009054906101000a900473ffffffffffffffffffffffffffffffffffffffff1673ffffffffffffffffffffffffffffffffffffffff16600e60016008540381548110611ce457fe5b9060005260206000200160009054906101000a900473ffffffffffffffffffffffffffffffffffffffff1673ffffffffffffffffffffffffffffffffffffffff1614155b15611e7e57600354600b5403600b81905550600354600a5401600a81905550600015156000808373ffffffffffffffffffffffffffffffffffffffff1673ffffffffffffffffffffffffffffffffffffffff16815260200190815260200160002060000160179054906101000a900460ff1615151415611e7d57600c600081548092919060019003919050555060016000808373ffffffffffffffffffffffffffffffffffffffff1673ffffffffffffffffffffffffffffffffffffffff16815260200190815260200160002060000160176101000a81548160ff0219169083151502179055506006600081548092919060019003919050555060008060008373ffffffffffffffffffffffffffffffffffffffff1673ffffffffffffffffffffffffffffffffffffffff16815260200190815260200160002060000160146101000a81548160ff0219169083151502179055505b5b508080600101915050611bb1565b505b6000600e60016008540381548110611ea257fe5b9060005260206000200160009054906101000a900473ffffffffffffffffffffffffffffffffffffffff1690506000808273ffffffffffffffffffffffffffffffffffffffff1673ffffffffffffffffffffffffffffffffffffffff16815260200190815260200160002060000160009054906101000a900473ffffffffffffffffffffffffffffffffffffffff1673ffffffffffffffffffffffffffffffffffffffff166108fc600a549081150290604051600060405180830381858888f19350505050158015611f78573d6000803e3d6000fd5b506000600a8190555060045460085410611fb5576002600f60006101000a81548160ff02191690836002811115611fab57fe5b0217905550611fbe565b611fbd612717565b5b6008600081548092919060010191905055505050565b6000806002811115611fe257fe5b600f60009054906101000a900460ff166002811115611ffd57fe5b1461200757600080fd5b600115156000803373ffffffffffffffffffffffffffffffffffffffff1673ffffffffffffffffffffffffffffffffffffffff16815260200190815260200160002060000160169054906101000a900460ff1615151461209c576040517f08c379a000000000000000000000000000000000000000000000000000000000815260040161209390612e77565b60405180910390fd5b600015156000803373ffffffffffffffffffffffffffffffffffffffff1673ffffffffffffffffffffffffffffffffffffffff16815260200190815260200160002060000160149054906101000a900460ff16151514612131576040517f08c379a000000000000000000000000000000000000000000000000000000000815260040161212890612ef7565b60405180910390fd5b6002543414612175576040517f08c379a000000000000000000000000000000000000000000000000000000000815260040161216c90612f37565b60405180910390fd5b34600b5401600b8190555060016000803373ffffffffffffffffffffffffffffffffffffffff1673ffffffffffffffffffffffffffffffffffffffff16815260200190815260200160002060000160146101000a81548160ff02191690831515021790555060066000815480929190600101919050555050565b600115156000803373ffffffffffffffffffffffffffffffffffffffff1673ffffffffffffffffffffffffffffffffffffffff16815260200190815260200160002060000160169054906101000a900460ff16151514612284576040517f08c379a000000000000000000000000000000000000000000000000000000000815260040161227b90612e77565b60405180910390fd5b60025434146122c8576040517f08c379a00000000000000000000000000000000000000000000000000000000081526004016122bf90612f37565b60405180910390fd5b60018060028111156122d657fe5b600f60009054906101000a900460ff1660028111156122f157fe5b146122fb57600080fd5b600115156000803373ffffffffffffffffffffffffffffffffffffffff1673ffffffffffffffffffffffffffffffffffffffff16815260200190815260200160002060000160179054906101000a900460ff16151514612390576040517f08c379a000000000000000000000000000000000000000000000000000000000815260040161238790612dd7565b60405180910390fd5b34600b5401600b8190555060025460045402600b5414156123fe57600015156000803373ffffffffffffffffffffffffffffffffffffffff1673ffffffffffffffffffffffffffffffffffffffff16815260200190815260200160002060000160179054906101000a905050505b50565b60085481565b60006020528060005260406000206000915090508060000160009054906101000a900473ffffffffffffffffffffffffffffffffffffffff16908060000160149054906101000a900460ff16908060000160159054906101000a900460ff16908060000160169054906101000a900460ff16908060000160179054906101000a900460ff16905085565b600b5481565b60028060028111156124a557fe5b600f60009054906101000a900460ff1660028111156124c057fe5b146124ca57600080fd5b600160009054906101000a900473ffffffffffffffffffffffffffffffffffffffff1673ffffffffffffffffffffffffffffffffffffffff163373ffffffffffffffffffffffffffffffffffffffff161461255a576040517f08c379a000000000000000000000000000000000000000000000000000000000815260040161255190612e17565b60405180910390fd5b600c54600b548161256757fe5b04600d8190555060008090505b6004548160ff1610156126d4576000600e8260ff168154811061259357fe5b9060005260206000200160009054906101000a900473ffffffffffffffffffffffffffffffffffffffff169050600015156000808373ffffffffffffffffffffffffffffffffffffffff1673ffffffffffffffffffffffffffffffffffffffff16815260200190815260200160002060000160179054906101000a900460ff16151514156126c6576000808273ffffffffffffffffffffffffffffffffffffffff1673ffffffffffffffffffffffffffffffffffffffff16815260200190815260200160002060000160009054906101000a900473ffffffffffffffffffffffffffffffffffffffff1673ffffffffffffffffffffffffffffffffffffffff166108fc600d549081150290604051600060405180830381858888f193505050501580156126c4573d6000803e3d6000fd5b505b508080600101915050612574565b5050565b600c5481565b600f60009054906101000a900460ff1681565b600160009054906101000a900473ffffffffffffffffffffffffffffffffffffffff1681565b60008090505b6004548160ff1610156127d1576000600e8260ff168154811061273c57fe5b9060005260206000200160009054906101000a900473ffffffffffffffffffffffffffffffffffffffff16905060008060008373ffffffffffffffffffffffffffffffffffffffff1673ffffffffffffffffffffffffffffffffffffffff16815260200190815260200160002060000160156101000a81548160ff02191690831515021790555050808060010191505061271d565b50565b6000813590506127e38161308f565b92915050565b6000813590506127f8816130a6565b92915050565b60006020828403121561281057600080fd5b600061281e848285016127d4565b91505092915050565b60006020828403121561283957600080fd5b6000612847848285016127e9565b91505092915050565b61285981613015565b82525050565b61286881613003565b82525050565b61287781613027565b82525050565b61288681613070565b82525050565b6000612899601b83612ff2565b91507f457374617320616c20636f727269656e746520656e207061676f7300000000006000830152602082019050919050565b60006128d9602583612ff2565b91507f456c207573756172696f20656e207475726e6f2061756e20707565646520726560008301527f74697261720000000000000000000000000000000000000000000000000000006020830152604082019050919050565b600061293f602583612ff2565b91507f536f6c6f20656c2061646d696e207075656465206c6c616d6172206c6120667560008301527f6e63696f6e0000000000000000000000000000000000000000000000000000006020830152604082019050919050565b60006129a5601a83612ff2565b91507f45737465206c756761722079612065737461206f63757061646f0000000000006000830152602082019050919050565b60006129e5601583612ff2565b91507f45737465207475726e6f206573746120766163696f00000000000000000000006000830152602082019050919050565b6000612a25601583612ff2565b91507f5573756172696f206e6f207265676973747261646f00000000000000000000006000830152602082019050919050565b6000612a65602b83612ff2565b91507f4573706572612061207175652074656e67616d6f7320656c206d6f6e746f206460008301527f652074752061686f72726f0000000000000000000000000000000000000000006020830152604082019050919050565b6000612acb601683612ff2565b91507f456c20677275706f206573746120636f6d706c65746f000000000000000000006000830152602082019050919050565b6000612b0b601783612ff2565b91507f59612061686f7272617374652065737465207475726e6f0000000000000000006000830152602082019050919050565b6000612b4b601e83612ff2565b91507f59612074656e656d6f732072656769737261646f2074752043617368496e00006000830152602082019050919050565b6000612b8b601b83612ff2565b91507f5465726d696e6f20656c207469656d706f2064652072657469726f00000000006000830152602082019050919050565b6000612bcb601483612ff2565b91507f466f6e646f7320496e737566696369656e7465730000000000000000000000006000830152602082019050919050565b6000612c0b601b83612ff2565b91507f41756e20686179206c7567617265732073696e20617369676e617200000000006000830152602082019050919050565b6000612c4b600b83612ff2565b91507f5061676f2074617264696f0000000000000000000000000000000000000000006000830152602082019050919050565b6000612c8b601a83612ff2565b91507f456e2065737465207475726e6f206e6f206465706f73697461730000000000006000830152602082019050919050565b6000612ccb602383612ff2565b91507f44656265732065737065726172207475207475726e6f2070617261207265746960008301527f72617200000000000000000000000000000000000000000000000000000000006020830152604082019050919050565b612d2d81613066565b82525050565b6000602082019050612d48600083018461285f565b92915050565b6000602082019050612d636000830184612850565b92915050565b600060a082019050612d7e6000830188612850565b612d8b602083018761286e565b612d98604083018661286e565b612da5606083018561286e565b612db2608083018461286e565b9695505050505050565b6000602082019050612dd1600083018461287d565b92915050565b60006020820190508181036000830152612df08161288c565b9050919050565b60006020820190508181036000830152612e10816128cc565b9050919050565b60006020820190508181036000830152612e3081612932565b9050919050565b60006020820190508181036000830152612e5081612998565b9050919050565b60006020820190508181036000830152612e70816129d8565b9050919050565b60006020820190508181036000830152612e9081612a18565b9050919050565b60006020820190508181036000830152612eb081612a58565b9050919050565b60006020820190508181036000830152612ed081612abe565b9050919050565b60006020820190508181036000830152612ef081612afe565b9050919050565b60006020820190508181036000830152612f1081612b3e565b9050919050565b60006020820190508181036000830152612f3081612b7e565b9050919050565b60006020820190508181036000830152612f5081612bbe565b9050919050565b60006020820190508181036000830152612f7081612bfe565b9050919050565b60006020820190508181036000830152612f9081612c3e565b9050919050565b60006020820190508181036000830152612fb081612c7e565b9050919050565b60006020820190508181036000830152612fd081612cbe565b9050919050565b6000602082019050612fec6000830184612d24565b92915050565b600082825260208201905092915050565b600061300e82613046565b9050919050565b600061302082613046565b9050919050565b60008115159050919050565b600081905061304182613082565b919050565b600073ffffffffffffffffffffffffffffffffffffffff82169050919050565b6000819050919050565b600061307b82613033565b9050919050565b6003811061308c57fe5b50565b61309881613003565b81146130a357600080fd5b50565b6130af81613066565b81146130ba57600080fd5b5056fea365627a7a72315820ddaf383aaeb17883395120b192647308a96cfb3f170262ba55874ce748edcb4d6c6578706572696d656e74616cf564736f6c63430005100040",
  "source": "pragma solidity >=0.4.22 <0.7.0;\npragma experimental ABIEncoderV2;\n\ncontract oneRoundReusable {\n    enum Stages {\n        //Stages of the round\n        Setup,\n        Save,\n        Finished\n    }\n\n    struct User {\n        //Information from each user\n        address payable userAddr;\n        bool cashInFlag;\n        bool saveAmountFlag;\n        bool currentRoundFlag; //defines if the user is participating in the current round\n        bool latePaymentFlag;\n    }\n\n    mapping(address => User) public users;\n    address payable public admin; //The user that deploy the contract is the administrator\n\n    //Constructor deployment variables\n    uint256 cashIn; //amount to be payed as commitment at the begining of the saving circle\n    uint256 saveAmount; //Payment on each round/cycle\n    uint256 public groupSize; //Number of slots for users to participate on the saving circle\n\n    //Counters and flags\n    uint8 usersCounter = 0;\n    uint256 CashInPayeesCount = 0; //Comitment payments counter\n    uint256 saveAmountPayeesCount = 0; //Payments done in round counter\n    uint256 public turn = 1; //Current cycle/round in the saving circle\n    uint256 startTime;\n    uint256 public totalSaveAmount = 0; //Collective saving on the round\n    uint256 public totalCashIn = 0;\n    uint256 public cashOutUsers;\n    uint256 cashOut=0;\n    address[] public addressOrderList=[address(0),address(0),address(0)];\n    Stages public stage;\n\n    //Time constants in seconds\n    uint256 payTime = 5 * 60;\n    uint256 withdrawTime = 5 * 60;\n\n    constructor(\n        uint256 _cashIn,\n        uint256 _saveAmount,\n        uint256 _groupSize\n    ) public {\n        admin = msg.sender;\n        cashIn = _cashIn * 1e17;\n        saveAmount = _saveAmount * 1e17;\n        groupSize = _groupSize;\n        cashOutUsers = groupSize;\n        stage = Stages.Setup;\n    }\n\n    modifier isUsersTurn() {\n        //Verifies if it is the users round to widraw\n        require(\n            msg.sender == addressOrderList[turn - 1],\n            \"Debes esperar tu turno para retirar\"\n        );\n        _;\n    }\n\nmodifier isNotUsersTurn() {\n        //Verifies if it is not the users round to widraw\n        require(\n            msg.sender != addressOrderList[turn - 1],\n            \"En este turno no depositas\"\n        );\n        _;\n    }\n\n    modifier isRegisteredUser() {\n        //Verifies if it is the users round to widraw\n        require(\n            users[msg.sender].currentRoundFlag == true,\n            \"Usuario no registrado\"\n        );\n        _;\n    }\n\n    modifier isPayAmountCorrect() {\n        //Verifies if it is the users round to widraw\n        require(msg.value == cashIn, \"Fondos Insuficientes\");\n        _;\n    }\n\n    modifier atStage(Stages _stage) {\n        require(stage == _stage);\n        _;\n    }\n\n    modifier onlyAdmin() {\n        require(msg.sender == admin, \"Solo el admin puede llamar la funcion\");\n        _;\n    }\n\n    function registerUser(uint256 _usrTurn)\n        public\n        payable\n        isPayAmountCorrect\n        atStage(Stages.Setup)\n    {\n        require(usersCounter < groupSize, \"El grupo esta completo\"); //the saving circle is full\n        require(addressOrderList[_usrTurn-1]==address(0), \"Este lugar ya esta ocupado\" );\n        usersCounter++;\n        totalCashIn = totalCashIn + msg.value;\n        users[msg.sender] = User(\n            msg.sender,\n            true,\n            false,\n            true,\n            false\n        );\n        addressOrderList[_usrTurn-1]=msg.sender; //store user\n        CashInPayeesCount++;\n    }\n\n    function removeUser(uint256 _usrTurn)\n        public\n        payable\n        onlyAdmin\n        atStage(Stages.Setup)\n    {\n      require(addressOrderList[_usrTurn-1]!=address(0), \"Este turno esta vacio\");\n      if(users[msg.sender].cashInFlag == true){\n          totalCashIn = totalCashIn - msg.value;\n          users[msg.sender].userAddr.transfer(cashIn);\n          CashInPayeesCount--;\n          users[msg.sender].cashInFlag = false;\n      }\n      addressOrderList[_usrTurn-1]=address(0);\n      usersCounter--;\n      users[msg.sender].currentRoundFlag = false;\n    }\n\n    function startRound()\n        public\n        onlyAdmin\n        atStage(Stages.Setup)\n    {\n        require(CashInPayeesCount == groupSize, \"Aun hay lugares sin asignar\");\n        stage = Stages.Save;\n        startTime=now;\n    }\n\n    function payTurn()\n        public\n        payable\n        isRegisteredUser\n        isPayAmountCorrect\n        isNotUsersTurn\n        atStage(Stages.Save)\n    {\n        //users make the payment for the cycle\n        require(\n            users[msg.sender].saveAmountFlag == false,\n            \"Ya ahorraste este turno\"\n        ); //you have already saved this round\n        require(now <= startTime + turn*payTime + (turn-1)*withdrawTime , \"Pago tardio\");\n        totalSaveAmount = totalSaveAmount + msg.value;\n        users[msg.sender].saveAmountFlag = true;\n        saveAmountPayeesCount++;\n        if (saveAmountPayeesCount == groupSize-1) {\n            saveAmountPayeesCount = 0;\n        }\n    }\n\n    function payLateTurn()\n        public\n        payable\n        isRegisteredUser\n        isPayAmountCorrect\n        atStage(Stages.Save)\n    {\n        //users make the payment for the cycle\n        require(\n            users[msg.sender].latePaymentFlag == true,\n            \"Estas al corriente en pagos\"\n        ); //you have already saved this round\n        totalCashIn = totalCashIn + msg.value;\n        if (totalCashIn == groupSize*cashIn) {\n            users[msg.sender].latePaymentFlag == false;\n        }\n    }\n\n    function withdrawTurn()\n        public\n        payable\n        isRegisteredUser\n        atStage(Stages.Save)\n        isUsersTurn\n    {\n        require(now <= startTime + turn*payTime + turn*withdrawTime , \"Termino el tiempo de retiro\");\n        if (\n            startTime + turn*payTime + (turn-1)*withdrawTime < now\n        ) {\n            for (uint8 i = 0; i < groupSize; i++) {\n                address useraddress = addressOrderList[i];\n                if (users[useraddress].saveAmountFlag == false && addressOrderList[turn - 1] != users[useraddress].userAddr\n                ) {\n                    totalCashIn = totalCashIn - saveAmount;\n                    totalSaveAmount = totalSaveAmount + saveAmount;\n                    if (users[useraddress].latePaymentFlag == false){\n                        cashOutUsers--;\n                        users[useraddress].latePaymentFlag = true;\n                        CashInPayeesCount--;\n                        users[useraddress].cashInFlag = false;\n                    }\n                }\n\n             }\n\n        }\n        require(\n            totalSaveAmount == (groupSize-1) * saveAmount,\n            \"Espera a que tengamos el monto de tu ahorro\"\n        ); //Se debe estar en fase de pago\n        address addressUserInTurn = addressOrderList[turn - 1];\n        users[addressUserInTurn].userAddr.transfer(totalSaveAmount);\n        totalSaveAmount = 0;\n        if (turn >= groupSize) {\n            stage = Stages.Finished;\n        } else {\n            newTurn();\n        }\n        turn++;\n    }\n\n    function newTurn() private {\n        //repeats the save and pay stages according to the saving circle size\n        for (uint8 i = 0; i < groupSize; i++) {\n            address useraddress = addressOrderList[i];\n            users[useraddress].saveAmountFlag = false;\n        }\n    }\n\n    function advanceTurn()\n        public\n        payable\n        onlyAdmin\n        atStage(Stages.Save)\n    {\n        require(startTime + turn*payTime + turn*withdrawTime < now , \"El usuario en turno aun puede retirar\");\n        if (\n            totalSaveAmount < (groupSize-1) * saveAmount\n            )\n        {\n            for (uint8 i = 0; i < groupSize; i++) {\n                address useraddress = addressOrderList[i];\n                if (users[useraddress].saveAmountFlag == false && addressOrderList[turn - 1] != users[useraddress].userAddr\n                ) {\n                    totalCashIn = totalCashIn - saveAmount;\n                    totalSaveAmount = totalSaveAmount + saveAmount;\n                    if (users[useraddress].latePaymentFlag == false){\n                        cashOutUsers--;\n                        users[useraddress].latePaymentFlag = true;\n                        CashInPayeesCount--;\n                        users[useraddress].cashInFlag = false;\n                    }\n                }\n\n             }\n        }\n\n        address addressUserInTurn = addressOrderList[turn - 1];\n        users[addressUserInTurn].userAddr.transfer(totalSaveAmount);\n        totalSaveAmount = 0;\n        if (turn >= groupSize) {\n            stage = Stages.Finished;\n        } else {\n            newTurn();\n        }\n        turn++;\n    }\n\n    function withdrawCashIn()\n        public\n        payable\n        atStage(Stages.Finished)\n        onlyAdmin\n    {\n        //When all the rounds are done the admin sends the cash in to the users\n        cashOut=totalCashIn/cashOutUsers;\n        for (uint8 i = 0; i < groupSize; i++) {\n            address useraddress = addressOrderList[i];\n            if (users[useraddress].latePaymentFlag == false) {\n                users[useraddress].userAddr.transfer(cashOut);\n            }\n        }\n    }\n\n    function restartRound()\n        public\n        payable\n        atStage(Stages.Finished)\n        onlyAdmin\n    {\n        if(totalCashIn<cashIn*cashOutUsers){\n            cashOut=totalCashIn/cashOutUsers;\n            for(uint8 i = 0; i<groupSize; i++){\n                address useraddress = addressOrderList[i];\n                if (users[useraddress].latePaymentFlag == false) {\n                    users[useraddress].userAddr.transfer(cashOut);\n                }\n                users[useraddress].cashInFlag = false;\n                users[useraddress].latePaymentFlag = false;\n                users[useraddress].saveAmountFlag = false;\n            }\n            totalCashIn=0;\n        }\n        else if (totalCashIn==cashIn*cashOutUsers){\n            for (uint8 i = 0; i < groupSize; i++) {\n                address useraddress = addressOrderList[i];\n                users[useraddress].latePaymentFlag = false;\n                users[useraddress].saveAmountFlag = false;\n            }\n        }\n        cashOutUsers = groupSize;\n        totalSaveAmount = 0;\n        turn = 1;\n        stage = Stages.Setup;\n    }\n\n    function payCashIn()\n        public\n        payable\n        atStage(Stages.Setup)\n        isRegisteredUser\n    {       //Receive the comitment payment\n        require(users[msg.sender].cashInFlag == false, \"Ya tenemos regisrado tu CashIn\"); //you have payed the cash in\n        require(msg.value == cashIn, 'Fondos Insuficientes');   //insufucuent funds\n        totalCashIn = totalCashIn + msg.value;\n        users[msg.sender].cashInFlag = true;\n        CashInPayeesCount++;\n    }\n}\n",
  "sourcePath": "/home/nita/Documents/01.Projects/BloinX/repo/contracts/oneRoundReusable.sol",
  "compiler": {
    "name": "solc",
    "version": "0.5.16+commit.9c3226ce.Emscripten.clang"
  },
  "schemaVersion": "3.2.2",
  "updatedAt": "2021-01-23T01:07:29.172Z",
  "networkType": "ethereum",
  "devdoc": {
    "methods": {}
  },
  "userdoc": {
    "methods": {}
  }
}