{
  "contractName": "oneRoundReusable",
  "abi": [
    {
      "inputs": [
        {
          "internalType": "uint256",
          "name": "_cashIn",
          "type": "uint256"
        },
        {
          "internalType": "uint256",
          "name": "_saveAmount",
          "type": "uint256"
        },
        {
          "internalType": "uint256",
          "name": "_groupSize",
          "type": "uint256"
        }
      ],
      "payable": false,
      "stateMutability": "nonpayable",
      "type": "constructor"
    },
    {
      "constant": true,
      "inputs": [
        {
          "internalType": "uint256",
          "name": "",
          "type": "uint256"
        }
      ],
      "name": "addressOrderList",
      "outputs": [
        {
          "internalType": "address",
          "name": "",
          "type": "address"
        }
      ],
      "payable": false,
      "stateMutability": "view",
      "type": "function"
    },
    {
      "constant": true,
      "inputs": [],
      "name": "admin",
      "outputs": [
        {
          "internalType": "address payable",
          "name": "",
          "type": "address"
        }
      ],
      "payable": false,
      "stateMutability": "view",
      "type": "function"
    },
    {
      "constant": true,
      "inputs": [],
      "name": "cashOutUsers",
      "outputs": [
        {
          "internalType": "uint256",
          "name": "",
          "type": "uint256"
        }
      ],
      "payable": false,
      "stateMutability": "view",
      "type": "function"
    },
    {
      "constant": true,
      "inputs": [],
      "name": "groupSize",
      "outputs": [
        {
          "internalType": "uint256",
          "name": "",
          "type": "uint256"
        }
      ],
      "payable": false,
      "stateMutability": "view",
      "type": "function"
    },
    {
      "constant": true,
      "inputs": [],
      "name": "stage",
      "outputs": [
        {
          "internalType": "enum oneRoundReusable.Stages",
          "name": "",
          "type": "uint8"
        }
      ],
      "payable": false,
      "stateMutability": "view",
      "type": "function"
    },
    {
      "constant": true,
      "inputs": [],
      "name": "totalCashIn",
      "outputs": [
        {
          "internalType": "uint256",
          "name": "",
          "type": "uint256"
        }
      ],
      "payable": false,
      "stateMutability": "view",
      "type": "function"
    },
    {
      "constant": true,
      "inputs": [],
      "name": "totalSaveAmount",
      "outputs": [
        {
          "internalType": "uint256",
          "name": "",
          "type": "uint256"
        }
      ],
      "payable": false,
      "stateMutability": "view",
      "type": "function"
    },
    {
      "constant": true,
      "inputs": [],
      "name": "turn",
      "outputs": [
        {
          "internalType": "uint256",
          "name": "",
          "type": "uint256"
        }
      ],
      "payable": false,
      "stateMutability": "view",
      "type": "function"
    },
    {
      "constant": true,
      "inputs": [
        {
          "internalType": "address",
          "name": "",
          "type": "address"
        }
      ],
      "name": "users",
      "outputs": [
        {
          "internalType": "address payable",
          "name": "userAddr",
          "type": "address"
        },
        {
          "internalType": "bool",
          "name": "cashInFlag",
          "type": "bool"
        },
        {
          "internalType": "bool",
          "name": "saveAmountFlag",
          "type": "bool"
        },
        {
          "internalType": "bool",
          "name": "currentRoundFlag",
          "type": "bool"
        },
        {
          "internalType": "bool",
          "name": "latePaymentFlag",
          "type": "bool"
        }
      ],
      "payable": false,
      "stateMutability": "view",
      "type": "function"
    },
    {
      "constant": false,
      "inputs": [
        {
          "internalType": "uint256",
          "name": "_usrTurn",
          "type": "uint256"
        }
      ],
      "name": "registerUser",
      "outputs": [],
      "payable": true,
      "stateMutability": "payable",
      "type": "function"
    },
    {
      "constant": false,
      "inputs": [],
      "name": "startRound",
      "outputs": [],
      "payable": false,
      "stateMutability": "nonpayable",
      "type": "function"
    },
    {
      "constant": false,
      "inputs": [],
      "name": "payTurn",
      "outputs": [],
      "payable": true,
      "stateMutability": "payable",
      "type": "function"
    },
    {
      "constant": false,
      "inputs": [],
      "name": "withdrawTurn",
      "outputs": [],
      "payable": true,
      "stateMutability": "payable",
      "type": "function"
    },
    {
      "constant": false,
      "inputs": [],
      "name": "advanceTurn",
      "outputs": [],
      "payable": true,
      "stateMutability": "payable",
      "type": "function"
    },
    {
      "constant": false,
      "inputs": [],
      "name": "withdrawCashIn",
      "outputs": [],
      "payable": true,
      "stateMutability": "payable",
      "type": "function"
    },
    {
      "constant": false,
      "inputs": [],
      "name": "restartRound",
      "outputs": [],
      "payable": true,
      "stateMutability": "payable",
      "type": "function"
    },
    {
      "constant": false,
      "inputs": [],
      "name": "payCashIn",
      "outputs": [],
      "payable": true,
      "stateMutability": "payable",
      "type": "function"
    }
  ],
  "bytecode": "0x60806040526000600560006101000a81548160ff021916908360ff1602179055506000600655600060075560016008556000600a556000600b556000600d556040518060600160405280600073ffffffffffffffffffffffffffffffffffffffff1673ffffffffffffffffffffffffffffffffffffffff168152602001600073ffffffffffffffffffffffffffffffffffffffff1673ffffffffffffffffffffffffffffffffffffffff168152602001600073ffffffffffffffffffffffffffffffffffffffff1673ffffffffffffffffffffffffffffffffffffffff16815250600e906003620000f2929190620001d1565b506078601055603c6011553480156200010a57600080fd5b5060405162002d6338038062002d638339818101604052620001309190810190620002bd565b33600160006101000a81548173ffffffffffffffffffffffffffffffffffffffff021916908373ffffffffffffffffffffffffffffffffffffffff16021790555067016345785d8a0000830260028190555067016345785d8a0000820260038190555080600481905550600454600c819055506000600f60006101000a81548160ff02191690836002811115620001c357fe5b021790555050505062000337565b8280548282559060005260206000209081019282156200024d579160200282015b828111156200024c5782518260006101000a81548173ffffffffffffffffffffffffffffffffffffffff021916908373ffffffffffffffffffffffffffffffffffffffff16021790555091602001919060010190620001f2565b5b5090506200025c919062000260565b5090565b620002a391905b808211156200029f57600081816101000a81549073ffffffffffffffffffffffffffffffffffffffff02191690555060010162000267565b5090565b90565b600081519050620002b7816200031d565b92915050565b600080600060608486031215620002d357600080fd5b6000620002e386828701620002a6565b9350506020620002f686828701620002a6565b92505060406200030986828701620002a6565b9150509250925092565b6000819050919050565b620003288162000313565b81146200033457600080fd5b50565b612a1c80620003476000396000f3fe6080604052600436106100fe5760003560e01c80636f3d7e6411610095578063b4bde59e11610064578063b4bde59e14610267578063b6a26cab14610292578063b842478b1461029c578063c040e6b8146102c7578063f851a440146102f2576100fe565b80636f3d7e64146101e757806371c5061c146101f15780638b299903146101fb578063a87430ba14610226576100fe565b80635394dda8116100d15780635394dda81461013d57806355e3f0861461017a57806363b635ea1461019157806364f9a17c146101bc576100fe565b8063193e76c7146101035780631bbfae0e1461010d5780632d14252f1461012957806330fceb6c14610133575b600080fd5b61010b61031d565b005b61012760048036036101229190810190612203565b610653565b005b6101316109c6565b005b61013b610e96565b005b34801561014957600080fd5b50610164600480360361015f9190810190612203565b6114f0565b604051610171919061268f565b60405180910390f35b34801561018657600080fd5b5061018f61152c565b005b34801561019d57600080fd5b506101a6611663565b6040516101b391906128f3565b60405180910390f35b3480156101c857600080fd5b506101d1611669565b6040516101de91906128f3565b60405180910390f35b6101ef61166f565b005b6101f9611bc2565b005b34801561020757600080fd5b50610210611ddd565b60405161021d91906128f3565b60405180910390f35b34801561023257600080fd5b5061024d600480360361024891908101906121da565b611de3565b60405161025e9594939291906126c5565b60405180910390f35b34801561027357600080fd5b5061027c611e6d565b60405161028991906128f3565b60405180910390f35b61029a611e73565b005b3480156102a857600080fd5b506102b16120b4565b6040516102be91906128f3565b60405180910390f35b3480156102d357600080fd5b506102dc6120ba565b6040516102e99190612718565b60405180910390f35b3480156102fe57600080fd5b506103076120cd565b60405161031491906126aa565b60405180910390f35b600115156000803373ffffffffffffffffffffffffffffffffffffffff1673ffffffffffffffffffffffffffffffffffffffff16815260200190815260200160002060000160169054906101000a900460ff161515146103b2576040517f08c379a00000000000000000000000000000000000000000000000000000000081526004016103a990612793565b60405180910390fd5b60025434146103f6576040517f08c379a00000000000000000000000000000000000000000000000000000000081526004016103ed90612853565b60405180910390fd5b600e6001600854038154811061040857fe5b9060005260206000200160009054906101000a900473ffffffffffffffffffffffffffffffffffffffff1673ffffffffffffffffffffffffffffffffffffffff163373ffffffffffffffffffffffffffffffffffffffff1614156104a1576040517f08c379a0000000000000000000000000000000000000000000000000000000008152600401610498906128b3565b60405180910390fd5b60018060028111156104af57fe5b600f60009054906101000a900460ff1660028111156104ca57fe5b146104d457600080fd5b600015156000803373ffffffffffffffffffffffffffffffffffffffff1673ffffffffffffffffffffffffffffffffffffffff16815260200190815260200160002060000160159054906101000a900460ff16151514610569576040517f08c379a0000000000000000000000000000000000000000000000000000000008152600401610560906127f3565b60405180910390fd5b601154600160085403026010546008540260095401014211156105c1576040517f08c379a00000000000000000000000000000000000000000000000000000000081526004016105b890612893565b60405180910390fd5b34600a5401600a8190555060016000803373ffffffffffffffffffffffffffffffffffffffff1673ffffffffffffffffffffffffffffffffffffffff16815260200190815260200160002060000160156101000a81548160ff02191690831515021790555060076000815480929190600101919050555060016004540360075414156106505760006007819055505b50565b6002543414610697576040517f08c379a000000000000000000000000000000000000000000000000000000000815260040161068e90612853565b60405180910390fd5b60008060028111156106a557fe5b600f60009054906101000a900460ff1660028111156106c057fe5b146106ca57600080fd5b600454600560009054906101000a900460ff1660ff1610610720576040517f08c379a0000000000000000000000000000000000000000000000000000000008152600401610717906127d3565b60405180910390fd5b600073ffffffffffffffffffffffffffffffffffffffff16600e600184038154811061074857fe5b9060005260206000200160009054906101000a900473ffffffffffffffffffffffffffffffffffffffff1673ffffffffffffffffffffffffffffffffffffffff16146107c9576040517f08c379a00000000000000000000000000000000000000000000000000000000081526004016107c090612773565b60405180910390fd5b6005600081819054906101000a900460ff168092919060010191906101000a81548160ff021916908360ff1602179055505034600b5401600b819055506040518060a001604052803373ffffffffffffffffffffffffffffffffffffffff168152602001600115158152602001600015158152602001600115158152602001600015158152506000803373ffffffffffffffffffffffffffffffffffffffff1673ffffffffffffffffffffffffffffffffffffffff16815260200190815260200160002060008201518160000160006101000a81548173ffffffffffffffffffffffffffffffffffffffff021916908373ffffffffffffffffffffffffffffffffffffffff16021790555060208201518160000160146101000a81548160ff02191690831515021790555060408201518160000160156101000a81548160ff02191690831515021790555060608201518160000160166101000a81548160ff02191690831515021790555060808201518160000160176101000a81548160ff02191690831515021790555090505033600e600184038154811061096857fe5b9060005260206000200160006101000a81548173ffffffffffffffffffffffffffffffffffffffff021916908373ffffffffffffffffffffffffffffffffffffffff1602179055506006600081548092919060010191905055505050565b60028060028111156109d457fe5b600f60009054906101000a900460ff1660028111156109ef57fe5b146109f957600080fd5b600160009054906101000a900473ffffffffffffffffffffffffffffffffffffffff1673ffffffffffffffffffffffffffffffffffffffff163373ffffffffffffffffffffffffffffffffffffffff1614610a89576040517f08c379a0000000000000000000000000000000000000000000000000000000008152600401610a8090612753565b60405180910390fd5b600c5460025402600b541015610d2f57600c54600b5481610aa657fe5b04600d8190555060008090505b6004548160ff161015610d21576000600e8260ff1681548110610ad257fe5b9060005260206000200160009054906101000a900473ffffffffffffffffffffffffffffffffffffffff169050600015156000808373ffffffffffffffffffffffffffffffffffffffff1673ffffffffffffffffffffffffffffffffffffffff16815260200190815260200160002060000160179054906101000a900460ff1615151415610c05576000808273ffffffffffffffffffffffffffffffffffffffff1673ffffffffffffffffffffffffffffffffffffffff16815260200190815260200160002060000160009054906101000a900473ffffffffffffffffffffffffffffffffffffffff1673ffffffffffffffffffffffffffffffffffffffff166108fc600d549081150290604051600060405180830381858888f19350505050158015610c03573d6000803e3d6000fd5b505b60008060008373ffffffffffffffffffffffffffffffffffffffff1673ffffffffffffffffffffffffffffffffffffffff16815260200190815260200160002060000160146101000a81548160ff02191690831515021790555060008060008373ffffffffffffffffffffffffffffffffffffffff1673ffffffffffffffffffffffffffffffffffffffff16815260200190815260200160002060000160176101000a81548160ff02191690831515021790555060008060008373ffffffffffffffffffffffffffffffffffffffff1673ffffffffffffffffffffffffffffffffffffffff16815260200190815260200160002060000160156101000a81548160ff021916908315150217905550508080600101915050610ab3565b506000600b81905550610e56565b600c5460025402600b541415610e555760008090505b6004548160ff161015610e53576000600e8260ff1681548110610d6457fe5b9060005260206000200160009054906101000a900473ffffffffffffffffffffffffffffffffffffffff16905060008060008373ffffffffffffffffffffffffffffffffffffffff1673ffffffffffffffffffffffffffffffffffffffff16815260200190815260200160002060000160176101000a81548160ff02191690831515021790555060008060008373ffffffffffffffffffffffffffffffffffffffff1673ffffffffffffffffffffffffffffffffffffffff16815260200190815260200160002060000160156101000a81548160ff021916908315150217905550508080600101915050610d45565b505b5b600454600c819055506000600a8190555060016008819055506000600f60006101000a81548160ff02191690836002811115610e8e57fe5b021790555050565b600115156000803373ffffffffffffffffffffffffffffffffffffffff1673ffffffffffffffffffffffffffffffffffffffff16815260200190815260200160002060000160169054906101000a900460ff16151514610f2b576040517f08c379a0000000000000000000000000000000000000000000000000000000008152600401610f2290612793565b60405180910390fd5b6001806002811115610f3957fe5b600f60009054906101000a900460ff166002811115610f5457fe5b14610f5e57600080fd5b600e60016008540381548110610f7057fe5b9060005260206000200160009054906101000a900473ffffffffffffffffffffffffffffffffffffffff1673ffffffffffffffffffffffffffffffffffffffff163373ffffffffffffffffffffffffffffffffffffffff1614611008576040517f08c379a0000000000000000000000000000000000000000000000000000000008152600401610fff906128d3565b60405180910390fd5b6011546008540260105460085402600954010142111561105d576040517f08c379a000000000000000000000000000000000000000000000000000000000815260040161105490612833565b60405180910390fd5b4260115460016008540302601054600854026009540101101561135d5760008090505b6004548160ff16101561135b576000600e8260ff168154811061109f57fe5b9060005260206000200160009054906101000a900473ffffffffffffffffffffffffffffffffffffffff169050600015156000808373ffffffffffffffffffffffffffffffffffffffff1673ffffffffffffffffffffffffffffffffffffffff16815260200190815260200160002060000160159054906101000a900460ff1615151480156111f757506000808273ffffffffffffffffffffffffffffffffffffffff1673ffffffffffffffffffffffffffffffffffffffff16815260200190815260200160002060000160009054906101000a900473ffffffffffffffffffffffffffffffffffffffff1673ffffffffffffffffffffffffffffffffffffffff16600e600160085403815481106111b357fe5b9060005260206000200160009054906101000a900473ffffffffffffffffffffffffffffffffffffffff1673ffffffffffffffffffffffffffffffffffffffff1614155b1561134d57600354600b5403600b81905550600354600a5401600a81905550600015156000808373ffffffffffffffffffffffffffffffffffffffff1673ffffffffffffffffffffffffffffffffffffffff16815260200190815260200160002060000160179054906101000a900460ff161515141561134c57600c600081548092919060019003919050555060016000808373ffffffffffffffffffffffffffffffffffffffff1673ffffffffffffffffffffffffffffffffffffffff16815260200190815260200160002060000160176101000a81548160ff0219169083151502179055506006600081548092919060019003919050555060008060008373ffffffffffffffffffffffffffffffffffffffff1673ffffffffffffffffffffffffffffffffffffffff16815260200190815260200160002060000160146101000a81548160ff0219169083151502179055505b5b508080600101915050611080565b505b60035460016004540302600a54146113aa576040517f08c379a00000000000000000000000000000000000000000000000000000000081526004016113a1906127b3565b60405180910390fd5b6000600e600160085403815481106113be57fe5b9060005260206000200160009054906101000a900473ffffffffffffffffffffffffffffffffffffffff1690506000808273ffffffffffffffffffffffffffffffffffffffff1673ffffffffffffffffffffffffffffffffffffffff16815260200190815260200160002060000160009054906101000a900473ffffffffffffffffffffffffffffffffffffffff1673ffffffffffffffffffffffffffffffffffffffff166108fc600a549081150290604051600060405180830381858888f19350505050158015611494573d6000803e3d6000fd5b506000600a81905550600454600854106114d1576002600f60006101000a81548160ff021916908360028111156114c757fe5b02179055506114da565b6114d96120f3565b5b6008600081548092919060010191905055505050565b600e81815481106114fd57fe5b906000526020600020016000915054906101000a900473ffffffffffffffffffffffffffffffffffffffff1681565b600160009054906101000a900473ffffffffffffffffffffffffffffffffffffffff1673ffffffffffffffffffffffffffffffffffffffff163373ffffffffffffffffffffffffffffffffffffffff16146115bc576040517f08c379a00000000000000000000000000000000000000000000000000000000081526004016115b390612753565b60405180910390fd5b60008060028111156115ca57fe5b600f60009054906101000a900460ff1660028111156115e557fe5b146115ef57600080fd5b60045460065414611635576040517f08c379a000000000000000000000000000000000000000000000000000000000815260040161162c90612873565b60405180910390fd5b6001600f60006101000a81548160ff0219169083600281111561165457fe5b02179055504260098190555050565b60045481565b600a5481565b600160009054906101000a900473ffffffffffffffffffffffffffffffffffffffff1673ffffffffffffffffffffffffffffffffffffffff163373ffffffffffffffffffffffffffffffffffffffff16146116ff576040517f08c379a00000000000000000000000000000000000000000000000000000000081526004016116f690612753565b60405180910390fd5b600180600281111561170d57fe5b600f60009054906101000a900460ff16600281111561172857fe5b1461173257600080fd5b426011546008540260105460085402600954010110611786576040517f08c379a000000000000000000000000000000000000000000000000000000000815260040161177d90612733565b60405180910390fd5b60035460016004540302600a541015611a7c5760008090505b6004548160ff161015611a7a576000600e8260ff16815481106117be57fe5b9060005260206000200160009054906101000a900473ffffffffffffffffffffffffffffffffffffffff169050600015156000808373ffffffffffffffffffffffffffffffffffffffff1673ffffffffffffffffffffffffffffffffffffffff16815260200190815260200160002060000160159054906101000a900460ff16151514801561191657506000808273ffffffffffffffffffffffffffffffffffffffff1673ffffffffffffffffffffffffffffffffffffffff16815260200190815260200160002060000160009054906101000a900473ffffffffffffffffffffffffffffffffffffffff1673ffffffffffffffffffffffffffffffffffffffff16600e600160085403815481106118d257fe5b9060005260206000200160009054906101000a900473ffffffffffffffffffffffffffffffffffffffff1673ffffffffffffffffffffffffffffffffffffffff1614155b15611a6c57600354600b5403600b81905550600354600a5401600a81905550600015156000808373ffffffffffffffffffffffffffffffffffffffff1673ffffffffffffffffffffffffffffffffffffffff16815260200190815260200160002060000160179054906101000a900460ff1615151415611a6b57600c600081548092919060019003919050555060016000808373ffffffffffffffffffffffffffffffffffffffff1673ffffffffffffffffffffffffffffffffffffffff16815260200190815260200160002060000160176101000a81548160ff0219169083151502179055506006600081548092919060019003919050555060008060008373ffffffffffffffffffffffffffffffffffffffff1673ffffffffffffffffffffffffffffffffffffffff16815260200190815260200160002060000160146101000a81548160ff0219169083151502179055505b5b50808060010191505061179f565b505b6000600e60016008540381548110611a9057fe5b9060005260206000200160009054906101000a900473ffffffffffffffffffffffffffffffffffffffff1690506000808273ffffffffffffffffffffffffffffffffffffffff1673ffffffffffffffffffffffffffffffffffffffff16815260200190815260200160002060000160009054906101000a900473ffffffffffffffffffffffffffffffffffffffff1673ffffffffffffffffffffffffffffffffffffffff166108fc600a549081150290604051600060405180830381858888f19350505050158015611b66573d6000803e3d6000fd5b506000600a8190555060045460085410611ba3576002600f60006101000a81548160ff02191690836002811115611b9957fe5b0217905550611bac565b611bab6120f3565b5b6008600081548092919060010191905055505050565b6000806002811115611bd057fe5b600f60009054906101000a900460ff166002811115611beb57fe5b14611bf557600080fd5b600115156000803373ffffffffffffffffffffffffffffffffffffffff1673ffffffffffffffffffffffffffffffffffffffff16815260200190815260200160002060000160169054906101000a900460ff16151514611c8a576040517f08c379a0000000000000000000000000000000000000000000000000000000008152600401611c8190612793565b60405180910390fd5b600015156000803373ffffffffffffffffffffffffffffffffffffffff1673ffffffffffffffffffffffffffffffffffffffff16815260200190815260200160002060000160149054906101000a900460ff16151514611d1f576040517f08c379a0000000000000000000000000000000000000000000000000000000008152600401611d1690612813565b60405180910390fd5b6002543414611d63576040517f08c379a0000000000000000000000000000000000000000000000000000000008152600401611d5a90612853565b60405180910390fd5b34600b5401600b8190555060016000803373ffffffffffffffffffffffffffffffffffffffff1673ffffffffffffffffffffffffffffffffffffffff16815260200190815260200160002060000160146101000a81548160ff02191690831515021790555060066000815480929190600101919050555050565b60085481565b60006020528060005260406000206000915090508060000160009054906101000a900473ffffffffffffffffffffffffffffffffffffffff16908060000160149054906101000a900460ff16908060000160159054906101000a900460ff16908060000160169054906101000a900460ff16908060000160179054906101000a900460ff16905085565b600b5481565b6002806002811115611e8157fe5b600f60009054906101000a900460ff166002811115611e9c57fe5b14611ea657600080fd5b600160009054906101000a900473ffffffffffffffffffffffffffffffffffffffff1673ffffffffffffffffffffffffffffffffffffffff163373ffffffffffffffffffffffffffffffffffffffff1614611f36576040517f08c379a0000000000000000000000000000000000000000000000000000000008152600401611f2d90612753565b60405180910390fd5b600c54600b5481611f4357fe5b04600d8190555060008090505b6004548160ff1610156120b0576000600e8260ff1681548110611f6f57fe5b9060005260206000200160009054906101000a900473ffffffffffffffffffffffffffffffffffffffff169050600015156000808373ffffffffffffffffffffffffffffffffffffffff1673ffffffffffffffffffffffffffffffffffffffff16815260200190815260200160002060000160179054906101000a900460ff16151514156120a2576000808273ffffffffffffffffffffffffffffffffffffffff1673ffffffffffffffffffffffffffffffffffffffff16815260200190815260200160002060000160009054906101000a900473ffffffffffffffffffffffffffffffffffffffff1673ffffffffffffffffffffffffffffffffffffffff166108fc600d549081150290604051600060405180830381858888f193505050501580156120a0573d6000803e3d6000fd5b505b508080600101915050611f50565b5050565b600c5481565b600f60009054906101000a900460ff1681565b600160009054906101000a900473ffffffffffffffffffffffffffffffffffffffff1681565b60008090505b6004548160ff1610156121ad576000600e8260ff168154811061211857fe5b9060005260206000200160009054906101000a900473ffffffffffffffffffffffffffffffffffffffff16905060008060008373ffffffffffffffffffffffffffffffffffffffff1673ffffffffffffffffffffffffffffffffffffffff16815260200190815260200160002060000160156101000a81548160ff0219169083151502179055505080806001019150506120f9565b50565b6000813590506121bf816129ab565b92915050565b6000813590506121d4816129c2565b92915050565b6000602082840312156121ec57600080fd5b60006121fa848285016121b0565b91505092915050565b60006020828403121561221557600080fd5b6000612223848285016121c5565b91505092915050565b61223581612931565b82525050565b6122448161291f565b82525050565b61225381612943565b82525050565b6122628161298c565b82525050565b600061227560258361290e565b91507f456c207573756172696f20656e207475726e6f2061756e20707565646520726560008301527f74697261720000000000000000000000000000000000000000000000000000006020830152604082019050919050565b60006122db60258361290e565b91507f536f6c6f20656c2061646d696e207075656465206c6c616d6172206c6120667560008301527f6e63696f6e0000000000000000000000000000000000000000000000000000006020830152604082019050919050565b6000612341601a8361290e565b91507f45737465206c756761722079612065737461206f63757061646f0000000000006000830152602082019050919050565b600061238160158361290e565b91507f5573756172696f206e6f207265676973747261646f00000000000000000000006000830152602082019050919050565b60006123c1602b8361290e565b91507f4573706572612061207175652074656e67616d6f7320656c206d6f6e746f206460008301527f652074752061686f72726f0000000000000000000000000000000000000000006020830152604082019050919050565b600061242760168361290e565b91507f456c20677275706f206573746120636f6d706c65746f000000000000000000006000830152602082019050919050565b600061246760178361290e565b91507f59612061686f7272617374652065737465207475726e6f0000000000000000006000830152602082019050919050565b60006124a7601e8361290e565b91507f59612074656e656d6f732072656769737261646f2074752043617368496e00006000830152602082019050919050565b60006124e7601b8361290e565b91507f5465726d696e6f20656c207469656d706f2064652072657469726f00000000006000830152602082019050919050565b600061252760148361290e565b91507f466f6e646f7320496e737566696369656e7465730000000000000000000000006000830152602082019050919050565b6000612567601b8361290e565b91507f41756e20686179206c7567617265732073696e20617369676e617200000000006000830152602082019050919050565b60006125a7600b8361290e565b91507f5061676f2074617264696f0000000000000000000000000000000000000000006000830152602082019050919050565b60006125e7601a8361290e565b91507f456e2065737465207475726e6f206e6f206465706f73697461730000000000006000830152602082019050919050565b600061262760238361290e565b91507f44656265732065737065726172207475207475726e6f2070617261207265746960008301527f72617200000000000000000000000000000000000000000000000000000000006020830152604082019050919050565b61268981612982565b82525050565b60006020820190506126a4600083018461223b565b92915050565b60006020820190506126bf600083018461222c565b92915050565b600060a0820190506126da600083018861222c565b6126e7602083018761224a565b6126f4604083018661224a565b612701606083018561224a565b61270e608083018461224a565b9695505050505050565b600060208201905061272d6000830184612259565b92915050565b6000602082019050818103600083015261274c81612268565b9050919050565b6000602082019050818103600083015261276c816122ce565b9050919050565b6000602082019050818103600083015261278c81612334565b9050919050565b600060208201905081810360008301526127ac81612374565b9050919050565b600060208201905081810360008301526127cc816123b4565b9050919050565b600060208201905081810360008301526127ec8161241a565b9050919050565b6000602082019050818103600083015261280c8161245a565b9050919050565b6000602082019050818103600083015261282c8161249a565b9050919050565b6000602082019050818103600083015261284c816124da565b9050919050565b6000602082019050818103600083015261286c8161251a565b9050919050565b6000602082019050818103600083015261288c8161255a565b9050919050565b600060208201905081810360008301526128ac8161259a565b9050919050565b600060208201905081810360008301526128cc816125da565b9050919050565b600060208201905081810360008301526128ec8161261a565b9050919050565b60006020820190506129086000830184612680565b92915050565b600082825260208201905092915050565b600061292a82612962565b9050919050565b600061293c82612962565b9050919050565b60008115159050919050565b600081905061295d8261299e565b919050565b600073ffffffffffffffffffffffffffffffffffffffff82169050919050565b6000819050919050565b60006129978261294f565b9050919050565b600381106129a857fe5b50565b6129b48161291f565b81146129bf57600080fd5b50565b6129cb81612982565b81146129d657600080fd5b5056fea365627a7a7231582051e62d4c89ea5d8b8e02ceb1a638323e1b1beb241fecd27001f6a3ef509366936c6578706572696d656e74616cf564736f6c63430005100040",
  "source": "pragma solidity >=0.4.22 <0.7.0;\npragma experimental ABIEncoderV2;\n\ncontract oneRoundReusable {\n    enum Stages {\n        //Stages of the round\n        Setup, //register and receive the initial cash in\n        Save, //receive payments\n        Finished //Cash in is sent to the users\n    }\n\n    struct User {\n        //Information from each user\n        address payable userAddr;\n        bool cashInFlag;\n        bool saveAmountFlag;\n        bool currentRoundFlag; //defines if the user is participating in the current round\n        bool latePaymentFlag;\n    }\n\n    mapping(address => User) public users;\n    address payable public admin; //The user that deploy the contract is the administrator\n\n    //Constructor deployment variables\n    uint256 cashIn; //amount to be payed as commitment at the begining of the saving circle\n    uint256 saveAmount; //Payment on each round/cycle\n    uint256 public groupSize; //Number of slots for users to participate on the saving circle\n\n    //Counters and flags\n    uint8 usersCounter = 0;\n    uint256 CashInPayeesCount = 0; //Comitment payments counter\n    uint256 saveAmountPayeesCount = 0; //Payments done in round counter\n    uint256 public turn = 1; //Current cycle/round in the saving circle\n    uint256 startTime;\n    uint256 public totalSaveAmount = 0; //Collective saving on the round\n    uint256 public totalCashIn = 0;\n    uint256 public cashOutUsers;\n    uint256 cashOut=0;\n    address[] public addressOrderList=[address(0),address(0),address(0)];\n    Stages public stage;\n\n    //Time constants in seconds\n    uint256 payTime = 2 * 60;\n    uint256 withdrawTime = 1 * 60;\n\n    constructor(\n        uint256 _cashIn,\n        uint256 _saveAmount,\n        uint256 _groupSize\n    ) public {\n        admin = msg.sender;\n        cashIn = _cashIn * 1e17;\n        saveAmount = _saveAmount * 1e17;\n        groupSize = _groupSize;\n        cashOutUsers = groupSize;\n        stage = Stages.Setup;\n    }\n\n    modifier isUsersTurn() {\n        //Verifies if it is the users round to widraw\n        require(\n            msg.sender == addressOrderList[turn - 1],\n            \"Debes esperar tu turno para retirar\"\n        );\n        _;\n    }\n\nmodifier isNotUsersTurn() {\n        //Verifies if it is not the users round to widraw\n        require(\n            msg.sender != addressOrderList[turn - 1],\n            \"En este turno no depositas\"\n        );\n        _;\n    }\n\n    modifier isRegisteredUser() {\n        //Verifies if it is the users round to widraw\n        require(\n            users[msg.sender].currentRoundFlag == true,\n            \"Usuario no registrado\"\n        );\n        _;\n    }\n\n    modifier isPayAmountCorrect() {\n        //Verifies if it is the users round to widraw\n        require(msg.value == cashIn, \"Fondos Insuficientes\");\n        _;\n    }\n\n    modifier atStage(Stages _stage) {\n        require(stage == _stage);\n        _;\n    }\n\n    modifier onlyAdmin() {\n        require(msg.sender == admin, \"Solo el admin puede llamar la funcion\");\n        _;\n    }\n\n    function registerUser(uint256 _usrTurn)\n        public\n        payable\n        isPayAmountCorrect\n        atStage(Stages.Setup)\n    {\n        require(usersCounter < groupSize, \"El grupo esta completo\"); //the saving circle is full\n        require(addressOrderList[_usrTurn-1]==address(0), \"Este lugar ya esta ocupado\" );\n        usersCounter++;\n        totalCashIn = totalCashIn + msg.value;\n        users[msg.sender] = User(\n            msg.sender,\n            true,\n            false,\n            true,\n            false\n        );\n        addressOrderList[_usrTurn-1]=msg.sender; //store user\n        CashInPayeesCount++;\n    }\n\n    function startRound()\n        public\n        onlyAdmin\n        atStage(Stages.Setup)\n    {\n        require(CashInPayeesCount == groupSize, \"Aun hay lugares sin asignar\");\n        stage = Stages.Save;\n        startTime=now;\n    }\n\n    function payTurn()\n        public\n        payable\n        isRegisteredUser\n        isPayAmountCorrect\n        isNotUsersTurn\n        atStage(Stages.Save)\n    {\n        //users make the payment for the cycle\n        require(\n            users[msg.sender].saveAmountFlag == false,\n            \"Ya ahorraste este turno\"\n        ); //you have already saved this round\n        require(now <= startTime + turn*payTime + (turn-1)*withdrawTime , \"Pago tardio\");\n        totalSaveAmount = totalSaveAmount + msg.value;\n        users[msg.sender].saveAmountFlag = true;\n        saveAmountPayeesCount++;\n        if (saveAmountPayeesCount == groupSize-1) {\n            saveAmountPayeesCount = 0;\n        }\n    }\n\n    function withdrawTurn()\n        public\n        payable\n        isRegisteredUser\n        atStage(Stages.Save)\n        isUsersTurn\n    {\n        require(now <= startTime + turn*payTime + turn*withdrawTime , \"Termino el tiempo de retiro\");\n        if (\n            startTime + turn*payTime + (turn-1)*withdrawTime < now\n        ) {\n            for (uint8 i = 0; i < groupSize; i++) {\n                address useraddress = addressOrderList[i];\n                if (users[useraddress].saveAmountFlag == false && addressOrderList[turn - 1] != users[useraddress].userAddr\n                ) {\n                    totalCashIn = totalCashIn - saveAmount;\n                    totalSaveAmount = totalSaveAmount + saveAmount;\n                    if (users[useraddress].latePaymentFlag == false){\n                        cashOutUsers--;\n                        users[useraddress].latePaymentFlag = true;\n                        CashInPayeesCount--;\n                        users[useraddress].cashInFlag = false;\n                    }\n                }\n\n             }\n\n        }\n        require(\n            totalSaveAmount == (groupSize-1) * saveAmount,\n            \"Espera a que tengamos el monto de tu ahorro\"\n        ); //Se debe estar en fase de pago\n        address addressUserInTurn = addressOrderList[turn - 1];\n        users[addressUserInTurn].userAddr.transfer(totalSaveAmount);\n        totalSaveAmount = 0;\n        if (turn >= groupSize) {\n            stage = Stages.Finished;\n        } else {\n            newTurn();\n        }\n        turn++;\n    }\n\n    function newTurn() private {\n        //repeats the save and pay stages according to the saving circle size\n        for (uint8 i = 0; i < groupSize; i++) {\n            address useraddress = addressOrderList[i];\n            users[useraddress].saveAmountFlag = false;\n        }\n    }\n\n    function advanceTurn()\n        public\n        payable\n        onlyAdmin\n        atStage(Stages.Save)\n    {\n        require(startTime + turn*payTime + turn*withdrawTime < now , \"El usuario en turno aun puede retirar\");\n        if (\n            totalSaveAmount < (groupSize-1) * saveAmount\n            )\n        {\n            for (uint8 i = 0; i < groupSize; i++) {\n                address useraddress = addressOrderList[i];\n                if (users[useraddress].saveAmountFlag == false && addressOrderList[turn - 1] != users[useraddress].userAddr\n                ) {\n                    totalCashIn = totalCashIn - saveAmount;\n                    totalSaveAmount = totalSaveAmount + saveAmount;\n                    if (users[useraddress].latePaymentFlag == false){\n                        cashOutUsers--;\n                        users[useraddress].latePaymentFlag = true;\n                        CashInPayeesCount--;\n                        users[useraddress].cashInFlag = false;\n                    }\n                }\n\n             }\n        }\n\n        address addressUserInTurn = addressOrderList[turn - 1];\n        users[addressUserInTurn].userAddr.transfer(totalSaveAmount);\n        totalSaveAmount = 0;\n        if (turn >= groupSize) {\n            stage = Stages.Finished;\n        } else {\n            newTurn();\n        }\n        turn++;\n    }\n\n    function withdrawCashIn()\n        public\n        payable\n        atStage(Stages.Finished)\n        onlyAdmin\n    {\n        //When all the rounds are done the admin sends the cash in to the users\n        cashOut=totalCashIn/cashOutUsers;\n        for (uint8 i = 0; i < groupSize; i++) {\n            address useraddress = addressOrderList[i];\n            if (users[useraddress].latePaymentFlag == false) {\n                users[useraddress].userAddr.transfer(cashOut);\n            }\n        }\n    }\n\n    function restartRound()\n        public\n        payable\n        atStage(Stages.Finished)\n        onlyAdmin\n    {\n        if(totalCashIn<cashIn*cashOutUsers){\n            cashOut=totalCashIn/cashOutUsers;\n            for(uint8 i = 0; i<groupSize; i++){\n                address useraddress = addressOrderList[i];\n                if (users[useraddress].latePaymentFlag == false) {\n                    users[useraddress].userAddr.transfer(cashOut);\n                }\n                users[useraddress].cashInFlag = false;\n                users[useraddress].latePaymentFlag = false;\n                users[useraddress].saveAmountFlag = false;\n            }\n            totalCashIn=0;\n        }\n        else if (totalCashIn==cashIn*cashOutUsers){\n            for (uint8 i = 0; i < groupSize; i++) {\n                address useraddress = addressOrderList[i];\n                users[useraddress].latePaymentFlag = false;\n                users[useraddress].saveAmountFlag = false;\n            }\n        }\n        cashOutUsers = groupSize;\n        totalSaveAmount = 0;\n        turn = 1;\n        stage = Stages.Setup;\n    }\n\n    function payCashIn()\n        public\n        payable\n        atStage(Stages.Setup)\n        isRegisteredUser\n    {       //Receive the comitment payment\n        require(users[msg.sender].cashInFlag == false, \"Ya tenemos regisrado tu CashIn\"); //you have payed the cash in\n        require(msg.value == cashIn, 'Fondos Insuficientes');   //insufucuent funds\n        totalCashIn = totalCashIn + msg.value;\n        users[msg.sender].cashInFlag = true;\n        CashInPayeesCount++;\n    }\n}\n",
  "sourcePath": "/home/nita/Documents/01.Projects/BloinX/repo/contracts/oneRoundReusable.sol",
  "compiler": {
    "name": "solc",
    "version": "0.5.16+commit.9c3226ce.Emscripten.clang"
  },
  "schemaVersion": "3.2.2",
  "updatedAt": "2021-01-06T02:51:16.850Z",
  "networkType": "ethereum",
  "devdoc": {
    "methods": {}
  },
  "userdoc": {
    "methods": {}
  }
}