{
  "contractName": "oneRoundReusable",
  "abi": [
    {
      "inputs": [
        {
          "internalType": "uint256",
          "name": "_cashIn",
          "type": "uint256"
        },
        {
          "internalType": "uint256",
          "name": "_saveAmount",
          "type": "uint256"
        },
        {
          "internalType": "uint256",
          "name": "_groupSize",
          "type": "uint256"
        }
      ],
      "payable": false,
      "stateMutability": "nonpayable",
      "type": "constructor"
    },
    {
      "constant": true,
      "inputs": [
        {
          "internalType": "uint256",
          "name": "",
          "type": "uint256"
        }
      ],
      "name": "addressOrderList",
      "outputs": [
        {
          "internalType": "address",
          "name": "",
          "type": "address"
        }
      ],
      "payable": false,
      "stateMutability": "view",
      "type": "function"
    },
    {
      "constant": true,
      "inputs": [],
      "name": "admin",
      "outputs": [
        {
          "internalType": "address payable",
          "name": "",
          "type": "address"
        }
      ],
      "payable": false,
      "stateMutability": "view",
      "type": "function"
    },
    {
      "constant": true,
      "inputs": [],
      "name": "cashOutUsers",
      "outputs": [
        {
          "internalType": "uint256",
          "name": "",
          "type": "uint256"
        }
      ],
      "payable": false,
      "stateMutability": "view",
      "type": "function"
    },
    {
      "constant": true,
      "inputs": [],
      "name": "groupSize",
      "outputs": [
        {
          "internalType": "uint256",
          "name": "",
          "type": "uint256"
        }
      ],
      "payable": false,
      "stateMutability": "view",
      "type": "function"
    },
    {
      "constant": true,
      "inputs": [],
      "name": "stage",
      "outputs": [
        {
          "internalType": "enum oneRoundReusable.Stages",
          "name": "",
          "type": "uint8"
        }
      ],
      "payable": false,
      "stateMutability": "view",
      "type": "function"
    },
    {
      "constant": true,
      "inputs": [],
      "name": "totalCashIn",
      "outputs": [
        {
          "internalType": "uint256",
          "name": "",
          "type": "uint256"
        }
      ],
      "payable": false,
      "stateMutability": "view",
      "type": "function"
    },
    {
      "constant": true,
      "inputs": [],
      "name": "totalSaveAmount",
      "outputs": [
        {
          "internalType": "uint256",
          "name": "",
          "type": "uint256"
        }
      ],
      "payable": false,
      "stateMutability": "view",
      "type": "function"
    },
    {
      "constant": true,
      "inputs": [],
      "name": "turn",
      "outputs": [
        {
          "internalType": "uint256",
          "name": "",
          "type": "uint256"
        }
      ],
      "payable": false,
      "stateMutability": "view",
      "type": "function"
    },
    {
      "constant": true,
      "inputs": [
        {
          "internalType": "address",
          "name": "",
          "type": "address"
        }
      ],
      "name": "users",
      "outputs": [
        {
          "internalType": "uint8",
          "name": "userId",
          "type": "uint8"
        },
        {
          "internalType": "address payable",
          "name": "userAddr",
          "type": "address"
        },
        {
          "internalType": "bool",
          "name": "cashInFlag",
          "type": "bool"
        },
        {
          "internalType": "bool",
          "name": "saveAmountFlag",
          "type": "bool"
        },
        {
          "internalType": "bool",
          "name": "currentRoundFlag",
          "type": "bool"
        },
        {
          "internalType": "bool",
          "name": "latePaymentFlag",
          "type": "bool"
        }
      ],
      "payable": false,
      "stateMutability": "view",
      "type": "function"
    },
    {
      "constant": false,
      "inputs": [],
      "name": "registerUser",
      "outputs": [],
      "payable": true,
      "stateMutability": "payable",
      "type": "function"
    },
    {
      "constant": false,
      "inputs": [],
      "name": "payTurn",
      "outputs": [],
      "payable": true,
      "stateMutability": "payable",
      "type": "function"
    },
    {
      "constant": false,
      "inputs": [],
      "name": "withdrawTurn",
      "outputs": [],
      "payable": true,
      "stateMutability": "payable",
      "type": "function"
    },
    {
      "constant": false,
      "inputs": [],
      "name": "withdrawCashIn",
      "outputs": [],
      "payable": true,
      "stateMutability": "payable",
      "type": "function"
    }
  ],
  "bytecode": "0x60806040526000600560006101000a81548160ff021916908360ff1602179055506000600655600060075560016008556000600a556000600b553480156200004657600080fd5b5060405162001ef038038062001ef083398181016040526200006c91908101906200012b565b33600160006101000a81548173ffffffffffffffffffffffffffffffffffffffff021916908373ffffffffffffffffffffffffffffffffffffffff16021790555067016345785d8a0000830260028190555067016345785d8a0000820260038190555080600481905550600454600c819055506000600e60006101000a81548160ff02191690836002811115620000ff57fe5b021790555042600981905550505050620001a5565b60008151905062000125816200018b565b92915050565b6000806000606084860312156200014157600080fd5b6000620001518682870162000114565b9350506020620001648682870162000114565b9250506040620001778682870162000114565b9150509250925092565b6000819050919050565b620001968162000181565b8114620001a257600080fd5b50565b611d3b80620001b56000396000f3fe6080604052600436106100c25760003560e01c80638b2999031161007f578063b6a26cab11610059578063b6a26cab14610210578063b842478b1461021a578063c040e6b814610245578063f851a44014610270576100c2565b80638b29990314610178578063a87430ba146101a3578063b4bde59e146101e5576100c2565b8063193e76c7146100c757806330fceb6c146100d15780634d3820eb146100db5780635394dda8146100e557806363b635ea1461012257806364f9a17c1461014d575b600080fd5b6100cf61029b565b005b6100d96105d9565b005b6100e3610b73565b005b3480156100f157600080fd5b5061010c60048036036101079190810190611618565b610f5e565b60405161011991906119f3565b60405180910390f35b34801561012e57600080fd5b50610137610f9a565b6040516101449190611ba4565b60405180910390f35b34801561015957600080fd5b50610162610fa0565b60405161016f9190611ba4565b60405180910390f35b34801561018457600080fd5b5061018d610fa6565b60405161019a9190611ba4565b60405180910390f35b3480156101af57600080fd5b506101ca60048036036101c591908101906115ef565b610fac565b6040516101dc96959493929190611bbf565b60405180910390f35b3480156101f157600080fd5b506101fa611049565b6040516102079190611ba4565b60405180910390f35b61021861104f565b005b34801561022657600080fd5b5061022f6113fc565b60405161023c9190611ba4565b60405180910390f35b34801561025157600080fd5b5061025a611402565b6040516102679190611a29565b60405180910390f35b34801561027c57600080fd5b50610285611415565b6040516102929190611a0e565b60405180910390f35b600115156000803373ffffffffffffffffffffffffffffffffffffffff1673ffffffffffffffffffffffffffffffffffffffff16815260200190815260200160002060000160179054906101000a900460ff16151514610330576040517f08c379a000000000000000000000000000000000000000000000000000000000815260040161032790611a84565b60405180910390fd5b6002543414610374576040517f08c379a000000000000000000000000000000000000000000000000000000000815260040161036b90611b24565b60405180910390fd5b600d6001600854038154811061038657fe5b9060005260206000200160009054906101000a900473ffffffffffffffffffffffffffffffffffffffff1673ffffffffffffffffffffffffffffffffffffffff163373ffffffffffffffffffffffffffffffffffffffff16141561041f576040517f08c379a000000000000000000000000000000000000000000000000000000000815260040161041690611b64565b60405180910390fd5b600180600281111561042d57fe5b600e60009054906101000a900460ff16600281111561044857fe5b1461045257600080fd5b600015156000803373ffffffffffffffffffffffffffffffffffffffff1673ffffffffffffffffffffffffffffffffffffffff16815260200190815260200160002060000160169054906101000a900460ff161515146104e7576040517f08c379a00000000000000000000000000000000000000000000000000000000081526004016104de90611ae4565b60405180910390fd5b603c60056001600854030202603c6005600854020261012c600954010101421115610547576040517f08c379a000000000000000000000000000000000000000000000000000000000815260040161053e90611b44565b60405180910390fd5b34600a5401600a8190555060016000803373ffffffffffffffffffffffffffffffffffffffff1673ffffffffffffffffffffffffffffffffffffffff16815260200190815260200160002060000160166101000a81548160ff02191690831515021790555060076000815480929190600101919050555060016004540360075414156105d65760006007819055505b50565b600115156000803373ffffffffffffffffffffffffffffffffffffffff1673ffffffffffffffffffffffffffffffffffffffff16815260200190815260200160002060000160179054906101000a900460ff1615151461066e576040517f08c379a000000000000000000000000000000000000000000000000000000000815260040161066590611a84565b60405180910390fd5b600180600281111561067c57fe5b600e60009054906101000a900460ff16600281111561069757fe5b146106a157600080fd5b600d600160085403815481106106b357fe5b9060005260206000200160009054906101000a900473ffffffffffffffffffffffffffffffffffffffff1673ffffffffffffffffffffffffffffffffffffffff163373ffffffffffffffffffffffffffffffffffffffff161461074b576040517f08c379a000000000000000000000000000000000000000000000000000000000815260040161074290611b84565b60405180910390fd5b603c60056008540202603c6005600854020261012c6009540101014211156107a8576040517f08c379a000000000000000000000000000000000000000000000000000000000815260040161079f90611b04565b60405180910390fd5b42603c60056001600854030202603c6005600854020261012c60095401010110156109e05760008090505b6004548160ff1610156109de576000600d8260ff16815481106107f257fe5b9060005260206000200160009054906101000a900473ffffffffffffffffffffffffffffffffffffffff169050600015156000808373ffffffffffffffffffffffffffffffffffffffff1673ffffffffffffffffffffffffffffffffffffffff16815260200190815260200160002060000160169054906101000a900460ff16151514801561094a57506000808273ffffffffffffffffffffffffffffffffffffffff1673ffffffffffffffffffffffffffffffffffffffff16815260200190815260200160002060000160019054906101000a900473ffffffffffffffffffffffffffffffffffffffff1673ffffffffffffffffffffffffffffffffffffffff16600d6001600854038154811061090657fe5b9060005260206000200160009054906101000a900473ffffffffffffffffffffffffffffffffffffffff1673ffffffffffffffffffffffffffffffffffffffff1614155b156109d057600354600b5403600b81905550600354600a5401600a819055506001600c5403600c8190555060016000808373ffffffffffffffffffffffffffffffffffffffff1673ffffffffffffffffffffffffffffffffffffffff16815260200190815260200160002060000160186101000a81548160ff0219169083151502179055505b5080806001019150506107d3565b505b60035460016004540302600a5414610a2d576040517f08c379a0000000000000000000000000000000000000000000000000000000008152600401610a2490611aa4565b60405180910390fd5b6000600d60016008540381548110610a4157fe5b9060005260206000200160009054906101000a900473ffffffffffffffffffffffffffffffffffffffff1690506000808273ffffffffffffffffffffffffffffffffffffffff1673ffffffffffffffffffffffffffffffffffffffff16815260200190815260200160002060000160019054906101000a900473ffffffffffffffffffffffffffffffffffffffff1673ffffffffffffffffffffffffffffffffffffffff166108fc600a549081150290604051600060405180830381858888f19350505050158015610b17573d6000803e3d6000fd5b506000600a8190555060045460085410610b54576002600e60006101000a81548160ff02191690836002811115610b4a57fe5b0217905550610b5d565b610b5c61143b565b5b6008600081548092919060010191905055505050565b6002543414610bb7576040517f08c379a0000000000000000000000000000000000000000000000000000000008152600401610bae90611b24565b60405180910390fd5b6000806002811115610bc557fe5b600e60009054906101000a900460ff166002811115610be057fe5b14610bea57600080fd5b600454600560009054906101000a900460ff1660ff1610610c40576040517f08c379a0000000000000000000000000000000000000000000000000000000008152600401610c3790611ac4565b60405180910390fd5b61012c60095401421115610c89576040517f08c379a0000000000000000000000000000000000000000000000000000000008152600401610c8090611a64565b60405180910390fd5b6005600081819054906101000a900460ff168092919060010191906101000a81548160ff021916908360ff160217905550506040518060c00160405280600560009054906101000a900460ff1660ff1681526020013373ffffffffffffffffffffffffffffffffffffffff168152602001600015158152602001600015158152602001600115158152602001600015158152506000803373ffffffffffffffffffffffffffffffffffffffff1673ffffffffffffffffffffffffffffffffffffffff16815260200190815260200160002060008201518160000160006101000a81548160ff021916908360ff16021790555060208201518160000160016101000a81548173ffffffffffffffffffffffffffffffffffffffff021916908373ffffffffffffffffffffffffffffffffffffffff16021790555060408201518160000160156101000a81548160ff02191690831515021790555060608201518160000160166101000a81548160ff02191690831515021790555060808201518160000160176101000a81548160ff02191690831515021790555060a08201518160000160186101000a81548160ff021916908315150217905550905050600d3390806001815401808255809150509060018203906000526020600020016000909192909190916101000a81548173ffffffffffffffffffffffffffffffffffffffff021916908373ffffffffffffffffffffffffffffffffffffffff1602179055505034600b5401600b8190555060016000803373ffffffffffffffffffffffffffffffffffffffff1673ffffffffffffffffffffffffffffffffffffffff16815260200190815260200160002060000160156101000a81548160ff0219169083151502179055506006600081548092919060010191905055506004546006541415610f5b5760006006819055506001600e60006101000a81548160ff02191690836002811115610f5557fe5b02179055505b50565b600d8181548110610f6b57fe5b906000526020600020016000915054906101000a900473ffffffffffffffffffffffffffffffffffffffff1681565b60045481565b600a5481565b60085481565b60006020528060005260406000206000915090508060000160009054906101000a900460ff16908060000160019054906101000a900473ffffffffffffffffffffffffffffffffffffffff16908060000160159054906101000a900460ff16908060000160169054906101000a900460ff16908060000160179054906101000a900460ff16908060000160189054906101000a900460ff16905086565b600b5481565b600280600281111561105d57fe5b600e60009054906101000a900460ff16600281111561107857fe5b1461108257600080fd5b600160009054906101000a900473ffffffffffffffffffffffffffffffffffffffff1673ffffffffffffffffffffffffffffffffffffffff163373ffffffffffffffffffffffffffffffffffffffff1614611112576040517f08c379a000000000000000000000000000000000000000000000000000000000815260040161110990611a44565b60405180910390fd5b6000600c54600b548161112157fe5b04905060008090505b6004548160ff16101561133c576000600d8260ff168154811061114957fe5b9060005260206000200160009054906101000a900473ffffffffffffffffffffffffffffffffffffffff16905060008060008373ffffffffffffffffffffffffffffffffffffffff1673ffffffffffffffffffffffffffffffffffffffff16815260200190815260200160002060000160156101000a81548160ff02191690831515021790555060008060008373ffffffffffffffffffffffffffffffffffffffff1673ffffffffffffffffffffffffffffffffffffffff16815260200190815260200160002060000160176101000a81548160ff021916908315150217905550600015156000808373ffffffffffffffffffffffffffffffffffffffff1673ffffffffffffffffffffffffffffffffffffffff16815260200190815260200160002060000160189054906101000a900460ff161515141561132e576000808273ffffffffffffffffffffffffffffffffffffffff1673ffffffffffffffffffffffffffffffffffffffff16815260200190815260200160002060000160019054906101000a900473ffffffffffffffffffffffffffffffffffffffff1673ffffffffffffffffffffffffffffffffffffffff166108fc849081150290604051600060405180830381858888f1935050505015801561132c573d6000803e3d6000fd5b505b50808060010191505061112a565b506000600b819055506000600681905550600454600c819055506000600560006101000a81548160ff021916908360ff16021790555060006040519080825280602002602001820160405280156113a25781602001602082028038833980820191505090505b50600d90805190602001906113b89291906114f8565b506001600e60006101000a81548160ff021916908360028111156113d857fe5b02179055506000600a81905550600160088190555061012c42036009819055505050565b600c5481565b600e60009054906101000a900460ff1681565b600160009054906101000a900473ffffffffffffffffffffffffffffffffffffffff1681565b60008090505b6004548160ff1610156114f5576000600d8260ff168154811061146057fe5b9060005260206000200160009054906101000a900473ffffffffffffffffffffffffffffffffffffffff16905060008060008373ffffffffffffffffffffffffffffffffffffffff1673ffffffffffffffffffffffffffffffffffffffff16815260200190815260200160002060000160166101000a81548160ff021916908315150217905550508080600101915050611441565b50565b828054828255906000526020600020908101928215611571579160200282015b828111156115705782518260006101000a81548173ffffffffffffffffffffffffffffffffffffffff021916908373ffffffffffffffffffffffffffffffffffffffff16021790555091602001919060010190611518565b5b50905061157e9190611582565b5090565b6115c291905b808211156115be57600081816101000a81549073ffffffffffffffffffffffffffffffffffffffff021916905550600101611588565b5090565b90565b6000813590506115d481611cca565b92915050565b6000813590506115e981611ce1565b92915050565b60006020828403121561160157600080fd5b600061160f848285016115c5565b91505092915050565b60006020828403121561162a57600080fd5b6000611638848285016115da565b91505092915050565b61164a81611c43565b82525050565b61165981611c31565b82525050565b61166881611c55565b82525050565b61167781611cab565b82525050565b600061168a602583611c20565b91507f536f6c6f20656c2061646d696e207075656465206c6c616d6172206c6120667560008301527f6e63696f6e0000000000000000000000000000000000000000000000000000006020830152604082019050919050565b60006116f0602283611c20565b91507f456c207469656d706f20646520726567697374726f206861207465726d696e6160008301527f646f0000000000000000000000000000000000000000000000000000000000006020830152604082019050919050565b6000611756601583611c20565b91507f5573756172696f206e6f207265676973747261646f00000000000000000000006000830152602082019050919050565b6000611796602b83611c20565b91507f4573706572612061207175652074656e67616d6f7320656c206d6f6e746f206460008301527f652074752061686f72726f0000000000000000000000000000000000000000006020830152604082019050919050565b60006117fc601683611c20565b91507f456c20677275706f206573746120636f6d706c65746f000000000000000000006000830152602082019050919050565b600061183c601783611c20565b91507f59612061686f7272617374652065737465207475726e6f0000000000000000006000830152602082019050919050565b600061187c601b83611c20565b91507f5465726d696e6f20656c207469656d706f2064652072657469726f00000000006000830152602082019050919050565b60006118bc601483611c20565b91507f466f6e646f7320496e737566696369656e7465730000000000000000000000006000830152602082019050919050565b60006118fc600b83611c20565b91507f5061676f2074617264696f0000000000000000000000000000000000000000006000830152602082019050919050565b600061193c601a83611c20565b91507f456e2065737465207475726e6f206e6f206465706f73697461730000000000006000830152602082019050919050565b600061197c602383611c20565b91507f44656265732065737065726172207475207475726e6f2070617261207265746960008301527f72617200000000000000000000000000000000000000000000000000000000006020830152604082019050919050565b6119de81611c94565b82525050565b6119ed81611c9e565b82525050565b6000602082019050611a086000830184611650565b92915050565b6000602082019050611a236000830184611641565b92915050565b6000602082019050611a3e600083018461166e565b92915050565b60006020820190508181036000830152611a5d8161167d565b9050919050565b60006020820190508181036000830152611a7d816116e3565b9050919050565b60006020820190508181036000830152611a9d81611749565b9050919050565b60006020820190508181036000830152611abd81611789565b9050919050565b60006020820190508181036000830152611add816117ef565b9050919050565b60006020820190508181036000830152611afd8161182f565b9050919050565b60006020820190508181036000830152611b1d8161186f565b9050919050565b60006020820190508181036000830152611b3d816118af565b9050919050565b60006020820190508181036000830152611b5d816118ef565b9050919050565b60006020820190508181036000830152611b7d8161192f565b9050919050565b60006020820190508181036000830152611b9d8161196f565b9050919050565b6000602082019050611bb960008301846119d5565b92915050565b600060c082019050611bd460008301896119e4565b611be16020830188611641565b611bee604083018761165f565b611bfb606083018661165f565b611c08608083018561165f565b611c1560a083018461165f565b979650505050505050565b600082825260208201905092915050565b6000611c3c82611c74565b9050919050565b6000611c4e82611c74565b9050919050565b60008115159050919050565b6000819050611c6f82611cbd565b919050565b600073ffffffffffffffffffffffffffffffffffffffff82169050919050565b6000819050919050565b600060ff82169050919050565b6000611cb682611c61565b9050919050565b60038110611cc757fe5b50565b611cd381611c31565b8114611cde57600080fd5b50565b611cea81611c94565b8114611cf557600080fd5b5056fea365627a7a723158209ed1518d5f59a47c494c1fd47319ec4c2da0ce13c71f9c7df0a1bbceeaf052a26c6578706572696d656e74616cf564736f6c63430005100040",
  "source": "pragma solidity >=0.4.22 <0.7.0;\npragma experimental ABIEncoderV2;\n\ncontract oneRoundReusable {\n    enum Stages {\n        //Stages of the round\n        Setup, //register and receive the initial cash in\n        Save, //receive payments\n        Finished //Cash in is sent to the users\n    }\n\n    struct User {\n        //Information from each user\n        uint8 userId;\n        address payable userAddr;\n        bool cashInFlag;\n        bool saveAmountFlag;\n        bool currentRoundFlag; //defines if the user is participating in the current round\n        bool latePaymentFlag;\n    }\n\n    mapping(address => User) public users;\n    address payable public admin; //The user that deploy the contract is the administrator\n\n    //Constructor deployment variables\n    uint256 cashIn; //amount to be payed as commitment at the begining of the saving circle\n    uint256 saveAmount; //Payment on each round/cycle\n    uint256 public groupSize; //Number of slots for users to participate on the saving circle\n\n    //Counters and flags\n    uint8 usersCounter = 0;\n    uint256 CashInPayeesCount = 0; //Comitment payments counter\n    uint256 saveAmountPayeesCount = 0; //Payments done in round counter\n    uint256 public turn = 1; //Current cycle/round in the saving circle\n    uint256 creationTime;\n    uint256 public totalSaveAmount = 0; //Collective saving on the round\n    uint256 public totalCashIn = 0;\n    uint256 public cashOutUsers;\n    address[] public addressOrderList;\n    Stages public stage;\n\n    constructor(\n        uint256 _cashIn,\n        uint256 _saveAmount,\n        uint256 _groupSize\n    ) public {\n        admin = msg.sender;\n        cashIn = _cashIn * 1e17;\n        saveAmount = _saveAmount * 1e17;\n        groupSize = _groupSize;\n        cashOutUsers = groupSize;\n        stage = Stages.Setup;\n        creationTime = now;\n    }\n\n    modifier isUsersTurn() {\n        //Verifies if it is the users round to widraw\n        require(\n            msg.sender == addressOrderList[turn - 1],\n            \"Debes esperar tu turno para retirar\"\n        );\n        _;\n    }\n\nmodifier isNotUsersTurn() {\n        //Verifies if it is the users round to widraw\n        require(\n            msg.sender != addressOrderList[turn - 1],\n            \"En este turno no depositas\"\n        );\n        _;\n    }\n\n    modifier isRegisteredUser() {\n        //Verifies if it is the users round to widraw\n        require(\n            users[msg.sender].currentRoundFlag == true,\n            \"Usuario no registrado\"\n        );\n        _;\n    }\n\n    modifier isPayAmountCorrect() {\n        //Verifies if it is the users round to widraw\n        require(msg.value == cashIn, \"Fondos Insuficientes\");\n        _;\n    }\n\n    modifier atStage(Stages _stage) {\n        require(stage == _stage);\n        _;\n    }\n\n    modifier onlyAdmin() {\n        require(msg.sender == admin, \"Solo el admin puede llamar la funcion\");\n        _;\n    }\n\n    function registerUser()\n        public\n        payable\n        isPayAmountCorrect\n        atStage(Stages.Setup)\n    {\n        require(usersCounter < groupSize, \"El grupo esta completo\"); //the saving circle is full\n        require(now <= creationTime + 5 minutes, \"El tiempo de registro ha terminado\");\n        usersCounter++;\n        users[msg.sender] = User(\n            usersCounter,\n            msg.sender,\n            false,\n            false,\n            true,\n            false\n        );\n        addressOrderList.push(msg.sender); //store user\n        totalCashIn = totalCashIn + msg.value;\n        users[msg.sender].cashInFlag = true;\n        CashInPayeesCount++;\n        if (CashInPayeesCount == groupSize) {\n            CashInPayeesCount = 0;\n            stage = Stages.Save;\n        }\n    }\n\n    function payTurn()\n        public\n        payable\n        isRegisteredUser\n        isPayAmountCorrect\n        isNotUsersTurn\n        atStage(Stages.Save)\n    {\n        //users make the payment for the cycle\n        require(\n            users[msg.sender].saveAmountFlag == false,\n            \"Ya ahorraste este turno\"\n        ); //you have already saved this round\n        require(now <= creationTime + 5 minutes + (turn*5)*60 + ((turn-1)*5)*60 , \"Pago tardio\");\n        totalSaveAmount = totalSaveAmount + msg.value;\n        users[msg.sender].saveAmountFlag = true;\n        saveAmountPayeesCount++;\n        if (saveAmountPayeesCount == groupSize-1) {\n            saveAmountPayeesCount = 0;\n        }\n    }\n\n    function withdrawTurn()\n        public\n        payable\n        isRegisteredUser\n        atStage(Stages.Save)\n        isUsersTurn\n    {\n        require(now <= creationTime + 5 minutes + (turn*5)*60 + (turn*5)*60 , \"Termino el tiempo de retiro\");\n        if (\n            creationTime + 5 minutes + turn*5*60 + (turn-1)*5*60 < now\n        ) {\n            for (uint8 i = 0; i < groupSize; i++) {\n                address useraddress = addressOrderList[i];\n                if (users[useraddress].saveAmountFlag == false && addressOrderList[turn - 1] != users[useraddress].userAddr\n                ) {\n                    totalCashIn = totalCashIn - saveAmount;\n                    totalSaveAmount = totalSaveAmount + saveAmount;\n                    cashOutUsers=cashOutUsers-1;\n                    users[useraddress].latePaymentFlag = true;\n                }\n\n             }\n\n        }\n        require(\n            totalSaveAmount == (groupSize-1) * saveAmount,\n            \"Espera a que tengamos el monto de tu ahorro\"\n        ); //Se debe estar en fase de pago\n        address addressUserInTurn = addressOrderList[turn - 1];\n        users[addressUserInTurn].userAddr.transfer(totalSaveAmount);\n        totalSaveAmount = 0;\n        if (turn >= groupSize) {\n            stage = Stages.Finished;\n        } else {\n            newTurn();\n        }\n        turn++;\n    }\n\n    function newTurn() private {\n        //repeats the save and pay stages according to the saving circle size\n        for (uint8 i = 0; i < groupSize; i++) {\n            address useraddress = addressOrderList[i];\n            users[useraddress].saveAmountFlag = false;\n        }\n    }\n\n    function withdrawCashIn()\n        public\n        payable\n        atStage(Stages.Finished)\n        onlyAdmin\n    {\n        //When all the rounds are done the admin sends the cash in to the users\n        uint256 cashOut=totalCashIn/cashOutUsers;\n        for (uint8 i = 0; i < groupSize; i++) {\n            address useraddress = addressOrderList[i];\n            users[useraddress].cashInFlag = false;\n            users[useraddress].currentRoundFlag = false;\n            if (users[useraddress].latePaymentFlag == false) {\n                users[useraddress].userAddr.transfer(cashOut);\n            }\n        }\n        totalCashIn = 0;\n        CashInPayeesCount = 0;\n        cashOutUsers = groupSize;\n        usersCounter = 0;\n        addressOrderList = new address[](0);\n        stage = Stages.Save;\n        totalSaveAmount = 0;\n        turn = 1;\n        creationTime = now - 5 minutes; //remove 3 minutes from registration\n    }\n}\n",
  "sourcePath": "/home/nita/Documents/01.Projects/BloinX/repo/contracts/oneRoundReusable.sol",
  "compiler": {
    "name": "solc",
    "version": "0.5.16+commit.9c3226ce.Emscripten.clang"
  },
  "schemaVersion": "3.2.2",
  "updatedAt": "2021-01-01T23:58:16.473Z",
  "networkType": "ethereum",
  "devdoc": {
    "methods": {}
  },
  "userdoc": {
    "methods": {}
  }
}