{
  "contractName": "StateMachine",
  "abi": [
    {
      "constant": true,
      "inputs": [],
      "name": "amount",
      "outputs": [
        {
          "name": "",
          "type": "uint256"
        }
      ],
      "payable": false,
      "stateMutability": "view",
      "type": "function"
    },
    {
      "constant": true,
      "inputs": [],
      "name": "stage",
      "outputs": [
        {
          "name": "",
          "type": "uint8"
        }
      ],
      "payable": false,
      "stateMutability": "view",
      "type": "function"
    },
    {
      "constant": true,
      "inputs": [],
      "name": "creationTime",
      "outputs": [
        {
          "name": "",
          "type": "uint256"
        }
      ],
      "payable": false,
      "stateMutability": "view",
      "type": "function"
    },
    {
      "constant": true,
      "inputs": [],
      "name": "admin",
      "outputs": [
        {
          "name": "",
          "type": "address"
        }
      ],
      "payable": false,
      "stateMutability": "view",
      "type": "function"
    },
    {
      "inputs": [
        {
          "name": "_usr1",
          "type": "address"
        },
        {
          "name": "_usr2",
          "type": "address"
        },
        {
          "name": "_usr3",
          "type": "address"
        },
        {
          "name": "_usr4",
          "type": "address"
        },
        {
          "name": "_amount",
          "type": "uint256"
        }
      ],
      "payable": false,
      "stateMutability": "nonpayable",
      "type": "constructor"
    },
    {
      "constant": false,
      "inputs": [],
      "name": "payFee",
      "outputs": [],
      "payable": true,
      "stateMutability": "payable",
      "type": "function"
    },
    {
      "constant": false,
      "inputs": [],
      "name": "deposit",
      "outputs": [],
      "payable": true,
      "stateMutability": "payable",
      "type": "function"
    },
    {
      "constant": false,
      "inputs": [
        {
          "name": "_adr",
          "type": "address"
        }
      ],
      "name": "withraw",
      "outputs": [],
      "payable": true,
      "stateMutability": "payable",
      "type": "function"
    }
  ],
  "bytecode": "0x608060405234801561001057600080fd5b5060405160a0806108b9833981018060405260a081101561003057600080fd5b810190808051906020019092919080519060200190929190805190602001909291908051906020019092919080519060200190929190505050336000806101000a81548173ffffffffffffffffffffffffffffffffffffffff021916908373ffffffffffffffffffffffffffffffffffffffff16021790555060008060146101000a81548160ff021916908360048111156100c757fe5b02179055504260018190555084600360000160006101000a81548173ffffffffffffffffffffffffffffffffffffffff021916908373ffffffffffffffffffffffffffffffffffffffff16021790555083600460000160006101000a81548173ffffffffffffffffffffffffffffffffffffffff021916908373ffffffffffffffffffffffffffffffffffffffff16021790555082600560000160006101000a81548173ffffffffffffffffffffffffffffffffffffffff021916908373ffffffffffffffffffffffffffffffffffffffff16021790555081600660000160006101000a81548173ffffffffffffffffffffffffffffffffffffffff021916908373ffffffffffffffffffffffffffffffffffffffff1602179055506001600360000160146101000a81548160ff0219169083151502179055506001600460000160146101000a81548160ff0219169083151502179055506001600560000160146101000a81548160ff0219169083151502179055506001600660000160146101000a81548160ff021916908315150217905550806002819055505050505050610643806102766000396000f3fe6080604052600436106100705760003560e01c8063c040e6b81161004e578063c040e6b8146100ee578063d0e30db014610127578063d8270dce14610131578063f851a4401461015c57610070565b80632961025214610075578063986415ce1461007f578063aa8c217c146100c3575b600080fd5b61007d6101b3565b005b6100c16004803603602081101561009557600080fd5b81019080803573ffffffffffffffffffffffffffffffffffffffff1690602001909291905050506102c2565b005b3480156100cf57600080fd5b506100d861042a565b6040518082815260200191505060405180910390f35b3480156100fa57600080fd5b50610103610430565b6040518082600481111561011357fe5b60ff16815260200191505060405180910390f35b61012f610443565b005b34801561013d57600080fd5b5061014661059f565b6040518082815260200191505060405180910390f35b34801561016857600080fd5b506101716105a5565b604051808273ffffffffffffffffffffffffffffffffffffffff1673ffffffffffffffffffffffffffffffffffffffff16815260200191505060405180910390f35b600060048111156101c057fe5b600060149054906101000a900460ff1660048111156101db57fe5b1480156101ed57506078600154014210155b156101fb576101fa6105ca565b5b6001600481111561020857fe5b600060149054906101000a900460ff16600481111561022357fe5b148015610235575060f0600154014210155b15610243576102426105ca565b5b6002600481111561025057fe5b600060149054906101000a900460ff16600481111561026b57fe5b14801561027e5750610168600154014210155b1561028c5761028b6105ca565b5b600080600481111561029a57fe5b600060149054906101000a900460ff1660048111156102b557fe5b146102bf57600080fd5b50565b600060048111156102cf57fe5b600060149054906101000a900460ff1660048111156102ea57fe5b1480156102fc57506078600154014210155b1561030a576103096105ca565b5b6001600481111561031757fe5b600060149054906101000a900460ff16600481111561033257fe5b148015610344575060f0600154014210155b15610352576103516105ca565b5b6002600481111561035f57fe5b600060149054906101000a900460ff16600481111561037a57fe5b14801561038d5750610168600154014210155b1561039b5761039a6105ca565b5b60028060048111156103a957fe5b600060149054906101000a900460ff1660048111156103c457fe5b146103ce57600080fd5b6000600460025402905080600760003373ffffffffffffffffffffffffffffffffffffffff1673ffffffffffffffffffffffffffffffffffffffff16815260200190815260200160002060008282540392505081905550505050565b60025481565b600060149054906101000a900460ff1681565b6000600481111561045057fe5b600060149054906101000a900460ff16600481111561046b57fe5b14801561047d57506078600154014210155b1561048b5761048a6105ca565b5b6001600481111561049857fe5b600060149054906101000a900460ff1660048111156104b357fe5b1480156104c5575060f0600154014210155b156104d3576104d26105ca565b5b600260048111156104e057fe5b600060149054906101000a900460ff1660048111156104fb57fe5b14801561050e5750610168600154014210155b1561051c5761051b6105ca565b5b600180600481111561052a57fe5b600060149054906101000a900460ff16600481111561054557fe5b1461054f57600080fd5b34600760003373ffffffffffffffffffffffffffffffffffffffff1673ffffffffffffffffffffffffffffffffffffffff1681526020019081526020016000206000828254019250508190555050565b60015481565b6000809054906101000a900473ffffffffffffffffffffffffffffffffffffffff1681565b6001600060149054906101000a900460ff1660048111156105e757fe5b0160048111156105f357fe5b600060146101000a81548160ff0219169083600481111561061057fe5b021790555056fea165627a7a72305820fcdf8b515e2de3e9db785ec5b4dc442b93d12f41d0ebf5689e94f6165b694a530029",
  "source": "pragma solidity >=0.4.22 <0.7.0;\n\ncontract StateMachine {\n    enum Stages {   //Stages of the round\n        setup,      //receive the initial fees\n        saveN1,     //receive payments for stage number 1\n        payN1,      //send savings to user in 1rst number\n        AreWeDoneYet,\n        Finished\n    }\n\n    struct user{    //stores the users\n        address adr;\n        bool   fee; \n    }\n    \n    address public admin;\n    Stages public stage;    // This is the current stage.\n    uint public creationTime;\n    uint public amount;\n    user usr1;\n    user usr2;\n    user usr3;\n    user usr4;\n    mapping (address => uint) private balances;\n    \n    constructor (address _usr1, address _usr2, address _usr3, address _usr4, uint _amount) public {\n        admin = msg.sender;\n        stage = Stages.setup;\n        creationTime = now;\n        usr1.adr=_usr1;\n        usr2.adr=_usr2;\n        usr3.adr=_usr3;\n        usr4.adr=_usr4;\n        usr1.fee=true;\n        usr2.fee=true;\n        usr3.fee=true;\n        usr4.fee=true;\n        amount=_amount;\n    }\n\n    modifier atStage(Stages _stage) {\n        require(stage == _stage);\n        _;\n    }\n\n    function nextStage() internal {\n        stage = Stages(uint(stage) + 1);\n    }\n\n    // Perform timed transitions. Be sure to mention\n    // this modifier first, otherwise the guards\n    // will not take the new stage into account.\n    modifier timedTransitions() {\n        if (stage == Stages.setup &&\n                    now >= creationTime + 2 minutes)\n            nextStage();\n        if (stage == Stages.saveN1 &&\n                now >= creationTime + 4 minutes)\n            nextStage();\n        if (stage == Stages.payN1 &&\n                now >= creationTime + 6 minutes)\n            nextStage();\n        /*if (stage == Stages.saveN2 &&\n                now >= creationTime + 8 minutes)\n            nextStage();\n        if (stage == Stages.payN2 &&\n                now >= creationTime + 10 minutes)\n            nextStage();\n        if (stage == Stages.saveN3 &&\n                now >= creationTime + 12 minutes)\n            nextStage();\n        if (stage == Stages.payN3 &&\n                now >= creationTime + 14 minutes)\n            nextStage();\n        if (stage == Stages.saveN4 &&\n                now >= creationTime + 16 minutes)\n            nextStage();\n        if (stage == Stages.payN4 &&\n                now >= creationTime + 18 minutes)\n            nextStage();\n        // The other stages transition by transaction */\n        _;\n    }\n\n    // Order of the modifiers matters here!\n    function payFee()\n        public\n        payable\n        timedTransitions\n        atStage(Stages.setup)\n    {\n        // We will not implement that here\n    }\n\n    function deposit()\n        public\n        payable\n        timedTransitions\n        atStage(Stages.saveN1)\n    {\n        balances[msg.sender] += msg.value;\n    }\n        function withraw(address _adr)\n        public\n        payable\n        timedTransitions\n        atStage(Stages.payN1)\n    {\n        uint number=amount*4;\n        balances[msg.sender] -= number;\n    }\n\n    // This modifier goes to the next stage\n    // after the function is done.\n    modifier transitionNext()\n    {\n        _;\n        nextStage();\n    }\n\n}\n\n",
  "sourcePath": "/Users/federico/Desktop/bbvaHack/bloinx/contracts/Round4.sol",
  "compiler": {
    "name": "solc",
    "version": "0.5.8+commit.23d335f2.Emscripten.clang"
  },
  "schemaVersion": "3.0.15",
  "updatedAt": "2020-07-23T02:42:07.200Z",
  "devdoc": {
    "methods": {}
  },
  "userdoc": {
    "methods": {}
  }
}